:020000040800F2
:10000000D06100205D020008B1300008E92300083B
:10001000AD3000082D0700086D3900080000000011
:100020000000000000000000000000009D0100082A
:100030003107000800000000F90100086D310008D8
:1000400077020008770200087702000877020008AC
:10005000770200087702000877020008770200089C
:10006000770200087702000877020008770200088C
:10007000770200087702000877020008770200087C
:1000800077020008770200080504000877020008DC
:10009000770200087702000877020008770200085C
:1000A000770200087702000877020008770200084C
:1000B00077020008770200084D3200087702000836
:1000C000770200087702000877020008153100085F
:1000D000770200088538000877020008B538000864
:1000E000770200087702000877020008770200080C
:1000F00077020008770200087702000877020008FC
:1001000077020008770200087702000877020008EB
:1001100077020008770200087702000877020008DB
:1001200077020008770200087702000877020008CB
:1001300077020008770200087702000877020008BB
:1001400077020008770200087702000877020008AB
:10015000770200087702000877020008770200089B
:10016000770200087702000877020008770200088B
:1001700077020008770200087702000800000000FC
:100180007702000877020008DFF80CD000F028F9A9
:1001900000480047853F0008D06100202C4B1968BB
:1001A0000868B0E8F04F80F30988BFF36F8F4FF015
:1001B000000080F3118870470000000008480068C4
:1001C000006880F308884FF0000080F3148862B65E
:1001D00061B6BFF34F8FBFF36F8F00DF00BF00BF6B
:1001E00008ED00E0DFF80C00016841F470010160E7
:1001F000704700BF88ED00E0EFF30980BFF36F8F19
:10020000134B1A681EF0100F08BF20ED108A20E96A
:10021000F04F106009B44FF0500080F31188BFF325
:100220004F8FBFF36F8F07F01FFC4FF0000080F37C
:10023000118809BC19680868B0E8F04F1EF0100F6B
:1002400008BFB0EC108A80F30988BFF36F8F704746
:1002500014000020EFF30580704700000648804737
:1002600006480047FEE7FEE7FEE7FEE7FEE7FEE79B
:10027000FEE7FEE7FEE7FEE73932000889010008E5
:100280002DE9F05F0546002092469B4688460646CB
:10029000814640241BE0284641464746224600F05E
:1002A0008EF853465A46C01A914110D3114618464B
:1002B000224600F075F82D1A67EB01084F462246DA
:1002C0000120002100F06CF817EB00094E41201EC0
:1002D000A4F10104DFDC484631462A464346BDE826
:1002E000F09F00000649074A0868504343F239026C
:1002F00010440860400870470149086070470000DA
:10030000B40000206D4EC64140EA01039B0703D0B4
:1003100009E008C9121F08C0042AFAD203E011F844
:10032000013B00F8013B521EF9D27047D2B201E006
:1003300000F8012B491EFBD270470022F6E710B5EA
:1003400013460A4604461946FFF7F0FF204610BD43
:1003500030B505462A460B4612F8010B13F8014B3F
:1003600008B1A042F8D01CB1002802D06D1CF1E702
:10037000284630BD421C10F8011B0029FBD1801A11
:10038000704730B505460020034600E05B1C9342F1
:1003900005D2EC5CC85C201A01D1002CF6D130BD2E
:1003A000202A04DB203A00FA02F100207047914035
:1003B000C2F1200320FA03F3194390407047202A2A
:1003C00004DB203A21FA02F00021704721FA02F3FF
:1003D000D040C2F120029140084319467047000006
:1003E000064C074D06E0E06840F0010394E8070082
:1003F00098471034AC42F6D3FFF7CAFED0900008FD
:10040000F090000810B5024800F0A8FA10BD0000F6
:10041000C404002055494A6822F440324A604A68C0
:1004200043681A434A600268526822F48072036883
:100430005A6002685368026943EA022203685A60FC
:100440000268526822F0407203685A60026852687B
:1004500083681A4303685A600268926822F4006253
:1004600003689A6002689268C3681A4303689A60D6
:100470003F4B826A9A4218D00268926822F07062FA
:1004800003689A6002689268836A1A4303689A60F4
:100490000268926822F0405203689A60026892688B
:1004A000C36A1A4303689A600BE00268926822F0FC
:1004B000706203689A600268926822F04052036892
:1004C0009A600268926822F0020203689A600268E9
:1004D0009368027E43EA420203689A602022125C1B
:1004E000A2B10268526842F4006203685A6002686E
:1004F000526822F4604203685A6002685368426A94
:10050000521E43EA423203685A6005E002685268AC
:1005100022F4006203685A600268D26A22F4700210
:100520000368DA620268D36A828B521E43EA02527F
:100530000368DA620268926822F4007203689A60C3
:100540000268936890F8302043EA422203689A6078
:100550000268926822F4806203689A600268936875
:10056000426943EA822203689A607047002301408F
:100570000100000F10B5084805F084FD064805F09D
:1005800091FD064805F07EFD044805F08BFD04480A
:1005900006F021FE002010BDAC000020B0000020BD
:1005A0006059002070B505460E4600BF094928462F
:1005B00006F015FE08B9002070BD3146064805F06A
:1005C00079FD044614B96FF00100F5E7012CEDD078
:1005D0000020F1E760590020B00000202DE9F04133
:1005E00005460E4614463146284601F0F5FE2146E2
:1005F000064805F05FFD07462FB100F0CFF88046B2
:100600004046BDE8F0816FF00100FAE7AC00002041
:100610009AB0002447E001A908194FF0FF3100F01B
:10062000CDFA002101AA601C1154002C2ED0601EAE
:1006300001A9085C0D2829D101A8005D0A2825D14F
:1006400019A101A8FFF784FE60B1224601A918484C
:10065000FFF75AFE002002F06FFD164805F032FD4C
:10066000002411E014A101A8FFF772FE60B1224638
:1006700001A90F48FFF748FE4FF0FF3002F05CFD84
:100680000C4805F01FFD0024002409E001A800F03B
:100690008BF820B101A802F00DFD002400E0641CDD
:1006A000642C00DB0024B6E74F4B0D0A000000006D
:1006B000685D0020AC0000204552524F520D0A00E8
:1006C0002DE9F04780460C4616461F464046FFF788
:1006D00051FE82465146404601F07EFE022110A0A6
:1006E00001F07AFE39460F4805F0E4FC8146B9F185
:1006F000000F11D000F052F8054655B94CB1642EE8
:1007000001DD642000E03046024607492046FFF73D
:10071000FBFD2846BDE8F0876FF00100FAE7000016
:100720000D0A0000AC000020685D002000BFFEE75D
:100730007047000010B501220021252000F078FC50
:10074000252000F061FC04480068C06840F06000AB
:1007500001490968C86010BDAC05002010B5002231
:100760000F21272000F064FC272000F04DFC0848F2
:100770000068006820F02000054909680860044806
:100780000068C06840F0200001490968C86010BDD9
:10079000F405002072B600BFFEE7000001480068C3
:1007A00070470000A800002010B5044604A12046B0
:1007B000FFF7CEFD08B1012010BD0020FCE70000CE
:1007C0002B4950442C0000007047000038B5024609
:1007D0000020009000BF92F83C00012801D10220C7
:1007E00038BD012082F83C0000BF0868092816D9EE
:1007F0001068C0680C780A3C04EB44050724AC4040
:10080000A0431468E0600C780A3C04EB4404886858
:10081000A0401468E46820431468E06013E01068A6
:1008200000690C7804EB44050724AC40A04314682D
:1008300020610C7804EB44048868A04014682469A3
:100840002043146820614868072817D21068406B5D
:100850000C79641E04EB84051F24AC40A04314688B
:100860006063088880B20C79641E04EB8404A040A5
:100870001468646B20431468606331E048680D2895
:1008800017D21068006B0C79E41F04EB84051F2459
:10089000AC40A04314682063088880B20C79E41F40
:1008A00004EB8404A0401468246B20431468206384
:1008B00016E01068C06A0C790D3C04EB84051F2417
:1008C000AC40A0431468E062088880B20C790D3C0B
:1008D00004EB8404A0401468E46A20431468E062D6
:1008E000194B1A4C1068A04206D10868122803D18F
:1008F000586840F480005860144C1068A0421CD125
:100900000868102802D00868112816D1586840F4E9
:1009100000005860086810280FD10D4800680D4C81
:10092000B0FBF4F000EB80004000009002E0009883
:10093000401E009000980028F9D100BF002082F8E6
:100940003C0000BF00BF4BE70023014000200140F6
:100950001000002040420F00704770472DE9F04121
:10096000044600250026206807682068D0F8048027
:1009700007F0020508F0200695B38EB3206C00F056
:10098000100018B9206C40F4007020642068806862
:1009900000F04050E8B9207ED8B92068C06A00F461
:1009A000700020B12068806800F4806088B92068F9
:1009B000406820F0200021684860206C20F480709E
:1009C0002064206C00F4805018B9206C40F00100C5
:1009D00020642046FFF7C0FF6FF012002168086016
:1009E00007F0040508F08006E5B3DEB3206C00F0E4
:1009F000100018B9206C40F4005020642068806812
:100A000000F4401038BB2068806B00F4401020B127
:100A10002068806800F48060E8B92068406800F4CD
:100A20008060C0B92068806800F0405098B9207E8E
:100A300088B92068406820F0800021684860206CF8
:100A400020F480502064206C00F4807018B9206C71
:100A500040F0010020642046FFF7B6FE6FF00C0066
:100A60002168086007F0010508F0400685B17EB1F5
:100A70002068006800F0010050B1206C40F4803024
:100A80002064204600F050F86FF0010021680860F3
:100A900007F0200508F080667DB176B1606C40F00B
:100AA000020060646FF02000216808602046FFF7B4
:100AB00054FF6FF0200021680860BDE8F08100005D
:100AC00070B5044600250CB9012070BD1549A06A17
:100AD000884200D000BF206C30B9204600F026F8D4
:100AE0000020606484F83C00206C00F0100088B99D
:100AF000206C20F4885040F0020020642046FFF76C
:100B000089FC00206064206C20F0020040F00100AD
:100B1000206400E0012500BF002084F83C0000BFF5
:100B20002846D2E70100000F7047000010B586B0DC
:100B30000446142101A8FFF700FC1D4920688842E3
:100B400033D100BF002000901A48006840F4807044
:100B5000184908600846006800F48070009000BFE3
:100B600000BF00BF0020009012481438006840F019
:100B700001001049143908600846006800F00100BF
:100B8000009000BF00BF02200190032002900020CF
:100B9000039001A9084800F083F8002205211220E3
:100BA00000F046FA122000F02FFA06B010BD000047
:100BB00000200140443802400000024070B5044665
:100BC0000D462946204602F097FE70BD70B50446DA
:100BD000A56D00F065F9064694F83500022808D0A6
:100BE0008020606500BF002084F8340000BF012031
:100BF00070BD2068006820F0160021680860206839
:100C0000406920F0800021684861206C08B9A06C20
:100C100028B12068006820F008002168086020687A
:100C2000006820F001002168086010E000F038F949
:100C3000801B05280BD920206065032084F835002F
:100C400000BF002084F8340000BF0320D0E72068F4
:100C5000006800F001000028E8D194F85C103F2003
:100C60008840A860012084F8350000BF002084F887
:100C7000340000BF00BFBBE7014691F835000228F1
:100C800003D08020486501207047052081F8350099
:100C90000868006820F001000A6810600020F3E78F
:100CA000F8B502460B460025002400200021D6E0BE
:100CB000012606FA01F51E6806EA0504AC4274D165
:100CC0001E7906F00306012E04D01E7906F00306F5
:100CD000022E13D190684F000326BE40B0434F0050
:100CE000DE68BE4030439060506801268E40B043BD
:100CF0001E79C6F300168E40304350601E7906F010
:100D00000306032E09D0D0684F000326BE40B0432F
:100D10004F009E68BE403043D0601E7906F0030647
:100D2000022E13D1CF0802F1200656F827004E07F5
:100D3000F70E0F26BE40B0434F07FF0E1E69BE40A0
:100D40003043CF0802F1200646F8270010684F0014
:100D50000326BE40B0431E7906F003064F00BE4096
:100D6000304310605E6806F44036002E76D000BF37
:100D7000002600963C4E366846F480463A4F3E6068
:100D80003E46366806F48046009600BF00BF374EE8
:100D90008F0856F827008E07370F0F26BE40B04346
:100DA000334EB24202D1002624E057E0314EB24227
:100DB00001D101261EE0304EB24201D1022619E0D7
:100DC0002E4EB24201D1032614E02D4EB24201D183
:100DD00004260FE02B4EB24201D105260AE02A4E2E
:100DE000B24201D1062605E0284EB24201D10726C3
:100DF00000E008268F073F0FBE4030431B4E8F0890
:100E000046F82700224E3068A0435E6806F480163C
:100E100006B120431E4E3060361D3068A0435E6828
:100E200006F4001606B12043194E361D3060184EE8
:100E3000361F3068A0435E6806F4003606B12043D2
:100E4000134E361F3060361F3068A0435E6806F4CC
:100E5000803606B120430E4E083E3060491C1029F2
:100E6000FFF426AFF8BD00004438024008380140C6
:100E7000000002400004024000080240000C024052
:100E8000001002400014024000180240001C024002
:100E9000083C01400AB1816101E00B0483617047A5
:100EA0000148006870470000040000200348006803
:100EB000034909780844014908607047040000208C
:100EC0000C00002010B50D48006840F400700B497C
:100ED00008600846006840F48060086008460068C2
:100EE00040F480700860032000F0E0F80F2000F06C
:100EF00007F800F05FF8002010BD0000003C024041
:100F00002DE9F04188B004460027B84600BF002014
:100F100001902348006840F0040021490860084619
:100F2000006800F00400019000BF00BF02A903A800
:100F300000F092F9069F1FB900F0B6F9054602E0ED
:100F400000F0B2F945001748B5FBF0F0A0F1010838
:100F500015481649086040F2E7311448C160C0F8EE
:100F60000480002101618160816100F01FFE06465E
:100F700096B90E4800F068FE06466EB91E2000F0D5
:100F800043F8102C07D2002221461E2000F050F812
:100F90000748046000E00126304608B0BDE8F08153
:100FA0004038024040420F00000800403C0600204C
:100FB0000800002008B500BF00200090114800681C
:100FC00040F480400F4908600846006800F4804003
:100FD000009000BF00BF00BF00200090081F006805
:100FE00040F08050091F08600846006800F08050FB
:100FF000009000BF00BF00220F21901E00F018F8E3
:1010000008BD0000443802400146084600280DDBB8
:1010100000BF00BF00F01F0301229A4043099B005C
:1010200003F1E023C3F8002100BF00BF00BF7047F9
:101030002DE9F05F80460D461646002702F0BCFC05
:10104000074639462A46334601F00700C0F1070A31
:10105000BAF1040F02D94FF0040A01E0C0F1070A07
:10106000D14600F1040ABAF1070F02D24FF0000A8C
:1010700001E0A0F1030AD4464FF0010A0AFA09FA86
:10108000AAF1010A0AEA020A0AFA0CFA4FF0010B65
:101090000BFA0CFBABF1010B0BEA030B4AEA0B0456
:1010A0002146404602F090FCBDE8F09F00BF00F0F2
:1010B0000702064B19684FF6FF031940044B0B4318
:1010C00043EA0221014B196000BF70470CED00E0BC
:1010D0000000FA0570B504460D460CB9012070BD3C
:1010E0005848006800F00700A84209D255490D7021
:1010F0000846006800F00700A84201D00120EEE792
:10110000207800F0020002281DD1207800F00400B1
:10111000042805D14C48006840F4E0504A49086072
:10112000207800F00800082805D14748006840F4FE
:101130006040454908604448006820F0F000A1681C
:10114000084341490860207800F00100A8B36068B6
:10115000012807D13C4808380068C0F34040B8B9BE
:101160000120BCE76068022802D06068032807D12C
:10117000354808380068C0F3406048B90120AEE740
:10118000314808380068C0F3400008B90120A6E7DC
:101190002D48006820F00300616808432A49086070
:1011A000FFF77EFE064609E0FFF77AFE801B41F25C
:1011B0008831884202D9032091E707E0224800687D
:1011C00000F00C006168B0EB810FEDD11D480068A4
:1011D00000F00700A84209D91A490D7008460068B6
:1011E00000F00700A84201D0012078E7207800F045
:1011F0000400042807D11448006820F4E050E16896
:10120000084311490860207800F00800082808D138
:101210000D48006820F46040216940EAC1000A4995
:10122000086000F061F808490968C1F30311074A32
:10123000515CC8400649086006480068FFF760FE38
:1012400000204CE7003C024008380240D08C0008E7
:1012500010000020080000200F2202600D4A1268D2
:1012600002F0030242600B4A126802F0F002826050
:10127000084A126802F4E052C260064A126802F498
:101280006042D2080261044A126802F007020A6052
:101290007047000008380240003C024001480068E6
:1012A000704700001000002000B5FFF7F7FF044969
:1012B0000968C1F38221034A515CC84000BD0000A7
:1012C00008380240E08C000800B5FFF7E7FF04494A
:1012D0000968C1F34231034A515CC84000BD0000B7
:1012E00008380240E08C00082DE9F0470024002572
:1012F0000026A1462548006800F00C0020B1042813
:1013000005D008283AD105E0DFF8849039E0DFF80D
:10131000849036E01D48001F006800F03F041B4821
:10132000001F006800F4800078B11A481749091FAF
:101330000968C1F38811A0FB017001462246002311
:101340003846FEF79DFF05460EE011480F49091F7C
:101350000968C1F38811A0FB0170014622460023F1
:101360003846FEF78DFF05460848001F0068C0F3A9
:101370000140401C4600B5FBF6F902E0DFF8109092
:1013800000BF00BF4846BDE8F087000008380240B3
:101390000024F40000127A00F8B504460CB90120CC
:1013A000F8BD207800F00100002874D0F9480068EA
:1013B00000F00C0004280DD0F648006800F00C0086
:1013C000082813D1F348001F006800F48000B0F52E
:1013D000800F0BD1EF4808380068C0F34040002868
:1013E00059D06068002856D10120D9E700BF606855
:1013F000B0F5803F08D1E7480838006840F48030F5
:10140000E449083908601EE06068B0F5A02F0DD1EE
:10141000E0480838006840F48020DE490839086058
:101420000846006840F4803008600CE0D94808386D
:10143000006820F48030D749083908600846006801
:1014400020F48020086000BF606890B1FFF728FD9D
:10145000054606E0FFF724FD401B642801D9032060
:101460009EE7CC4808380068C0F340400028F1D01F
:1014700011E0FFF715FD054606E0FFF711FD401BE3
:10148000642801D903208BE7C24808380068C0F3FC
:1014900040400028F1D1207800F0020002285FD1FE
:1014A000BC48006800F00C0058B1BA48006800F071
:1014B0000C0008281CD1B748001F006800F4800009
:1014C000B0B9B44808380068C0F3400020B1E06803
:1014D000012801D0012063E7AE480838006820F0F9
:1014E000F800216940EAC100AA490839086037E0DC
:1014F000E06800B30120A8490860FFF7D1FC054669
:1015000006E0FFF7CDFC401B022801D9032047E786
:10151000A04808380068C0F340000028F1D09D487A
:101520000838006820F0F800216940EAC1009949B4
:101530000839086014E0002097490860FFF7B0FC04
:10154000054606E0FFF7ACFC401B022801D903204A
:1015500026E7904808380068C0F340000028F1D121
:10156000207800F0080008282CD16069A8B101207B
:101570008A490860FFF794FC054606E0FFF790FCF7
:10158000401B022801D903200AE782486C3000681A
:10159000C0F340000028F1D014E000207F4908602B
:1015A000FFF77EFC054606E0FFF77AFC401B0228A9
:1015B00001D90320F4E677486C300068C0F340009E
:1015C0000028F1D1207800F00400042870D1002711
:1015D00070483830006800F0805090B900BF00209B
:1015E00000906C483830006840F0805069493831CC
:1015F00008600846006800F08050009000BF00BFFF
:1016000001276748006800F48070B0B9644800683A
:1016100040F4807062490860FFF742FC054606E02E
:10162000FFF73EFC401B022801D90320B8E65C48C6
:10163000006800F480700028F2D000BFA068012884
:1016400008D154486830006840F0010051496831C1
:1016500008601DE0A06805280DD14E48683000687C
:1016600040F004004B49683108600846006840F0CB
:10167000010008600CE047486830006820F0010075
:101680004449683108600846006820F0040008609A
:1016900000BFA068A8B1FFF703FC054609E0FFF70B
:1016A000FFFB401B41F28831884202D9032077E6D4
:1016B00026E0384868300068C0F340000028EED0CB
:1016C00013E0FFF7EDFB054608E0FFF7E9FB401BE1
:1016D00041F28831884201D9032061E62D48683003
:1016E0000068C0F340000028EFD1012F07D129483E
:1016F0003830006820F0805026493831086000BF3B
:10170000A069002845D02348006800F00C00082894
:101710005DD0A069022845D100201F490866FFF767
:10172000BFFB054606E0FFF7BBFB401B022801D9C3
:10173000032035E6174808380068C0F340600028E9
:10174000F1D1D4E907010843616A40EA811101221D
:10175000A06AC2EB500041EA00412C20005D41EA42
:1017600000600C49091F086001200B490866FFF75B
:1017700097FB054606E0FFF793FB401B022801D9C3
:1017800003200DE6034808380068C0F340600028D5
:10179000F1D049E00838024000004742800E47423D
:1017A00000700040002021490866FFF779FB0546DC
:1017B00006E0FFF775FB401B022801D90320EFE587
:1017C0001B480068C0F340600028F2D12CE0A069FB
:1017D000012800D1E4E51648001D0668A06901282B
:1017E00020D006F48001E06981421BD106F03F0160
:1017F000206A814216D147F6C0703040616AB0EB72
:10180000811F0FD106F440310122A06AC2EB5000C3
:10181000B1EB004F06D106F070612C20005DB1EBFA
:10182000006F01D00120BBE50020B9E50000474270
:101830000038024070470000F8B50446206846684A
:1018400020688568C5F3801048B905F0010030B103
:10185000C6F3801018B12046216C8847F8BDC5F347
:10186000400030B1C6F3C01018B12046616C884703
:10187000F4E7C5F3401030B9C5F3801018B9C5F3CB
:10188000002000287CD0C6F3401000287DD0C5F38E
:101890008010F0B194F8510003280ED0606D40F034
:1018A0000400606500BF002000902068C0680090C0
:1018B00020688068009000BF0BE000BF002000900F
:1018C0002068C068009020688068009000BF00BF5A
:1018D000C4E7C5F3401088B1606D40F00100606559
:1018E00000BF002000902068806800902068006899
:1018F00020F040002168086000BF00BFC5F3002051
:1019000058B1606D40F00800606500BF0020009095
:1019100020688068009000BF00BF606D78B32068C9
:10192000406820F0E00021684860012084F8510000
:1019300006F00200022802D006F0010008B3206879
:10194000406820F0030021684860E06C50B1104806
:10195000E16C0865E06CFFF78FF918B1606D40F03D
:1019600040006065A06C50B10948A16C0865A06C8E
:10197000FFF782F918B1606D40F04000606503E048
:1019800003E02046FFF756FF68E700BF66E7000068
:101990002531000810B504460CB9012010BD606A5D
:1019A00038B96068B0F5827F00D105E00021E161BF
:1019B00002E00021216161610021A16294F85100DF
:1019C00028B9002084F85000204600F047F8022093
:1019D00084F851002068006820F040002168086009
:1019E000A08800F48270218901F404410843A18990
:1019F00001F400610843217C01F002010843217DCC
:101A000001F001010843218B01F400710843217F9B
:101A100001F0380108432021095D01F080010843ED
:101A2000218D01F400510843216808600421A06958
:101A300001EA104094F8241001F0100108432168D5
:101A400048602068C06920F400602168C8610020F7
:101A50006065012084F8510000209FE710B586B032
:101A60000446142101A8FEF768FC1F49206888423B
:101A700037D100BF002000901C48006840F480501F
:101A80001A4908600846006800F48050009000BFC2
:101A900000BF00BF0020009014481438006840F0D8
:101AA00001001249143908600846006800F001007E
:101AB000009000BF00BFE0200190022002900020B3
:101AC0000390032004900520059001A90848FFF722
:101AD000E7F8002205212320FFF7AAFA2320FFF7C9
:101AE00093FA06B010BD00000030014044380240B7
:101AF000000002407047704730B502460B4600BFF9
:101B000092F83C00012801D1022030BD012082F86A
:101B10003C0000BF022082F83D0010684468106855
:101B2000816824F070041868044310684460184DFC
:101B30001068A8421BD01068B0F1804F17D0154D27
:101B40001068A84213D0144D1068A8420FD0134D4E
:101B50001068A8420BD0124D1068A84207D0114D52
:101B60001068A84203D0104D1068A84205D121F09A
:101B700080015868014310688160012082F83D00AF
:101B800000BF002082F83C0000BF00BFBDE700009E
:101B9000000001400004004000080040000C00402C
:101BA00000040140004001400018004010B5044608
:101BB0000CB9012010BD94F83D0028B9002084F82C
:101BC0003C00204600F026F8022084F83D00211D4C
:101BD000206801F043FB012084F8460000BF84F830
:101BE0003E0001213F200155402001554120015573
:101BF00000BF00BF012084F842004320015544206B
:101C000001554520015500BF012084F83D0000200A
:101C1000D0E7000008B50A4A016891420FD100BF21
:101C2000002100910749096841F00801054A116047
:101C30001146096801F00801009100BF00BF08BD0E
:101C4000000C004040380240014691F83D00012858
:101C500001D001207047022081F83D000868C0686B
:101C600040F001000B68D8601A4B086898421BD0FE
:101C70000868B0F1804F17D0174B0868984213D00E
:101C8000164B086898420FD0154B086898420BD045
:101C9000144B0868984207D0134B0868984203D049
:101CA000124B086898420CD10868806800F007025F
:101CB000062A0CD00868006840F001000B68186024
:101CC00005E00868006840F001000B68186000201B
:101CD000C0E7000000000140000400400008004090
:101CE000000C00400004014000400140001800408A
:101CF000704770B504462068C5682068066906F01C
:101D00000200022819D105F00200022815D1401F57
:101D100021680861012020772068806900F00300B5
:101D200018B12046FFF7E4FF05E0204600F097F8E1
:101D3000204600F095F80020207706F004000428E3
:101D400019D105F00400042815D1C04321680861A9
:101D5000022020772068806900F4407018B1204686
:101D6000FFF7C6FF05E0204600F079F8204600F0B6
:101D700077F80020207706F00800082819D105F030
:101D80000800082815D1C043216808610420207785
:101D90002068C06900F0030018B12046FFF7A8FFD3
:101DA00005E0204600F05BF8204600F059F80020DE
:101DB000207706F01000102819D105F01000102827
:101DC00015D1C04321680861082020772068C069C8
:101DD00000F4407018B12046FFF78AFF05E0204666
:101DE00000F03DF8204600F03BF80020207706F098
:101DF000010048B105F0010030B16FF00100216829
:101E00000861204600F02EF806F08000802809D1F5
:101E100005F08000802805D1C04321680861204674
:101E2000FFF768FE06F04000402809D105F04000A9
:101E3000402805D1C04321680861204600F054F8CD
:101E400006F02000202809D105F02000202805D127
:101E5000C043216808612046FFF74DFE70BD704702
:101E60007047000010B5044603492068884201D13C
:101E7000FFF71CF810BD00000008004070B50446D4
:101E80000D4600BF94F83C00012801D1022070BD2E
:101E9000012084F83C0000BF022084F83D00294660
:101EA000204601F05AFA48B1012084F83D0000BFF5
:101EB000002084F83C0000BF0120E8E72068C068EB
:101EC00020F040002168C8602068C06820F480408D
:101ED0002168C860012084F83D0000BF002084F81C
:101EE0003C0000BF00BFD2E770477047704700005A
:101EF0002DE9F84F0446206805682068C668206808
:101F000047694FF00009CA4605F00F09B9F1000F03
:101F10000AD105F0200038B106F0200020B120469B
:101F200001F0EBFABDE8F88FB9F1000F7CD007F0B3
:101F3000010018B906F49070002875D005F0010072
:101F400030B106F4807018B1606C40F0010060643C
:101F500005F0040030B107F0010018B1606C40F0EA
:101F60000200606405F0020030B107F0010018B112
:101F7000606C40F00400606405F0080048B106F0B1
:101F8000200010B907F0010018B1606C40F00800A3
:101F90006064606C002846D005F0200028B106F08F
:101FA000200010B1204601F0A8FA20684069C0F373
:101FB000801A606C00F0080010B9BAF1000F2DD043
:101FC000204601F054FA2068406900F040004028A3
:101FD00020D100BF00BF2168143151E8001F21F05B
:101FE00040002168143141E80002002AF3D100BF0B
:101FF000E06B50B17748E16B0865E06BFEF73CFEA3
:1020000088B1E06B016D88470DE02046FFF76EFF59
:1020100009E009E02046FFF769FF04E02046FFF7EA
:1020200065FF002060647DE7206B012878D105F012
:102030001000002874D006F010000028FAD000BF6D
:1020400000200090206800680090206840680090A0
:1020500000BF00BF2068406900F04000402860D108
:10206000E06B006840681FFA80F8B8F1000F56D0A6
:10207000A08D404553DDA4F82E80E06BC069B0F51B
:10208000807F43D000BF00BF21680C3151E8001FA2
:1020900021F4807021680C3141E80002002AF3D15C
:1020A00000BF00BF00BF2168143151E8001F21F0BC
:1020B00001002168143141E80002002AF3D100BF79
:1020C00000BF00BF2168143151E8001F21F040001B
:1020D0002168143141E80002002AF3D100BF20201A
:1020E00084F842000020206300BF00BF21680C314B
:1020F00051E8001F21F0100021680C3141E8000276
:10210000002AF3D100BFE06BFEF760FD02206063A0
:10211000A08DE28D801A81B22046FFF7E6FE01E72E
:1021200042E0A08DE18D401A1FFA80F8E08DD0B317
:10213000B8F1000F37D000BF00BF21680C3151E863
:10214000001F21F4907021680C3141E80002002A40
:10215000F3D100BF00BF00BF2168143151E8001F58
:1021600021F001002168143141E80002002AF3D176
:1021700000BF202084F842000020206300BF00BF81
:1021800021680C3151E8001F21F0100021680C314A
:1021900041E80002002AF3D100BF022060634146FB
:1021A0002046FFF7A2FEBDE605F0800030B106F044
:1021B000800018B1204601F035FBB3E605F0400081
:1021C00030B106F0400018B1204601F086F9A9E6CA
:1021D00000BFA7E65B34000810B504460CB9012027
:1021E00010BDA06900B100E000BF94F8410028B91B
:1021F000002084F84000204600F02AF8242084F8CB
:1022000041002068C06820F400502168C860204662
:1022100001F0F2F92068006920F49040216808611B
:102220002068406920F02A00216848612068C06861
:1022300040F400502168C86000206064202084F8C9
:10224000410084F842000020606300BFC8E700003E
:1022500010B586B00446142101A8FEF76EF83F4978
:102260002068884239D100BF002000903C480068B7
:1022700040F010003A4908600846006800F010007D
:10228000009000BF00BF00BF002000903448143809
:10229000006840F0010032491439086008460068BF
:1022A00000F00100009000BF00BF4FF4C06001903B
:1022B0000220029000200390032004900720059044
:1022C00001A92848FEF7ECFC002205212520FEF795
:1022D000AFFE2520FEF798FE3EE0234920688842A5
:1022E0003AD100BF002000901D48001F006840F454
:1022F00080201B49091F08600846006800F4802000
:10230000009000BF00BF00BF0020009014481438A8
:10231000006840F00200124914390860084600685D
:1023200000F00200009000BF00BF4FF44060019039
:1023300002200290002003900320049007200590C3
:1023400001A90A48FEF7ACFC002205212720FEF770
:102350006FFE2720FEF758FE06B010BD00100140AA
:10236000443802400000024000480040000402409F
:10237000034A0168914202D10121024A117070475B
:10238000001001409500002010B5034693F841006D
:10239000202813D101B10AB9012010BD19629A8415
:1023A000DA8400205864212083F841001868C0684E
:1023B00040F080001C68E0600020EEE70220ECE7BF
:1023C000034A0168914202D10121024A117070470B
:1023D000001001409400002070B504460D462946C7
:1023E000204601F09DFA70BD00BFFEE72DE9FE4FCB
:1023F00004460D4616461F46DDF830A00020029028
:1024000001978046814601A804F0B4FE8DF80800CB
:102410000298C0F3C00028700298C0F30310207027
:102420006946019800F034F9814601990844019009
:10243000DDE9001000EB01080198A8EB000002287C
:1024400000DA06E001A804F09CFE30804FF001099C
:1024500000BF4846BDE8FE8F2DE9FF4704460D4604
:102460001646994600200390029600278046009069
:1024700002A804F07FFE8DF80C000398C0F303104F
:10248000022800D01FE001A9029800F001F980465F
:10249000029908440290DDE9011047180298381AA1
:1024A000022800DA0FE002A804F064FE8DF80000B4
:1024B000009800F00100207002A804F05BFE287074
:1024C0004FF0010800BF404604B0BDE8F0872DE999
:1024D000FF5F06460C4617469846DDE90FABDDF870
:1024E0003890002003901198029000250020019060
:1024F000009002A804F03EFE8DF80C000398C0F393
:102500000310032800D032E00398C0F3C0003070FD
:102510000398C0F341002060039800F00100387078
:102520006946029800F0B4F80190029908440290BC
:102530000099029845182A4602A9484604F02EFE42
:1025400010B10298281A00D511E02068002804DD97
:1025500002A804F016FEA8F800000298281ACBF88A
:1025600000000298CAF800000120019000BF019805
:1025700004B0BDE8F09F2DE9FE4F05460E46144617
:102580001F46DDE90C9B00200290CDF804908046A8
:10259000824601A804F0EEFD8DF808000298C0F311
:1025A0000310092800D02CE06946019800F070F86B
:1025B0008246019908440190DDE9001000EB010812
:1025C0000198A8EB0000022800DA1AE001A804F044
:1025D000D8FD2880002020600DE02068B04202DD98
:1025E0004FF0FF3A0DE001A804F0C4FD2268511C31
:1025F000216047F8220001984045EED34FF0010AD0
:1026000000BF5046BDE8FE8FFEB504460D46164697
:1026100000200290019000272B46224601A902A823
:102620000096FFF7E3FE07469DF808000B2800D14F
:1026300001273846FEBD2DE9F84305460C46012624
:1026400000270020206000BF4FF0FF38781C0746AD
:10265000042801DD00BF17E001216846A847804635
:10266000B8F1010F00D00FE09DF8001001F07F01DC
:10267000206801FB06002060F6019DF8000000F0D4
:1026800080000028E0D100BF3846BDE8F883000094
:1026900070B504460D460348046029460248FFF71A
:1026A000CAFF70BD9C000020A13E000830B5024664
:1026B000002300BF0846CD1701EB5565ED11A1EBD6
:1026C000C515ECB2CD1701EB5565E911002901DD07
:1026D00044F0800418465B1C14540029EADC1846B8
:1026E00030BD2DE9F04104460E460027B84620686B
:1026F00028B125682068FDF73DFE074601E0A56882
:1027000067683046FDF736FE8046474508D13A46B1
:1027100031462846FDF735FE10B90120BDE8F081AD
:102720000020FBE7401C802801DA401C0AE0B0F5DD
:10273000804F01DA801C05E00349884201DAC01CA1
:1027400000E0001D70470000FFFF1F002DE9FC475F
:1027500004460E4615461F46DDF8288000200190ED
:1027600081460094042E02DA6FF0010924E00198FA
:1027700065F307100190019867F3C3000190062DDF
:1027800001D1012100E00021019861F34200019094
:102790009DF80410684605F0C3F902210098FFF780
:1027A00085FF0099084400904146684605F0BEF94F
:1027B0000098A0EB040900BF4846BDE8FC87000074
:1027C0002DE9FE4305460E46144602950020019071
:1027D000009000274FF0FF38204600F0A5F807468C
:1027E0008146FFF79FFFB04202DD6FF001088FE0E6
:1027F00000208DF80400019820F0F00010300190C6
:102800009DF8041002A805F08BF939460298FFF7ED
:102810004DFF029908440290207A042808D13EA175
:1028200002A805F069F9042102A805F079F907E08A
:102830003BA102A805F060F9032102A805F070F998
:1028400000208DF80000A17E009861F34100009007
:10285000E07E08B1012100E00021009861F38200D0
:1028600000900098C0F3800058B194F83D10009893
:1028700061F3C400009094F83C10009861F3451097
:102880000090206C08B9A06C20B1009820F0800066
:1028900080300090E06C08B9606D20B1009820F0A5
:1028A0004000403000909DF8001002A805F038F973
:1028B000218B02A805F03AF902A8D4E90423E168C3
:1028C00005F04CF9E07E58B102A8D4E90A23616A08
:1028D00005F044F902A8D4E90D23216B05F03EF977
:1028E0000098C0F3C01028B102A8D4E91123216CCC
:1028F00005F034F90098C0F3801028B102A8D4E99B
:102900001423E16C05F02AF90298A0EB050800BF3A
:102910004046BDE8FE8300004D51545400000000C5
:102920004D5149736470000070B504460025207A4B
:10293000032801D10C2503E0207A042800D10A25C0
:10294000D4E90412E06800F025FA801C0544E07E1A
:1029500068B1D4E90A12606A00F01CFA861CD4E956
:102960000D12206B00F016FA3044801C0544206CD8
:1029700008B9A06C30B1D4E91112206C00F00AFA49
:10298000801C0544E06C08B9606D30B1D4E91412C4
:10299000E06C00F0FFF9801C0544284670BD70B55E
:1029A00004460D460C222946204600F0D9F870BD99
:1029B0002DE9F04F87B005460F4690461C46DDE9ED
:1029C00015B6DDE9109A0695002005900490039055
:1029D0000096204612A90EC900F042F80490029019
:1029E000FFF7A0FEB84203DD6FF00100039033E073
:1029F000059820F0F00030300590059868F3C3008A
:102A00000590059864F342000590059869F300006D
:102A100005909DF8141006A805F082F80499069810
:102A2000FFF744FE06990844069006A812A90EC9AD
:102A300005F094F8002C03DD514606A805F076F861
:102A4000324659460698FDF75FFC069830440690DA
:102A50000698401B039000BF039807B0BDE8F08FB5
:102A60007FB50546089E002401A807C800F092F92A
:102A7000801C30440444002D00DDA41C204604B01A
:102A800070BD2DE9FF5F05460E4617469846DDE905
:102A90000E9A039500200290019000900024514668
:102AA000484600F046F883460190FFF73BFEB042EF
:102AB00002DDA01E009038E000208DF8080002988A
:102AC00020F0F00080300290029867F3C30002907B
:102AD000029820F00600801C02909DF8081003A8C0
:102AE00005F01EF801990398FFF7E0FD03990844EB
:102AF0000390414603A805F019F800240FE004EB09
:102B000044000AEB800C03A89CE80E0005F026F8B0
:102B1000109810F8241003A805F002F8641C4C4526
:102B2000EDDB0398401B009000BF009804B0BDE8A7
:102B3000F09F2DE9F04105460E46022700240AE0E9
:102B400004EB440006EB800393E8070000F022F951
:102B5000C01C0744641CAC42F2DB3846BDE8F0817F
:102B60002DE9FC4104460D46164600200190471E03
:102B70000094022D01DA871E15E000208DF8040074
:102B8000019866F3071001909DF80410684604F060
:102B9000C7FF00210098FFF789FD009908440090C5
:102BA0000098071B00BF3846BDE8FC8192B00025A5
:102BB00000260020019002900390049001F066FF2F
:102BC000064641A1304602F0C7FC41A1304602F062
:102BD00053FC0A2004F066FA07463946304602F0F4
:102BE00005FC0A2004F05EFA07463946304602F03A
:102BF00011FD0A2004F056FA07463946304602F025
:102C000073FC0121304602F0B3FB304601F0A5FB16
:102C100028B133A000F0ACFE002004F0FBFC354BE3
:102C2000002235A1304602F091FD044614B134A0D3
:102C300000F09EFE0023012238A1304602F086FDFE
:102C4000044614B137A000F093FE002302223CA1F9
:102C5000304602F07BFD044614B13BA000F088FE34
:102C600005A8049000208DF8040005A8FDF782FB5C
:102C7000039001AA3BA1304602F082F800231A46D5
:102C800038A1304602F062FD0446214638A000F02B
:102C90006FFE17E02A466D1C3BA105A800F078FEE8
:102CA00005A8049000208DF804000498FDF762FB4D
:102CB000039001AA2BA1304602F062F841F288305D
:102CC00004F07AFCE6E700003138383300000000F9
:102CD00034372E3131342E3138372E32343700002C
:102CE0006D7174745F636F6E6E656374206572726C
:102CF0000D0A000025720008746F706963310000CE
:102D00006D7174745F737562736372696265207448
:102D10006F70696331206572720D0A00746F70699B
:102D2000633200006D7174745F73756273637269EE
:102D3000626520746F70696332206572720D0A00DB
:102D4000746F7069633300006D7174745F737562C2
:102D500073637269626520746F7069633320657292
:102D6000720D0A006D63755F746573740000000076
:102D700073756273637269626520657272203D20AB
:102D800025640D0A0000000031303061736B2C2087
:102D90002564000037B50024009820B10098FDF7A5
:102DA000E9FA044600E0019C20463EBD1FB5002024
:102DB00000900190029003901548164908604FF466
:102DC000803048600021134881600161017680F8FD
:102DD0002010C162104981620021C1600121C161DE
:102DE000002180F8301001214161FDF769FE08B132
:102DF000FDF7D0FC01200090019000200290694670
:102E00000448FDF7E3FC08B1FDF7C4FC1FBD00005A
:102E100000200140C40400200100000F10B5094A41
:102E20000021094803F0BEF808490860054A00215E
:102E3000074803F0B7F8034A0021064803F0B2F848
:102E400010BD0000AC8C00084931000800000020D3
:102E500011060008AD2B000800B587B0142102A8A8
:102E6000FDF76BFA00BF002001904448006840F075
:102E70000400424908600846006800F00400019020
:102E800000BF00BF00BF002001900846006840F06E
:102E9000800008600846006800F08000019000BFD4
:102EA00000BF00BF002001900846006840F001000C
:102EB00008600846006800F00100019000BF00BFF4
:102EC00000BF002001900846006840F00200086042
:102ED0000846006800F00200019000BF00BF002219
:102EE00041F210012648FDF7D5FF00222021254898
:102EF000FDF7D0FF002201212348FDF7CBFF01227F
:102F000002212148FDF7C6FF41F210000290012086
:102F1000039000200490059002A91948FDF7C0FE17
:102F2000102002904FF4881003900020049002A912
:102F30001448FDF7B5FE20200290012003900020E8
:102F40000490059002A90F48FDF7AAFE0120029007
:102F5000039000200490059002A90B48FDF7A0FE05
:102F6000022002900120039000200490022005908E
:102F700002A90548FDF794FE07B000BD30380240B5
:102F800000000240000802400004024010B50E4854
:102F90000E4908604FF48270486000210B48816040
:102FA000C160016141614FF4007181610021C16123
:102FB0000162416281620A21C162FEF7EBFC08B145
:102FC000FDF7E8FB10BD0000003001400C050020BB
:102FD00000B587B0142102A8FDF7AFF900200090DA
:102FE00001901448144908600020486000211248EC
:102FF0008160491EC160002101618161FEF7D6FD3B
:1030000008B1FDF7C7FB072002900020039002A93A
:103010000948FEF733FF08B1FDF7BCFB0020009024
:10302000019069460448FEF767FD08B1FDF7B2FB61
:1030300007B000BD000C00406405002010B50B482F
:103040000B4908604FF4E130486000210848816076
:10305000C16001610C21416100218161C161FFF703
:10306000BBF808B1FDF796FB10BD00000010014051
:10307000AC05002010B50B480B4908604FF4E13057
:103080004860002108488160C16001610C214161F4
:1030900000218161C161FFF79FF808B1FDF77AFB5C
:1030A00010BD000000480040F405002000BFFEE70E
:1030B00000BFFEE770B50546002400260FE0281982
:1030C0004FF0FF31FDF77AFD285D3A2800D107E087
:1030D000285D303806EB860100EB4106641CEEE704
:1030E00000BF00240EE028194FF0FF31FDF766FD08
:1030F000642C06DA285D054904F085F8044802F0DE
:10310000E1FF641CB442EEDB70BD0000605900209A
:10311000B000002010B50248FEF78EFB10BD000085
:103120000C05002070B50546AC6B0020E087E086FA
:103130002046FEF77FFB70BD01460248016000207B
:1031400070470000A800002003A000F011FC00BFA1
:10315000012002F0D2FEFBE753746172744465668D
:1031600061756C745461736B0D0A000010B54FF0FB
:10317000E020006905F0F2FA012801D004F0C2FD58
:1031800010BD000000B593B0302107A8FDF7D5F8B9
:10319000142102A8FDF7D1F800BF002001902448B7
:1031A000006840F08050224908600846006800F03E
:1031B0008050019000BF00BF00BF002001901D485B
:1031C000006840F480401B4908600846006800F42D
:1031D0008040019000BF00BF0120079000040890CC
:1031E00002200D9041050E9104210F91A82110910C
:1031F000022111910421129107A8FEF7CDF808B120
:10320000FDF7C8FA0F2002900220039000200490DE
:103210004FF4A05005904FF480500690052102A86D
:10322000FDF758FF08B1FDF7B5FA13B000BD000077
:1032300040380240007000400348006840F47000CD
:10324000014908607047000088ED00E010B50248B1
:10325000FEF74FFD10BD00003C06002010B50268CF
:103260002D4B98420ED0B0F1804F0BD02B4B984293
:1032700008D02B4B984205D02A4B984202D02A4BBB
:10328000984203D122F070024B681A43224B9842B5
:1032900020D0B0F1804F1DD0204B98421AD0204B47
:1032A000984217D01F4B984214D01F4B984211D010
:1032B0001E4B98420ED01E4B98420BD01D4B98428D
:1032C00008D01D4B984205D01C4B984202D01C4B95
:1032D000984203D122F44072CB681A4322F0800353
:1032E0004C6943EA040202608B68C3620B68836224
:1032F000094B984202D00C4B984201D10B690363F1
:1033000001234361036903F001031BB1036923F047
:103310000103036110BD00000000014000040040F3
:1033200000080040000C0040000401400040014043
:10333000004401400048014000180040001C0040CB
:103340000020004030B50C46816821F47F4142EAFC
:10335000032525432943816030BD2DE9F04705460B
:103360000C464FF000092868866826F070066068F1
:10337000064326F0070620680643286886606068D2
:1033800000F00F0100293BD10011082838D2DFE8F6
:1033900000F0333435360B272D04D4E90313A2682B
:1033A0002868FFF7CFFF2EE02068052802D1012012
:1033B000BDE8F0872868D0F820802868006A20F0EF
:1033C0000100296808622868876927F0F0072069EA
:1033D00047EA0017286887612868C0F8208012E053
:1033E0002269A168286800F011F80CE02269A16840
:1033F000286800F01EF806E000BF00BF00BF02E032
:103400004FF0010900BF00BF4846D1E730B50B4679
:103410001446026A056A25F001050562816921F0FA
:10342000F00141EA041122F00A021A4381610262AA
:1034300030BD30B50B461446026A056A25F010050A
:103440000562816921F4704141EA043122F0A00251
:1034500042EA03128161026230BD70B50546AC6B71
:103460000020E085E0842046FEF740FD70BD00BFEF
:1034700000BF02680C3252E8002F22F490710268FB
:103480000C3242E80013002BF3D100BF00BF00BF95
:103490000268143252E8002F22F00101026814324F
:1034A00042E80013002BF3D100BF016B01290ED1BC
:1034B00000BF00BF02680C3252E8002F22F010015A
:1034C00002680C3242E80013002BF3D100BF202128
:1034D00080F8421000210163704710B5044620684F
:1034E000C06820F040002168C860202084F84100B6
:1034F0002046FEF765FF002010BDF8B5044694F89D
:103500004200222875D1A068B0F5805F0CD12069F7
:1035100050B90025A66A20684068C0F308003080D2
:10352000A06A801CA06215E0A56A0026A068B0F51C
:10353000805F03D0A06828B9206918B92068406866
:10354000287004E02068406800F07F002870A06ABE
:10355000401CA062E08D401E80B2E085002846D16C
:103560002068C06820F020002168C8602068C0681A
:1035700020F480702168C8602068406920F0010054
:1035800021684861202084F8420000206063206B9D
:10359000012826D10020206300BF00BF21680C3124
:1035A00051E8001F21F0100021680C3141E80002B1
:1035B000002AF3D100BF2068006800F01000102836
:1035C0000AD100BF002000902068006800902068A9
:1035D0004068009000BF00BFA18D2046FEF785FC2B
:1035E00002E02046FEF7C4FE0020F8BD01E0002006
:1035F000FBE70220F9E700002DE9F84F04462068B8
:10360000006920F44050E16808432168086121699D
:10361000A068084361690843E16908430090206895
:10362000C06849F20C618843009908432168C8606A
:103630002068406920F44070A1690843216848610E
:1036400076492068884203D075492068884203D1B2
:10365000FDF73AFE814602E0FDF726FE8146E0696D
:10366000B0F5004F6CD102206168A0FB0150034609
:103670001920A9FB007001462A463846FCF700FED7
:103680006421B0FBF1F04FEA001A02206168A0FB50
:1036900001510B461920A9FB00712A463846FCF758
:1036A000EFFD834602206168A0FB0150034619200C
:1036B000A9FB00712A463846FCF7E2FD6421B0FB05
:1036C000F1F000EBC00101EB0010ABEB8000322108
:1036D00001EBC0006421B0FBF1F000F0F8000AEB50
:1036E000400A02206168A0FB015003461920A9FB93
:1036F000007001462A463846FCF7C2FD8346022088
:103700006168A0FB015003461920A9FB00712A46FD
:103710003846FCF7B5FD6421B0FBF1F000EBC001C9
:1037200001EB0010ABEB8000322101EBC000642103
:10373000B0FBF1F000F007005044216888606AE0B7
:1037400004206168A0FB015003461920A9FB00700A
:1037500001462A463846FCF793FD824604206168FC
:10376000A0FB015003461920A9FB007001462A4620
:103770003846FCF785FD6421B0FBF1F000EBC00199
:1037800001EB0010AAEB8000322101EB0010642154
:10379000B0FBF1F000F0F00A04206168A0FB0170BA
:1037A00003461920A9FB00513A462846FCF768FD5C
:1037B0006421B0FBF1F00AEB001A04206168A0FB61
:1037C00001510B461920A9FB00712A463846FCF727
:1037D00057FD834604206168A0FB01500346192071
:1037E000A9FB007001462A463846FCF749FD6421D2
:1037F000B0FBF1F000EBC00101EB0010ABEB80007F
:10380000322101EB00106421B0FBF1F000F00F0059
:10381000504421688860BDE8F88F00000010014026
:1038200000140140014691F84100212828D1886800
:10383000B0F5805F0BD1086948B90A6A1088C0F3F7
:1038400008000B685860086A801C086205E00B6A73
:10385000581C086218780B685860C88C401E80B2EB
:10386000C88458B90868C06820F080000B68D86028
:103870000868C06840F040000B68D86000207047BE
:103880000220FCE710B500240748006800F0200083
:1038900030B105484068C4B20449204603F0B3FC87
:1038A0000348FEF725FB10BD00100140BC000020BE
:1038B000AC05002070B50D48006806680B4800682C
:1038C000C56806F0200070B105F0200058B1074827
:1038D00000684068C4B20649204603F094FC0548DD
:1038E00002F0FAFB70BD00BFFCE70000F405002009
:1038F00058550020A400002070B504460D4609E08C
:103900000549204603F06BFC00B970BD2946034809
:1039100002F0D0FBF4E7000058550020A40000207E
:1039200010B5024600200CE000BF074B1B681B6867
:1039300003F08003002BF8D0135C034C2468636011
:10394000401C8842F0DB10BDF405002010B505488E
:1039500002F098FB034802F0A5FB034803F03BFC90
:1039600010BD0000A40000205855002000BFFEE755
:103970000FB4054B10B503A9044A029800F05AF899
:1039800010BC5DF814FB0000593F0008B80000208F
:103990000FB4084B10B504A902AA039800F04AF826
:1039A000044602A9002000F076FA204610BC5DF81B
:1039B00014FB0000973E000802480068C0F3022094
:1039C000704700000CED00E010B5002804DB0A078A
:1039D000130E054A135406E00A07140E034A00F0BA
:1039E0000F031B1FD45410BD00E400E018ED00E0ED
:1039F000EFF30580704702E008C8121F08C1002AD3
:103A0000FAD170477047002001E001C1121F002A5F
:103A1000FBD17047506002604160086070474860A9
:103A20000160704710B50446D4E90010FFF7F7FFB6
:103A300010BD00002DE9FF4F8DB00F460546002652
:103A400006E025280BD0DDE90F1290476D1C761C8F
:103A500028780028F5D111B03046BDE8F08F002459
:103A6000A246A1460122EC4900E0044315F8013FBB
:103A7000203B02FA03F00842F7D128782A2810D018
:103A80006FF02F022878A0F13001092914D80AEB31
:103A90008A0102EB410144F0020400EB010A6D1CB3
:103AA000F0E701CF5FEA000A03D544F40054CAF1FD
:103AB000000A44F002046D1C28782E2817D115F84E
:103AC000010F44F004042A280ED06FF02F0228784A
:103AD000A0F1300109290AD809EB890102EB410163
:103AE00000EB01096D1CF2E757F8049B6D1C287868
:103AF0006C280FD006DC4C2817D068280DD06A2817
:103B000014D104E0742810D07A280FD10DE044F4C9
:103B100000140AE044F4801401E044F4401469788D
:103B2000814202D104F580146D1C6D1C2A786E2A26
:103B30001FD00CDC632A31D004DC002A8BD0582A39
:103B400011D1A3E0642A68D0692A0CD165E0732AF8
:103B50002ED004DC6F2A73D0702A04D19BE0752A22
:103B60006FD0782A6ED01046DDE90F129047761C90
:103B700050E1C4F30250022806D0032809D00428DB
:103B800001CF09D0066045E101CFF117C0E900611E
:103B900040E101CF06803DE106703BE117F8040BE0
:103BA0008DF8000000208DF80100EB46012003E0B5
:103BB00057F804BB4FF0FF3061074FF0000102D40B
:103BC0000DE008F10101884649450FDA8045F8DB30
:103BD0001BF808100029F4D108E008F1010188461B
:103BE0008142FADB1BF808100029F6D1DDE90F232A
:103BF000AAEB08008146214600F036F9304400EB7C
:103C0000080604E0DDE90F121BF8010B9047B8F13C
:103C10000108F7D221464846F7E00A21C4F30253CF
:103C20004FF0000B0891022B04D001CFC117032BDA
:103C300009D00AE0FF1D27F00707F7E8020108E0B6
:103C400032E01FE020E000B2C117042B01D140B2E6
:103C5000C117031E71F1000307DA4FF0000CD0EB1F
:103C60000C006CEB01012D2302E0230504D52B236E
:103C70008DF82430012303E0E30701D02023F7E788
:103C8000984658E00A2110E010210EE010204FF075
:103C9000000B08900CE010214FF0000B44F00404DE
:103CA0004FF00809089103E008214FF0000B08913C
:103CB000C4F30253022B04D001CF0021032B06D002
:103CC00006E0FF1D27F00707F7E8020103E080B2D6
:103CD000042B00D1C0B24FF0000823072BD5702A67
:103CE00007D0DDF820C08CF0100C5CEA0B0C05D07E
:103CF0000EE040238DF82430012308E050EA010350
:103D000006D030238DF824308DF8252002239846E4
:103D1000DDF820C08CF0080C5CEA0B0C0BD150EAEB
:103D2000010301D1630706D530238DF824304FF00D
:103D30000108A9F10109582A04D038A20B9208AA57
:103D40000A920BE03AA2F9E75B46089AFCF798FA68
:103D50000B9B9B5C0A9A521E0A92137050EA010256
:103D6000F2D10A98ADEB000000F1200B600702D5FC
:103D700024F4803401E04FF00109D94502DDA9EBBC
:103D80000B0000E0002000EB0B0141440890AAEB7F
:103D9000010AE00306D4DDE90F232146504600F076
:103DA00063F806444FF0000908E009A911F809007A
:103DB000DDE90F12904709F10109761CC145F4DBDA
:103DC000E0030CD5DDE90F232146504600F04CF806
:103DD000064404E0DDE90F1230209047761C089974
:103DE000481E08900029F5DC08E00A980A99007836
:103DF000491C0A91DDE90F129047761CBBF10001C6
:103E0000ABF1010BF1DC21465046DDE90F2300F058
:103E100019F806446D1C1BE60928010030313233C5
:103E200034353637383961626364656600000000F6
:103E300030313233343536373839414243444546E0
:103E4000000000002DE9F041044600251E461746FB
:103E5000880404D405E039462020B0476D1C641E58
:103E6000F9D52846BDE8F0812DE9F041044600254A
:103E70001E469046C80301D5302700E0202788045D
:103E800004D505E041463846B0476D1C641EF9D59F
:103E90002846BDE8F0810A68531C0B60107070471B
:103EA00010B50246002309E006480068007810704B
:103EB00004480068401C034C20605B1C8B42F3DB11
:103EC000084610BD9C0000203EB505460C46206CFF
:103ED000C068216C0978064B0F22CDE900410290A1
:103EE00004A10CA0FFF744FD16A0FFF741FD3EBD65
:103EF000E88C00082E2E5C4D5154545C4D515454A6
:103F0000436C69656E745C6D717474636C69656E25
:103F1000742E630025733A256420257328292E2EDC
:103F20002E0A746F7069633A2025732C20716F73A9
:103F30003A2025642C200A6D6573736167653A2504
:103F4000730000000A00000010B504462046FCF78C
:103F5000D3F9FCF7C7F910BD13B50C46002007498B
:103F60000870012269460648FEF70EFA00BF0348B2
:103F700000780028FBD000981CBD000094000020B1
:103F8000AC050020FCF79EFFFFF7FCF8FEF764FF8E
:103F9000FFF71EF8FFF752F8FFF76CF8FEF706FF81
:103FA000FEF7F4FFFCF7C6FBFCF7D8FBFFF7CEFCEF
:103FB000074803F010F9FCF7DDFA06A0FFF7D8FC7C
:103FC00001F0AAFFFEF72AFF01F0BCFF00BFFEE7E9
:103FD000BC00002048656C6C6F20576F726C6421C8
:103FE0000D0A00002DE9F04706460F4690461D4693
:103FF000DDF82090002405F1200002F030F804469E
:1040000014B90020BDE8F087204600F06DFD04F1F2
:10401000080002F0EAF904F10800F16A02F0DBF9A5
:10402000E760A4F81080258304F12000E061C4F863
:104030001490316A2A46E069FCF766F92046E1E708
:1040400010B504462CB1204600F03EFD204602F09B
:1040500013F810BD01464022886AB2EB102F01DC34
:10406000012070470020FCE73EB505460C4602A83B
:1040700002F0BBF902A8E96A02F0ADF904F1080008
:10408000E96A02F0A8F905F1500002F00BF8228B62
:10409000E169286AFCF738F9218B02AA284601F069
:1040A0002DF9208AE168084B40F26312CDE9001037
:1040B00006A10EA0FFF75CFC19A0FFF759FC05F163
:1040C000500001F0FFFF3EBDFC8C00082E2E5C4D21
:1040D0005154545C4D515454436C69656E745C6D1D
:1040E000717474636C69656E742E630025733A2570
:1040F0006420257328292E2E2E20726573656E6428
:10410000202564207061636B6167652C207061639A
:104110006B65745F6964206973202564200000006A
:104120000A0000002DE9F04705468846914605F152
:10413000600000F0DCFC10B10020BDE8F0872C6EC0
:1041400026680AE02746388A484504D1F868404581
:1041500001D10120F1E73446266805F16000844270
:10416000F0D10020E9E72DE9F84F04460E46174646
:104170009846DDF828904FF0000A00253A4631466F
:104180002046FFF7CFFF18B16FF01600BDE8F88F9B
:1041900043463A4631462046CDF80090FFF722FFCD
:1041A000054615B96FF00200F0E7204600F07EF8F2
:1041B00004F16001284600F07EFC5046E6E72DE958
:1041C000F0410646884606F1600000F090FC20B9F8
:1041D000304600F0F9FA012801D0BDE8F081356ED3
:1041E0002F6830E02C4604F1080002F001F918B9FC
:1041F000B8F1010F00D124E0E068042808D0E0689D
:10420000052805D0E068062802D0E068072804D118
:1042100021463046FFF728FF13E0E068092802D066
:10422000E0680B2806D1606920B1606900F07DFC70
:10423000002060612046FFF703FF304601F0EAFAF4
:1042400000BF3D462F6806F160008542CAD100BF1D
:10425000C3E72DE9F0470646894692461F4606F118
:10426000600000F044FC10B10020BDE8F087346E1F
:10427000D4F8008014E02546288A504502D1E86829
:10428000484500D009E00FB1686938602846FFF75B
:10429000D7FE304601F0BEFA00BF4446D4F8008095
:1042A00006F160008442E6D10020DEE710B5044646
:1042B00004F1540001F0F6FE0121A06A01EB102187
:1042C00061F31F20A06204F1540001F0FBFE10BD59
:1042D0002DE9F041044604F1600000F008FCC0B98B
:1042E000256E2E680FE02F46384600F0EDFB78690A
:1042F00020B1786900F019FC00207861384601F09F
:10430000BBFE35462E6804F160008542EBD100F01B
:10431000E2FB94F82800A06204F1580000F0E7FBEB
:10432000A0B9A56D2E680BE0A846404600F0CCFB76
:104330000020C8F80C00404601F09EFE35462E686D
:1043400004F158008542EFD100F0C5FB4FF0FF317A
:10435000204601F083F8BDE8F08110B50446204600
:1043600000F002F810BD000070B59AB004460026B7
:10437000351F002018905822984902A8FBF7C4FF67
:1043800014B968101AB070BD204600F01DFA01285B
:1043900001D10020F6E7206B022804D96FF07041AC
:1043A000206B884202D34FF400702063606B0228B8
:1043B00004D96FF07041606B884202D34FF40070F3
:1043C0006063E06918B9606B01F049FEE061206A42
:1043D00018B9606B01F043FE2062E06908B1206A01
:1043E00060B97F4B40F2E2327EA186A0FFF7C0FAAF
:1043F0008DA0FFF7BDFA6FF00200C3E70023D4E9F8
:104400000312A06E01F043FD0546A06E01F033FDDE
:1044100005460DB12846B5E7714B40F2FA3271A15D
:1044200082A0FFF7A5FA80A0FFF7A2FAA08CADF852
:10443000200094F82800C0F340008DF8220094F882
:104440002800C0F303108DF8100020680590606804
:104450001290A068159094F8280000F0010098B11F
:1044600094F8280000F001008DF82300A06C81680A
:104470000E91A06C01788DF84510A06C41788DF8F4
:104480004410A06C41680B91A08C4FF47A7200FB31
:1044900002F104F1740001F09EFF04F1500001F0FC
:1044A00001FE02AA616B206AFEF78AF9061E00DC93
:1044B00050E019A801F099FF19A8E16A01F08BFFFB
:1044C00019AA3146204600F019FF051E00D041E030
:1044D00019AA0221204601F0FBFA02282DD1404BF7
:1044E00040F21B423FA15BA0FFF742FA4EA0FFF74C
:1044F0003FFA18A9481C236BE269FDF7ADFF0128BC
:104500000DD19DF86050364B40F21E4235A157A0A8
:104510000095FFF72DFA44A0FFF72AFA19E06FF093
:1045200003052F4B40F222422EA150A00095FFF729
:104530001FFA3DA0FFF71CFA0BE0294B40F2254281
:1045400028A151A0FFF714FA37A0FFF711FA6FF076
:10455000030500BF002D34D1E06E002828D13220A1
:1045600005214FF480632246CDE900104E494FA04B
:1045700001F004FFE066E06E50B10121204600F03A
:104580006DFFE06E01F020FFE06E01F017FF13E019
:10459000A06E01F097FC6FF00305114B4FF487629A
:1045A00010A147A0FFF7E4F91FA0FFF7E1F903E02E
:1045B0000121204600F052FFA06A20F00C00A0620A
:1045C00006E0A06E01F07EFC0021204600F046FFD0
:1045D00004F1500001F076FD2846D3E6908D0008E6
:1045E000768D00082E2E5C4D5154545C4D51545420
:1045F000436C69656E745C6D717474636C69656E2F
:10460000742E630025733A256420257328292E2EE5
:104610002E206D616C6C6F63206275662066616927
:104620006C65642E2E2E00000A00000025733A25CA
:104630006420257328292E2E2E206D71747420631A
:104640006F6E6E65637420737563636573732E2E6E
:104650002E00000025733A25642025732829206741
:10466000657420434F4E4E41434B000025733A255D
:1046700064202573282920434F4E4E41434B20721E
:1046800063203D202564000025733A2564202573AE
:1046900028292063616E6E6F742067657420434F14
:1046A0004E4E41434B000000C15C00086D717474B4
:1046B0005F7969656C645F746872656164000000AD
:1046C00025733A256420257328292E2E2E206D71FE
:1046D0007474207969656C64207468726561642003
:1046E0006372656174206661696C65642E2E2E00AC
:1046F0002DE9F84F05460C46164601274FF00008F5
:104700004FF0040A0020206000BF4FF0FF3908F18D
:1047100001008046042801DD00BF1AE03346012273
:104720006946A86E01F0C0FB8146B9F1010F00D0C7
:104730000FE09DF8001001F07F01206801FB0700E9
:104740002060FF019DF8000000F080000028DCD10F
:1047500000BF4046BDE8F88F2DE9F04391B0044614
:104760000D4616464FF0FF382946204600F030F837
:1047700007465FB132462946684600F042FA69466C
:1047800020463A6990474FF000080DE0E06F58B1BD
:1047900032462946684600F034FA69462046E26F00
:1047A00090474FF0000800BFF068FBF7E3FD81463B
:1047B0004946F068FBF7C1FDD5E90110FBF7BDFDE7
:1047C000404611B0BDE8F083014691F94C007047B6
:1047D0002DE9F04106460F46B56DD5F8008012E090
:1047E0002C46E06860B13846E168FDF77AFF20B9F1
:1047F0003946E06801F028F810B12046BDE8F081A4
:104800004546D5F8008006F158008542E8D10020E1
:10481000F4E710B5044604F1540001F043FCE08CC9
:104820004FF6FE71884201D1012001E0E08C401C6E
:10483000E08404F1540001F045FCE08C10BD000060
:1048400010B504460C2001F00AFCA066A06E60B909
:104850002F4B40F27C422FA136A0FFF789F83FA0F2
:10486000FFF786F86FF0020010BD0021A06E016016
:10487000416081600120E084A06A20F00200A06213
:10488000A06A20F00100A0624FF47A60E06200208C
:1048900084F84C00A06A20F00C00A06294F8280074
:1048A000A0620020E063206460641420A084A06AF9
:1048B00020F0F0004030A0624FF47A70A063002036
:1048C000A064A061A067E0674FF40071204600F08B
:1048D0003FFC4FF40071204601F014F904F1580038
:1048E00000F002F904F1600000F0FEF804F150005D
:1048F00001F0C8FB04F1540001F0C4FB04F17000A6
:1049000001F073FD04F1740001F06FFD0020ABE7CE
:10491000138E00082E2E5C4D5154545C4D5154544E
:10492000436C69656E745C6D717474636C69656EFB
:10493000742E630025733A256420257328292E2EB2
:104940002E206D616C6C6F63206D656D6F727920C8
:104950006661696C65642E2E2E0000000A0000005E
:1049600070B505462846FFF72FFF0446032C02D1F9
:104970006FF0170070BD012C02D06FF00D00F9E749
:104980000020F7E770B506460C4600252046FBF7E9
:10499000F1FC05463046FBF7EDFCA84201D00020B3
:1049A00070BD2A4621463046FBF7EBFC08B90120D2
:1049B000F6E70020F4E70000F8B50446002520469D
:1049C000FFF7CEFF05460DB12846F8BD04F1700093
:1049D00001F00EFD28B904F1740001F009FD002872
:1049E0002ED094F82800C0F3810098B1154B4FF4F5
:1049F0009A6215A11CA0FEF7BBFF23A0FEF7B8FF2B
:104A0000A06E01F05FFA0221204600F027FD6FF052
:104A10000D0515E0616B206AFDF7C1FF0646002E0B
:104A200005DD6A463146204600F068FC054694F8EC
:104A300028008008401CA16A60F38301A16200BFC6
:104A40002846C2E75A8F00082E2E5C4D5154545C04
:104A50004D515454436C69656E745C6D717474632C
:104A60006C69656E742E630025733A256420257386
:104A700028292E2E2E2070696E67206F757473742E
:104A8000616E64696E6700000A00000070B58020E6
:104A900001F0E5FA05460DB9002070BD80212846D9
:104AA000FBF74BFC2846FFF7CBFE04460CB1002079
:104AB000F3E72846F1E770B505460C46224628463E
:104AC0006168FEF7A7FF70BD10B50446D4E9001079
:104AD000FEF7A5FF10BD10B504462046FEF7A2FF65
:104AE000204600F001F810BD0060406070470146AC
:104AF0000868884201D1012070470020FCE72DE9B9
:104B0000F04105460E4617460024142001F0A7FA8E
:104B1000044614B90020BDE8F0812046FFF7E4FF09
:104B200026722761E5602046F5E710B504462CB1F2
:104B30002046FFF7C9FF204601F09EFA10BD000095
:104B40002DE9FC4105460F4605F15800FFF7CFFF60
:104B500010B10020BDE8FC81AC6DD4F800801AE0F3
:104B60002646F068A0B1F968F068FFF70BFF78B14E
:104B7000F868F1680B4B40F2CF12CDE900100AA1A2
:104B80001148FEF7F5FE11A0FEF7F2FE0120E1E765
:104B90004446D4F8008005F158008442E0D100205A
:104BA000D8E70000148D00082E2E5C4D5154545C43
:104BB0004D515454436C69656E745C6D71747463CB
:104BC0006C69656E742E6300349000080A00000062
:104BD00070B505460C4605B114B96FF0010070BD03
:104BE00021462846FFF7ACFF20B12046FFF79DFF86
:104BF0000020F4E705F158012046FFF75CFF002094
:104C0000EDE72DE9F04105460C46164660683F2861
:104C100001DA606800E03F2007463A462846A1686E
:104C2000FBF772FB0020E8552E64BDE8F0812DE90A
:104C3000F04704468846154600260027B146206BFB
:104C4000A84201D9A94601E0D4F8309000BF4046FF
:104C500001F0DDFB824653464A46E169A06E01F051
:104C600023F907464FB13E44A81B216B884202D36B
:104C7000D4F8309001E0A5EB0609AE4201DA002F2E
:104C8000E5D1BDE8F0870000F8B504460E460025E2
:104C90000020009032466946204600F0C7FA0546DB
:104CA00000980E2838D2DFE800F007371125122BC4
:104CB0002C133719371F373215F1080F05D11C484F
:104CC000FEF756FE1BA0FEF753FE26E02BE000BFCA
:104CD0003146204600F030F805461EE031462046B9
:104CE00000F0DAFC054618E03146204600F0C6FE2A
:104CF000054612E03146204600F07FF905460CE0FB
:104D000000BF3146204600F0F5F9054605E0A06AEF
:104D100020F00C00A06200E005E000BF2046FFF795
:104D20004BFE054600BF05B9009D2846F8BD0000B2
:104D3000D08F00080A0000007FB504460E464FF0F1
:104D4000FF352046FFF70CFE054615B1284604B096
:104D500070BD206B009003AA02A901A8E369FDF7CA
:104D600045FB012801D06FF008050023BDF80C2099
:104D70009DF804102046FFF76CFA05462846E6E742
:104D80002DE9F0418CB00546884614460026771E72
:104D90000020089009900A90CDF820802846FFF75F
:104DA00013FD012807D00020A0606FF00D073846E2
:104DB0000CB0BDE8F081E06828B1A06818B9E068DF
:104DC000FBF7D8FAA060A068696B884208D93BA0BD
:104DD000FEF7CEFD49A0FEF7CBFD6FF00700E7E739
:104DE00005F1500001F05EF9207850B12846FFF738
:104DF00031F910B16FF0150741E02846FFF709FDC2
:104E0000A080D4E90210CDE9050108A807C802ABCB
:104E100007C3A0886178CDE9001023780022696B70
:104E2000286AFDF7C5FD0646002E00DC27E00BAA28
:104E30003146284600F062FA071E00D01FE02078B5
:104E4000E0B10121284600F0BFFB2078012809D1FC
:104E50000020B3B20090A28804212846FFF783F90E
:104E600007460BE02078022808D10020B3B200905A
:104E7000A28805212846FFF776F9074600BF0020E3
:104E8000A06005F1500001F01DF917F1160F02D0D6
:104E900017F1030F10D11A4B40F2CD5219A121A0E6
:104EA000FEF766FD15A0FEF763FDA86E01F00AF897
:104EB0000221284600F0D2FA384679E77075626C14
:104EC000697368207061796C6F6164206C656E2015
:104ED00069732069732067726561746572207468F4
:104EE000616E20636C69656E7420777269746520E9
:104EF0006275666665722E2E2E0000000A000000A4
:104F0000778F00082E2E5C4D5154545C4D515454F3
:104F1000436C69656E745C6D717474636C69656E05
:104F2000742E630025733A256420257328292E2EBC
:104F30002E207468657265206973206E6F74206519
:104F40006E6F756768206D656D6F72792073706123
:104F5000636520746F207265636F72642E2E2E005D
:104F60002DE9FC4104460D4617460026B04601A82F
:104F700001F03BFA01A8E16A01F02DFA04F15000BA
:104F800001F090F8052F02D0062F1FD115E00095F3
:104F900000230622616B206AFDF7D8FB064600203D
:104FA000B3B22A46072100902046FFF7DCF880467E
:104FB000B8F1000F00D019E00BE0009500230722A4
:104FC000616B206AFDF7C2FB064602E06FF009083C
:104FD0000CE000BF002E02DC6FF00A0806E001AA18
:104FE0003146204600F08AF9804600BF04F15000A7
:104FF00001F068F84046BDE8FC81F0B58DB004468C
:105000000F4600250026002008902046FFF7A8FC48
:10501000064616B130460DB0F0BD08AA09ABE169ED
:10502000206BCDE90132CDE903100AA807ABD21FEE
:1050300005A900900E38FDF74AFA012802D06FF05A
:105040001000E8E70598C0B28DF818009DF8180028
:1050500078B304F1500001F025F89DF818000128FC
:105060000AD1BDF81C00009000230422616B206A65
:10507000FDF76CFB05460DE09DF81800022809D1EC
:10508000BDF81C00009000230522616B206AFDF72B
:105090005DFB0546002D02DC6FF0110605E03A4687
:1050A0002946204600F02AF9064604F1500001F096
:1050B00009F8002E01DA3046ADE79DF81800022805
:1050C00005D006AA0AA92046FFF746FB10E00020FB
:1050D000ABB20090BDF81C2006212046FFF743F834
:1050E0000646173020B106AA0AA92046FFF734FB6E
:1050F000304690E77FB504460E464FF0FF35204618
:10510000FFF72EFC054615B1284604B070BD206B94
:10511000009003AA02A901A8E369FDF767F9012835
:1051200002D06FF00800F0E79DF80420BDF80C10E5
:105130002046FFF715FF05460023BDF80C209DF81B
:1051400004102046FFF785F805462846DDE70000F5
:1051500070B504460D465CB9184B40F24C4218A19C
:105160001FA0FEF705FC26A0FEF702FC002070BD84
:10517000E06910B1E06900F07FFF2563206B022831
:1051800004D96FF07041206B884202D34FF4007055
:105190002063206B00F063FFE061E06960B9074BBA
:1051A00040F25A4206A117A0FEF7E2FB14A0FEF758
:1051B000DFFB6FF00200DAE7206BD8E7E88D00082C
:1051C0002E2E5C4D5154545C4D515454436C6965C2
:1051D0006E745C6D717474636C69656E742E6300BB
:1051E00025733A256420257328292E2E2E206368E6
:1051F00065636B20666F72206572726F722E00009D
:105200000A00000025733A256420257328292E2ED4
:105210002E206D616C6C6F63207265616420627515
:1052200066206661696C65642E2E2E002DE9FC47B0
:1052300004460E461746002001900125009016B93D
:10524000801EBDE8FC87384601F0CFF83846E16A99
:1052500001F0C1F8384601F0DAF881464B462A469B
:10526000E169A06E00F020FE8046A84502D06FF0F4
:105270000600E6E7384601F0CAF881464A46694624
:105280002046FFF735FAE16948190099FDF70EFA53
:10529000054400982844216B884207D939462046A6
:1052A000009AFFF7C4FC6FF00700CAE700980028D7
:1052B00011DD384601F0ABF88146E26951194B46E1
:1052C000A06E009A00F0F0FD80460099884202D05E
:1052D0006FF00600B5E7E06900788DF804000198EA
:1052E000C0F303103060A08C4FF47A7200FB02F11F
:1052F00004F1740001F06FF80020A2E72DE9F047F7
:1053000004460D4617464FF000080026384601F0C7
:105310006CF83846E16A01F05EF810E0384601F0BA
:1053200076F88146226A91194B462A46A06E00F013
:10533000D6FD8046B8F1000F00DC07E04644AE42DF
:1053400004DA384601F054F80028E7D000BFAE4236
:105350000BD1A08C4FF47A7200FB02F104F17000C3
:1053600001F039F80020BDE8F0876FF01200FAE78D
:1053700070B504460D465CB90A4B4FF496620AA11B
:1053800011A0FEF7F5FA18A0FEF7F2FA002070BDA2
:10539000A06A65F34100A06294F82800C0F34000C1
:1053A000F5E70000C58E00082E2E5C4D5154545C6C
:1053B0004D515454436C69656E745C6D71747463C3
:1053C0006C69656E742E630025733A25642025731D
:1053D00028292E2E2E20636865636B20666F72204D
:1053E0006572726F722E00000A00000070B50446EC
:1053F0000D465CB9074B40F2A74207A10EA0FEF78D
:10540000B7FA15A0FEF7B4FA002070BD2560206839
:10541000FBE700001D8E00082E2E5C4D5154545C9D
:105420004D515454436C69656E745C6D7174746352
:105430006C69656E742E630025733A2564202573AC
:1054400028292E2E2E20636865636B20666F7220DC
:105450006572726F722E00000A00000070B504467B
:105460000D4604F1540000F01DFE84F84C5004F188
:10547000540000F027FE70BD70B504460D465CB9BF
:10548000074B40F2AA4207A10EA0FEF771FA15A041
:10549000FEF76EFA002070BDE560E068FBE70000F3
:1054A000558E00082E2E5C4D5154545C4D51545471
:1054B000436C69656E745C6D717474636C69656E60
:1054C000742E630025733A256420257328292E2E17
:1054D0002E20636865636B20666F72206572726F41
:1054E000722E00000A00000070B504460D465CB93B
:1054F000074B40F2A94207A10EA0FEF739FA15A00A
:10550000FEF736FA002070BDA560A068FBE700003A
:10551000438E00082E2E5C4D5154545C4D51545412
:10552000436C69656E745C6D717474636C69656EEF
:10553000742E630025733A256420257328292E2EA6
:105540002E20636865636B20666F72206572726FD0
:10555000722E00000A00000070B504460D465CB9CA
:10556000074B40F2AB4207A10EA0FEF701FA15A0CF
:10557000FEF7FEF9002070BD25612069FBE7000001
:10558000638E00082E2E5C4D5154545C4D51545482
:10559000436C69656E745C6D717474636C69656E7F
:1055A000742E630025733A256420257328292E2E36
:1055B0002E20636865636B20666F72206572726F60
:1055C000722E00000A0000003EB504460D46206A17
:1055D0000290206A019000200090206A10B96FF0BC
:1055E00018003EBD02A801F0C5FD8DF8000000982E
:1055F000C0F30310032802D06FF01800F1E7009801
:1056000065F3C30000909DF8001001A802F088FA2D
:105610000020E6E770B504460D465CB9074B4FF431
:10562000956207A10EA0FEF7A3F915A0FEF7A0F959
:10563000002070BD65606068FBE70000308E0008E8
:105640002E2E5C4D5154545C4D515454436C69653D
:105650006E745C6D717474636C69656E742E630036
:1056600025733A256420257328292E2E2E20636861
:1056700065636B20666F72206572726F722E000018
:105680000A00000010B504464FF47A7104FB01F0E3
:1056900000F0CAFE10BD0000F0B587B004460F460A
:1056A0004FF0FF350020069005900026039020461D
:1056B000FFF756F9054615B1284607B0F0BD216B36
:1056C000E06905AB06AACDE90001012104A8FCF7B9
:1056D00052FF012802D06FF00C00EEE705988028F9
:1056E00001D1012000E00020064603ABBDF81020E8
:1056F00009212046FEF7ADFD0546039810B96FF06D
:105700000200DAE75EB10398FFF70FFA07A0FEF791
:105710002FF90DA0FEF72CF96FF00E00CDE7204613
:105720000399FFF755FA05462846C6E77375627375
:10573000637269626520746F706963206661696C69
:1057400065642E2E2E0000000A0000002DE9F04FA7
:1057500089B004460D4616461F466FF0130A4FF0F7
:105760000008089600200490059006900495814654
:105770002046FFF729F8012804D06FF00D0009B08A
:10578000BDE8F08F04F1500000F08CFC2046FFF7DC
:1057900040F8834608A804A90122CDE9002102901F
:1057A0005B460022616B206AFDF76BF98046B8F119
:1057B000000F00DC25E007AA41462046FFF79EFDCA
:1057C000B0F1000A00D01CE007B9114F3A4631464B
:1057D0002846FFF794F98146B9F1000F06D104F18C
:1057E000500000F06FFC6FF0020A0AE01FFA88F325
:1057F0005A4609212046CDF80090FEF7B4FC8246B7
:1058000000BF04F1500000F05DFC5046B7E7000017
:10581000C93E000870B50446002504F1540000F0AC
:1058200041FCA06A000A002800DC07E00121A06A10
:10583000C1EB102161F31F20A06200BF04F15400EE
:1058400000F040FC284670BD70B505460C46294660
:10585000A2686068831825E010782F2803D10878A3
:105860002F2800D022E008782B2807D0087823289A
:1058700004D008781678B04200D017E008782B28BA
:105880000AD1501C02E0561C3246701C984202D2CB
:1058900006782F2EF7D103E00878232800D15A1E6E
:1058A000491C521C087808B19A42D5D300BF9A42CD
:1058B00003D1087808B9012070BD0020FCE7000082
:1058C00038B505466FF003042846FEF77DFF012832
:1058D00003D02846FEF741FD04463CB9284600F0B7
:1058E00057F8044600212846FEF769FC6042064B43
:1058F0004FF4177205A100900CA0FEF739F818A01C
:10590000FEF736F8204638BD438D00082E2E5C4D3C
:105910005154545C4D515454436C69656E745C6DC4
:10592000717474636C69656E742E630025733A2517
:105930006420257328292E2E2E206D7174742074F6
:10594000727920636F6E6E65637420726573756C17
:1059500074206973202D30782530347800000000E1
:105960000A00000070B504460025A06F18B120465B
:10597000A26FA16990472046FFF7A2FF05462DB10F
:10598000A06BFFF77FFE6FF00F0070BD2846FCE7AD
:105990002DE9F04105466FF01408184B4FF40F72D3
:1059A00017A11FA0FDF7E4FF27A0FDF7E1FF05F118
:1059B0005800FFF79CF810B10020BDE8F081AC6DF5
:1059C000276815E02646327A2846D6E90313FFF702
:1059D000BDFE8046163048B9084B4FF4127208A13C
:1059E0001AA0FDF7C5FF18A0FDF7C2FF3C462768C7
:1059F00005F158008442E5D14046DEE72E8D0008CF
:105A00002E2E5C4D5154545C4D515454436C696579
:105A10006E745C6D717474636C69656E742E630072
:105A200025733A256420257328292E2E2E206D718A
:105A3000747420747279207265737562736372690D
:105A40006265202E2E2E00000A00000025733A25E4
:105A50006420257328292E2E2E206D7174742061E8
:105A6000636B2068616E646C6572206E756D207466
:105A70006F6F206D756368202E2E2E007CB5044656
:105A80000E464FF0FF35002000902046FEF768FFDD
:105A900005460DB128467CBD6846226BE169FCF7DE
:105AA000B3FD012802D06FF00B00F4E701ABBDF8A5
:105AB00000200B212046FEF7CCFB0546019810B9CB
:105AC0006FF00200E7E70198FFF72FF82846E2E7BA
:105AD0002DE9F04107460E4614464FF0FF3500BF52
