:020000040800F2
:10000000106300205D020008ED490008BD320008C1
:10001000E94900082D070008955500080000000078
:100020000000000000000000000000009D0100082A
:100030001B0B000800000000F9010008854D0008B6
:1000400077020008770200087702000877020008AC
:10005000770200087702000877020008770200089C
:10006000770200087702000877020008770200088C
:10007000770200087702000877020008770200087C
:1000800077020008770200080504000877020008DC
:10009000770200087702000877020008770200085C
:1000A000770200087702000877020008770200084C
:1000B0007702000877020008654E00087702000802
:1000C000770200087702000877020008514A00080A
:1000D00077020008AD54000877020008DD540008DC
:1000E000770200087702000877020008770200080C
:1000F00077020008770200087702000877020008FC
:1001000077020008770200087702000877020008EB
:10011000770200087702000877020008754E000891
:10012000F10900087702000877020008010A0008B8
:1001300077020008770200087702000877020008BB
:1001400077020008770200087702000877020008AB
:10015000770200087702000877020008770200089B
:10016000770200087702000877020008770200088B
:1001700077020008770200087702000800000000FC
:100180007702000877020008DFF80CD000F028F9A9
:1001900000480047AD5B0008106300202C4B196835
:1001A0000868B0E8F04F80F30988BFF36F8F4FF015
:1001B000000080F3118870470000000008480068C4
:1001C000006880F308884FF0000080F3148862B65E
:1001D00061B6BFF34F8FBFF36F8F00DF00BF00BF6B
:1001E00008ED00E0DFF80C00016841F470010160E7
:1001F000704700BF88ED00E0EFF30980BFF36F8F19
:10020000134B1A681EF0100F08BF20ED108A20E96A
:10021000F04F106009B44FF0500080F31188BFF325
:100220004F8FBFF36F8F09F04BFB4FF0000080F34F
:10023000118809BC19680868B0E8F04F1EF0100F6B
:1002400008BFB0EC108A80F30988BFF36F8F704746
:1002500018000020EFF30580704700000648804733
:1002600006480047FEE7FEE7FEE7FEE7FEE7FEE79B
:10027000FEE7FEE7FEE7FEE7514E000889010008B1
:100280002DE9F05F0546002092469B4688460646CB
:10029000814640241BE0284641464746224600F05E
:1002A0008EF853465A46C01A914110D3114618464B
:1002B000224600F075F82D1A67EB01084F462246DA
:1002C0000120002100F06CF817EB00094E41201EC0
:1002D000A4F10104DFDC484631462A464346BDE826
:1002E000F09F00000649074A0868504343F239026C
:1002F00010440860400870470149086070470000DA
:10030000DC0000206D4EC64140EA01039B0703D08C
:1003100009E008C9121F08C0042AFAD203E011F844
:10032000013B00F8013B521EF9D27047D2B201E006
:1003300000F8012B491EFBD270470022F6E710B5EA
:1003400013460A4604461946FFF7F0FF204610BD43
:1003500030B505462A460B4612F8010B13F8014B3F
:1003600008B1A042F8D01CB1002802D06D1CF1E702
:10037000284630BD421C10F8011B0029FBD1801A11
:10038000704730B505460020034600E05B1C9342F1
:1003900005D2EC5CC85C201A01D1002CF6D130BD2E
:1003A000202A04DB203A00FA02F100207047914035
:1003B000C2F1200320FA03F3194390407047202A2A
:1003C00004DB203A21FA02F00021704721FA02F3FF
:1003D000D040C2F120029140084319467047000006
:1003E000064C074D06E0E06840F0010394E8070082
:1003F00098471034AC42F6D3FFF7CAFE24F7000842
:1004000044F7000810B5024800F0D0FC10BD000011
:10041000EC04002055494A6822F440324A604A6898
:1004200043681A434A600268526822F48072036883
:100430005A6002685368026943EA022203685A60FC
:100440000268526822F0407203685A60026852687B
:1004500083681A4303685A600268926822F4006253
:1004600003689A6002689268C3681A4303689A60D6
:100470003F4B826A9A4218D00268926822F07062FA
:1004800003689A6002689268836A1A4303689A60F4
:100490000268926822F0405203689A60026892688B
:1004A000C36A1A4303689A600BE00268926822F0FC
:1004B000706203689A600268926822F04052036892
:1004C0009A600268926822F0020203689A600268E9
:1004D0009368027E43EA420203689A602022125C1B
:1004E000A2B10268526842F4006203685A6002686E
:1004F000526822F4604203685A6002685368426A94
:10050000521E43EA423203685A6005E002685268AC
:1005100022F4006203685A600268D26A22F4700210
:100520000368DA620268D36A828B521E43EA02527F
:100530000368DA620268926822F4007203689A60C3
:100540000268936890F8302043EA422203689A6078
:100550000268926822F4806203689A600268936875
:10056000426943EA822203689A607047002301408F
:100570000100000F10B5084807F008FC064807F016
:1005800015FC064807F002FC044807F00FFC04487D
:1005900008F0B3FC002010BDB4000020B80000201B
:1005A000905A002070B505460E4600BF09492846FE
:1005B00008F0A7FC08B9002070BD3146064807F0D6
:1005C000FDFB044614B96FF00100F5E7012CEDD0F6
:1005D0000020F1E7905A0020B80000202DE9F041FA
:1005E00005460E4614463146284602F05FFE214677
:1005F000064807F0E3FB07462FB100F0F3FA804608
:100600004046BDE8F0816FF00100FAE7B400002039
:100610009AB0002447E001A908194FF0FF3100F01B
:10062000B1FE002101AA601C1154002C2ED0601EC6
:1006300001A9085C0D2829D101A8005D0A2825D14F
:1006400019A101A8FFF784FE60B1224601A918484C
:10065000FFF75AFE002004F07BFB164807F0B6FBBC
:10066000002411E014A101A8FFF772FE60B1224638
:1006700001A90F48FFF748FE4FF0FF3004F068FB78
:100680000C4807F0A3FB0024002409E001A800F0B7
:10069000AFFA20B101A804F0ABF9002400E0641C1B
:1006A000642C00DB0024B6E74F4B0D0A000000006D
:1006B000985E0020B40000204552524F520D0A00AF
:1006C0002DE9F04780460C4616461F464046FFF788
:1006D00051FE82465146404602F0E8FD022110A03C
:1006E00002F0E4FD39460F4807F068FB8146B9F196
:1006F000000F11D000F076FA054655B94CB1642EC2
:1007000001DD642000E03046024607492046FFF73D
:10071000FBFD2846BDE8F0876FF00100FAE7000016
:100720000D0A0000B4000020985E002000BFFEE724
:1007300092B0304807F03AFB00F014F900F02AF9C3
:1007400057E04FF0FF300123002200902A48016853
:100750002A48006809F0C4F904A903A800F0DAF8EF
:10076000044664B100F06CF825A004F015FF2148A0
:1007700007F02CFB4FF4FA6008F0C4FD39E025A126
:1007800005A8DDE9032304F017FF00231A4605A995
:100790002948006809F008FC2848016817480068E3
:1007A00009F036F90C204FF6FF710022CDE9002147
:1007B0000290039882B202231421482002F096FF8F
:1007C0000C204FF6FF710022CDE900210290049821
:1007D00082B202232021482002F088FF322105A89E
:1007E000FFF7ABFD034807F0F1FA4FF4FA6008F0A9
:1007F00089FDA6E7CC000020F4F50008D000002019
:100800000A0D64687431312072656164206572720A
:10081000210A0D002274656D7065726174757265D0
:10082000223A222564222C2268756D6964697479E4
:10083000223A222564222C00D4000020F8F500087A
:1008400000B585B014216846FFF777FD4FF480505E
:100850000090002001900290022003906946024817
:1008600000F0E2FF05B000BD0000024000B585B019
:1008700014216846FFF761FD4FF48050009001207D
:1008800001900290022003906946024800F0CCFFDC
:1008900005B000BD0000024070B50024002506E050
:1008A0006006040E00F008F80443681CC5B2082D69
:1008B000F6DB204670BD000010B5002404E0601C8B
:1008C000C4B2012000F036F94FF48051104801F015
:1008D000A5F808B1642CF2DB002404E0601CC4B26B
:1008E000012000F027F94FF48051094801F096F8F3
:1008F00008B9642CF2DB282000F01CF94FF4805179
:10090000034801F08BF808B1012010BD0020FCE77E
:100910000000024070B586B005460E4600F022F891
:1009200000F038F8C8B9002406E0FFF7B5FF01A9C8
:1009300041F82400601CC4B2052CF6DBDDE901019E
:10094000084403990844049908440599884207D14A
:10095000019830600398286002E0012006B070BD65
:100960000020FBE710B5FFF781FF00224FF4805114
:10097000074801F05BF8142000F0D0F801221103C1
:10098000034801F053F81E2000F0D4F810BD000019
:100990000000024010B50024FFF752FF04E0601C85
:1009A000C4B2012000F0C6F84FF480510F4801F0A6
:1009B00035F808B1642CF2DB642C01DB012010BD9A
:1009C000002404E0601CC4B2012000F0B3F84FF42E
:1009D0008051064801F022F808B9642CF2DB642C3F
:1009E00001DB0120EBE70020E9E700000000024006
:1009F00010B5024800F038FD10BD00008C05002045
:100A000010B5024800F030FD10BD0000EC050020DC
:100A10000146087810381823B0FBF3F20848805CD0
:100A2000C865032A05D908686FF30900001D8865A9
:100A300003E008686FF309008865886D704700005F
:100A40006CAD0008014600208A6A8B69CBB932B1CF
:100A5000012A0DD0022A03D0032A10D10EE000BFD4
:100A6000CB6A03F08073B3F1807F00D1012007E0EF
:100A7000CB6AB3F1C07F00D1012001E000E000BFEC
:100A800034E08B69B3F5005F1AD132B1012A07D087
:100A9000022A03D0032A11D10AE000BF01200EE090
:100AA000CB6A03F08073B3F1807F00D1012006E0B0
:100AB000CB6AB3F1C07F00D1012000E000BF15E098
:100AC00032B1012A05D0022A04D0032A0CD103E056
:100AD00000BF00BF012008E0CB6A03F08073B3F1D0
:100AE000807F00D1012000E000BF00BF704730B51B
:100AF0000468246824F4802405682C60046863601A
:100B00008468402C04D10468A2600468E16003E0BA
:100B10000468A1600468E26030BD704730B50446E7
:100B2000002504E04FF47A7000F004F86D1CA54233
:100B3000F8DB30BDF0B504460F4A00231768FD6AA4
:100B400004FB05F74FF47A7CB7FBFCF61768796A6B
:100B50000FE01768786A88420BD0884202D9471A9A
:100B60003B4402E06F1A07443B440146B34200D3C2
:100B700000E0EEE700BFF0BD6C07002010B50122D9
:100B80000021252001F020F8252001F009F8044873
:100B90000068C06840F0600001490968C86010BD85
:100BA000DC06002010B500220F21272001F00CF8F0
:100BB000272000F0F5FF08480068006820F02000BA
:100BC00005490968086004480068C06840F02000D2
:100BD00001490968C86010BD2407002072B600BF33
:100BE000FEE700000148006870470000B0000020E8
:100BF00010B5044604A12046FFF7AAFB08B1012066
:100C000010BD0020FCE700002B4950442C000000E0
:100C10007047000038B502460020009000BF92F8EF
:100C20003C00012801D1022038BD012082F83C009F
:100C300000BF0868092816D91068C0680C780A3CFB
:100C400004EB44050724AC40A0431468E0600C7832
:100C50000A3C04EB44048868A0401468E46820431C
:100C60001468E06013E0106800690C7804EB440538
:100C70000724AC40A043146820610C7804EB4404C2
:100C80008868A0401468246920431468206148687B
:100C9000072817D21068406B0C79641E04EB84059A
:100CA0001F24AC40A04314686063088880B20C79AC
:100CB000641E04EB8404A0401468646B2043146831
:100CC000606331E048680D2817D21068006B0C791A
:100CD000E41F04EB84051F24AC40A0431468206388
:100CE000088880B20C79E41F04EB8404A0401468E7
:100CF000246B20431468206316E01068C06A0C79E6
:100D00000D3C04EB84051F24AC40A0431468E06252
:100D1000088880B20C790D3C04EB8404A040146870
:100D2000E46A20431468E062194B1A4C1068A04230
:100D300006D10868122803D1586840F48000586032
:100D4000144C1068A0421CD10868102802D0086812
:100D5000112816D1586840F400005860086810281F
:100D60000FD10D4800680D4CB0FBF4F000EB800093
:100D70004000009002E00098401E0090009800287B
:100D8000F9D100BF002082F83C0000BF00BF4BE754
:100D900000230140002001401400002040420F00C9
:100DA0007047704701460868C06C70472DE9F041F4
:100DB000044600250026206807682068D0F80480D3
:100DC00007F0020508F0200695B38EB3206C00F002
:100DD000100018B9206C40F400702064206880680E
:100DE00000F04050E8B9207ED8B92068C06A00F40D
:100DF000700020B12068806800F4806088B92068A5
:100E0000406820F0200021684860206C20F4807049
:100E10002064206C00F4805018B9206C40F0010070
:100E200020642046FFF7BCFF6FF0120021680860C5
:100E300007F0040508F08006E5B3DEB3206C00F08F
:100E4000100018B9206C40F40050206420688068BD
:100E500000F4401038BB2068806B00F4401020B1D3
:100E60002068806800F48060E8B92068406800F479
:100E70008060C0B92068806800F0405098B9207E3A
:100E800088B92068406820F0800021684860206CA4
:100E900020F480502064206C00F4807018B9206C1D
:100EA00040F0010020642046FFF7B2FE6FF00C0016
:100EB0002168086007F0010508F0400685B17EB1A1
:100EC0002068006800F0010050B1206C40F48030D0
:100ED0002064204600F050F86FF00100216808609F
:100EE00007F0200508F080667DB176B1606C40F0B7
:100EF000020060646FF02000216808602046FFF760
:100F000050FF6FF0200021680860BDE8F08100000C
:100F100070B5044600250CB9012070BD1549A06AC2
:100F2000884200D000BF206C30B9204600F026F87F
:100F30000020606484F83C00206C00F0100088B948
:100F4000206C20F4885040F0020020642046FFF717
:100F500061FA00206064206C20F0020040F0010083
:100F6000206400E0012500BF002084F83C0000BFA1
:100F70002846D2E70100000F7047000010B586B088
:100F80000446142101A8FFF7D8F91D4920688842BA
:100F900033D100BF002000901A48006840F48070F0
:100FA000184908600846006800F48070009000BF8F
:100FB00000BF00BF0020009012481438006840F0C5
:100FC00001001049143908600846006800F001006B
:100FD000009000BF00BF022001900320029000207B
:100FE000039001A9084800F01FFC002205211220EF
:100FF00000F0EAFD122000F0D3FD06B010BD0000A5
:1010000000200140443802400000024070B5044610
:101010000D4600262068806800F48060B0F5806F7F
:1010200011D12068806800F48070B0F5807F0AD10B
:10103000206C40F02000206400BF002084F83C00B9
:1010400000BF012070BD00F0F7FC064618E0681CE8
:10105000B0B125B100F0F0FC801BA84210D9206887
:10106000006800F0020002280AD0206C40F0040062
:10107000206400BF002084F83C0000BF0320E1E7AB
:101080002068006800F002000228E0D16FF0120032
:1010900021680860206C40F400702064206880683B
:1010A00000F04050B8B9207EA8B92068C06A00F4AA
:1010B000700020B12068806800F4806058B9206C0E
:1010C00020F480702064206C00F4805018B9206CEB
:1010D00040F0010020640020B4E7000008B501469C
:1010E0000020009000BF91F83C00012801D10220AF
:1010F00008BD012081F83C0000BF0868806800F04E
:101100000100A0B90868806840F001000B68986091
:101110003F4800683F4BB0FBF3F000EB400000900D
:1011200002E00098401E009000980028F9D108685D
:10113000806800F00100002860D0086C40F2016374
:10114000984340F4807008640868406800F4806048
:1011500028B1086C20F4005040F480500864086CFA
:1011600000F48050B0F5805F04D1486C20F0060098
:10117000486401E00020486400BF002081F83C0082
:1011800000BF254A6FF022000B681860506800F01D
:101190001F0018BB214B0868984213D0204B0868E9
:1011A000984204D1101D006800F01F0050B11D4B83
:1011B000086898422AD11848001D006800F01F00F6
:1011C000102823D20868806800F04050F0B9086801
:1011D000806840F080400B68986017E00F4B08680B
:1011E000984213D10868806800F0405070B90868D0
:1011F000806840F080400B68986007E0086C40F021
:1012000010000864486C40F00100486400206FE75B
:101210001400002040420F00002301400020014044
:10122000002101400022014008B501460020009045
:1012300000BF91F83C00012801D1022008BD012027
:1012400081F83C0000BF0868806800F00100A0B988
:101250000868806840F001000B68986042480068A8
:10126000424BB0FBF3F000EB4000009002E000982E
:10127000401E009000980028F9D10868806800F0AE
:101280000100002866D0086C40F20163984340F4E6
:10129000807008640868406800F4806028B1086CB9
:1012A00020F4005040F480500864086C00F4805032
:1012B000B0F5805F04D1486C20F00600486401E07E
:1012C0000020486400BF002081F83C0000BF284A8D
:1012D0006FF022000B68186008684068254B1843BF
:1012E0000B685860506800F01F0018BB224B08685C
:1012F000984213D0214B0868984204D1101D006811
:1013000000F01F0050B11E4B086898422AD11848BF
:10131000001D006800F01F00102823D208688068B4
:1013200000F04050F0B90868806840F080400B68D9
:10133000986017E0104B0868984213D108688068DD
:1013400000F0405070B90868806840F080400B6839
:10135000986007E0086C40F010000864486C40F0AA
:1013600001004864002069E71400002040420F009B
:101370000023014020000004002001400021014022
:101380000022014070B504460D462946204604F06F
:10139000C7F870BD70B50446A56D00F04DFB06465C
:1013A00094F83500022808D08020606500BF002036
:1013B00084F8340000BF012070BD2068006820F070
:1013C0001600216808602068406920F080002168CC
:1013D0004861206C08B9A06C28B12068006820F032
:1013E0000800216808602068006820F0010021687A
:1013F000086010E000F020FB801B05280BD920209E
:101400006065032084F8350000BF002084F83400B4
:1014100000BF0320D0E72068006800F0010000282A
:10142000E8D194F85C103F208840A860012084F83F
:10143000350000BF002084F8340000BF00BFBBE7C8
:10144000014691F83500022803D08020486501202C
:101450007047052081F835000868006820F0010019
:101460000A6810600020F3E7F8B5044600200090F9
:101470008C4800684FF41651B0FBF1F7A56D2E684B
:1014800094F85C1008208840304098B120680068CB
:1014900000F0040070B12068006820F004002168AA
:1014A000086094F85C1008208840A860606D40F0E7
:1014B0000100606594F85C1001208840304068B1FC
:1014C0002068406900F0800040B194F85C10012071
:1014D0008840A860606D40F00200606594F85C1080
:1014E00004208840304068B12068006800F00200A5
:1014F00040B194F85C1004208840A860606D40F012
:101500000400606594F85C1010208840304078B387
:101510002068006800F0080050B394F85C101020B8
:101520008840A8602068006800F4802080B12068AE
:10153000006800F4002028B9206CC8B12046216C56
:10154000884715E0A06C98B12046A16C88470FE051
:101550002068006800F4807028B92068006820F0D6
:10156000080021680860206C10B12046216C884773
:1015700094F85C10202088403040002865D0206816
:10158000006800F0100000285FD094F85C10202064
:101590008840A86094F83500052828D120680068A4
:1015A00020F01600216808602068406920F0800063
:1015B00021684861206C08B9A06C28B120680068D7
:1015C00020F008002168086094F85C103F208840F3
:1015D000A860012084F8350000BF002084F83400A2
:1015E00000BF206D10B12046216D8847F8BD2068EE
:1015F000006800F4802080B12068006800F40020BA
:1016000028B9606C10B12046616C88471DE0E06B22
:10161000D8B12046E16B884717E02068006800F4E5
:10162000807068B92068006820F0100021680860A8
:10163000012084F8350000BF002084F8340000BF8A
:10164000E06B10B12046E16B8847606D38B3606D88
:1016500000F00100F0B1052084F835002068006832
:1016600020F001002168086000BF0098401C009035
:10167000B84200D905E02068006800F001000028A9
:10168000F3D100BF012084F8350000BF002084F8AA
:10169000340000BFE06C10B12046E16C884700BF09
:1016A000A4E70000140000202DE9F04104460025C5
:1016B00000F0C2F9074614B90120BDE8F081606A64
:1016C00000B100BF022084F8350000BF002084F87C
:1016D000340000BF2068006820F001002168086025
:1016E0000AE000F0A9F9C01B052805D92020606593
:1016F000032084F83500E0E72068006800F001006E
:101700000028EED12068056821480540D4E9010190
:101710000843E16808432169084361690843A169F6
:101720000843E1690843216A08430543606A0428C5
:1017300003D1D4E90B010843054320680560206804
:10174000456925F00705606A0543606A04280DD1E4
:10175000A06A0543E06A48B12046FFF773F928B153
:1017600040206065012084F83500A6E720684561C7
:101770002046FFF74DF9064694F85C103F2088405C
:10178000B06000206065012084F83500002094E7F7
:101790003F8010F02DE9F04704460D4616461F46DF
:1017A0004FF00008D4F8589000BF94F83400012896
:1017B00002D10220BDE8F087012084F8340000BF88
:1017C00094F83500012825D1022084F83500002046
:1017D00060653B46324629462046FFF788F994F873
:1017E0005C103F208840C9F808002068006840F07D
:1017F000160021680860206C28B12068006840F05D
:101800000800216808602068006840F00100216835
:10181000086006E000BF002084F8340000BF4FF0ED
:1018200002084046C6E70000F8B502460B46002510
:10183000002400200021D6E0012606FA01F51E68EA
:1018400006EA0504AC4274D11E7906F00306012EA7
:1018500004D01E7906F00306022E13D190684F00C3
:101860000326BE40B0434F00DE68BE403043906068
:10187000506801268E40B0431E79C6F300168E4094
:10188000304350601E7906F00306032E09D0D0685D
:101890004F000326BE40B0434F009E68BE40304319
:1018A000D0601E7906F00306022E13D1CF0802F194
:1018B000200656F827004E07F70E0F26BE40B0430D
:1018C0004F07FF0E1E69BE403043CF0802F12006CD
:1018D00046F8270010684F000326BE40B0431E792B
:1018E00006F003064F00BE40304310605E6806F409
:1018F0004036002E76D000BF002600963C4E36685B
:1019000046F480463A4F3E603E46366806F48046CE
:10191000009600BF00BF374E8F0856F827008E078D
:10192000370F0F26BE40B043334EB24202D10026DD
:1019300024E057E0314EB24201D101261EE0304E84
:10194000B24201D1022619E02E4EB24201D1032645
:1019500014E02D4EB24201D104260FE02B4EB242CC
:1019600001D105260AE02A4EB24201D1062605E041
:10197000284EB24201D1072600E008268F073F0F0C
:10198000BE4030431B4E8F0846F82700224E306879
:10199000A0435E6806F4801606B120431E4E3060F8
:1019A000361D3068A0435E6806F4001606B1204379
:1019B000194E361D3060184E361F3068A0435E68E1
:1019C00006F4003606B12043134E361F3060361F32
:1019D0003068A0435E6806F4803606B120430E4EA0
:1019E000083E3060491C1029FFF426AFF8BD000006
:1019F0004438024008380140000002400004024020
:101A000000080240000C0240001002400014024096
:101A100000180240001C0240083C014002461369C5
:101A20000B400BB1012000E0002070470AB181613A
:101A300001E00B04836170470148006870470000B3
:101A40000800002003480068034909780844014958
:101A500008607047080000201000002010B50D48F5
:101A6000006840F400700B4908600846006840F4C4
:101A7000806008600846006840F4807008600320B9
:101A800000F0E0F80F2000F007F800F05FF8002009
:101A900010BD0000003C02402DE9F04188B0044632
:101AA0000027B84600BF002001902348006840F09E
:101AB0000400214908600846006800F00400019015
:101AC00000BF00BF02A903A800F092F9069F1FB94A
:101AD00000F0B6F9054602E000F0B2F945001748FB
:101AE000B5FBF0F0A0F1010815481649086040F276
:101AF000E7311448C160C0F80480002101618160B1
:101B0000816100F09DFF064696B90E4801F006F887
:101B100006466EB91E2000F043F8102C07D20022B2
:101B200021461E2000F050F80748046000E001261E
:101B3000304608B0BDE8F0814038024040420F0016
:101B4000000800406C0700200C00002008B500BF12
:101B5000002000901148006840F480400F49086060
:101B60000846006800F48040009000BF00BF00BF3E
:101B700000200090081F006840F08050091F086096
:101B80000846006800F08050009000BF00BF0022AF
:101B90000F21901E00F018F808BD000044380240E4
:101BA0000146084600280DDB00BF00BF00F01F0300
:101BB00001229A4043099B0003F1E023C3F800216E
:101BC00000BF00BF00BF70472DE9F05F80460D46A3
:101BD0001646002703F004FD074639462A463346D9
:101BE00001F00700C0F1070ABAF1040F02D94FF063
:101BF000040A01E0C0F1070AD14600F1040ABAF173
:101C0000070F02D24FF0000A01E0A0F1030AD44608
:101C10004FF0010A0AFA09FAAAF1010A0AEA020ACD
:101C20000AFA0CFA4FF0010B0BFA0CFBABF1010BAB
:101C30000BEA030B4AEA0B042146404603F0D8FCAA
:101C4000BDE8F09F00BF00F00702064B19684FF691
:101C5000FF031940044B0B4343EA0221014B196077
:101C600000BF70470CED00E00000FA0570B50446B7
:101C70000D460CB9012070BD5848006800F00700FF
:101C8000A84209D255490D700846006800F00700C7
:101C9000A84201D00120EEE7207800F002000228DF
:101CA0001DD1207800F00400042805D14C480068BC
:101CB00040F4E0504A490860207800F00800082805
:101CC00005D14748006840F46040454908604448F1
:101CD000006820F0F000A1680843414908602078BE
:101CE00000F00100A8B36068012807D13C4808381B
:101CF0000068C0F34040B8B90120BCE76068022822
:101D000002D06068032807D1354808380068C0F35E
:101D1000406048B90120AEE7314808380068C0F398
:101D2000400008B90120A6E72D48006820F0030014
:101D3000616808432A490860FFF77EFE064609E00D
:101D4000FFF77AFE801B41F28831884202D90320D6
:101D500091E707E02248006800F00C006168B0EBF2
:101D6000810FEDD11D48006800F00700A84209D995
:101D70001A490D700846006800F00700A84201D01B
:101D8000012078E7207800F00400042807D11448E7
:101D9000006820F4E050E1680843114908602078A9
:101DA00000F00800082808D10D48006820F46040C1
:101DB000216940EAC1000A49086000F061F8084959
:101DC0000968C1F30311074A515CC840064908601D
:101DD00006480068FFF760FE00204CE7003C024028
:101DE0000838024074AD0008140000200C000020E8
:101DF0000F2202600D4A126802F0030242600B4A91
:101E0000126802F0F0028260084A126802F4E0529E
:101E1000C260064A126802F46042D2080261044AB3
:101E2000126802F007020A6070470000083802409A
:101E3000003C024001480068704700001400002088
:101E400000B5FFF7F7FF04490968C1F38221034A8F
:101E5000515CC84000BD00000838024084AD000855
:101E600000B5FFF7E7FF04490968C1F34231034AAF
:101E7000515CC84000BD00000838024084AD000835
:101E80002DE9F047002400250026A14625480068DA
:101E900000F00C0020B1042805D008283AD105E054
:101EA000DFF8849039E0DFF8849036E01D48001FA9
:101EB000006800F03F041B48001F006800F4800029
:101EC00078B11A481749091F0968C1F38811A0FBA6
:101ED00001700146224600233846FEF7D1F9054637
:101EE0000EE011480F49091F0968C1F38811A0FBD2
:101EF00001700146224600233846FEF7C1F9054627
:101F00000848001F0068C0F30140401C4600B5FBB4
:101F1000F6F902E0DFF8109000BF00BF4846BDE8C8
:101F2000F0870000083802400024F40000127A0014
:101F3000F8B504460CB90120F8BD207800F0010086
:101F4000002874D0F948006800F00C0004280DD077
:101F5000F648006800F00C00082813D1F348001F71
:101F6000006800F48000B0F5800F0BD1EF4808380E
:101F70000068C0F34040002859D06068002856D15E
:101F80000120D9E700BF6068B0F5803F08D1E7487D
:101F90000838006840F48030E449083908601EE0E1
:101FA0006068B0F5A02F0DD1E0480838006840F413
:101FB0008020DE49083908600846006840F4803017
:101FC00008600CE0D9480838006820F48030D74910
:101FD000083908600846006820F48020086000BFC7
:101FE000606890B1FFF728FD054606E0FFF724FD85
:101FF000401B642801D903209EE7CC4808380068BC
:10200000C0F340400028F1D011E0FFF715FD054670
:1020100006E0FFF711FD401B642801D903208BE780
:10202000C24808380068C0F340400028F1D1207849
:1020300000F0020002285FD1BC48006800F00C00EC
:1020400058B1BA48006800F00C0008281CD1B74805
:10205000001F006800F48000B0B9B4480838006878
:10206000C0F3400020B1E068012801D0012063E7FF
:10207000AE480838006820F0F800216940EAC10045
:10208000AA490839086037E0E06800B30120A84990
:102090000860FFF7D1FC054606E0FFF7CDFC401BCA
:1020A000022801D9032047E7A04808380068C0F398
:1020B00040000028F1D09D480838006820F0F80062
:1020C000216940EAC10099490839086014E00020FC
:1020D00097490860FFF7B0FC054606E0FFF7ACFC47
:1020E000401B022801D9032026E7904808380068E1
:1020F000C0F340000028F1D1207800F00800082843
:102100002CD16069A8B101208A490860FFF794FCCE
:10211000054606E0FFF790FC401B022801D903208A
:102120000AE782486C300068C0F340000028F1D014
:1021300014E000207F490860FFF77EFC054606E0BA
:10214000FFF77AFC401B022801D90320F4E6774808
:102150006C300068C0F340000028F1D1207800F016
:102160000400042870D1002770483830006800F05F
:10217000805090B900BF002000906C483830006853
:1021800040F080506949383108600846006800F026
:102190008050009000BF00BF01276748006800F42E
:1021A0008070B0B96448006840F48070624908608B
:1021B000FFF742FC054606E0FFF73EFC401B022805
:1021C00001D90320B8E65C48006800F4807000285C
:1021D000F2D000BFA068012808D1544868300068D8
:1021E00040F001005149683108601DE0A0680528F1
:1021F0000DD14E486830006840F004004B4968310A
:1022000008600846006840F0010008600CE047489C
:102210006830006820F001004449683108600846D1
:10222000006820F00400086000BFA068A8B1FFF7B4
:1022300003FC054609E0FFF7FFFB401B41F2883134
:10224000884202D9032077E626E0384868300068E3
:10225000C0F340000028EED013E0FFF7EDFB054689
:1022600008E0FFF7E9FB401B41F28831884201D9C1
:10227000032061E62D4868300068C0F34000002864
:10228000EFD1012F07D129483830006820F0805065
:1022900026493831086000BFA069002845D023488E
:1022A000006800F00C0008285DD0A069022845D124
:1022B00000201F490866FFF7BFFB054606E0FFF751
:1022C000BBFB401B022801D9032035E6174808381C
:1022D0000068C0F340600028F1D1D4E90701084349
:1022E000616A40EA81110122A06AC2EB500041EA12
:1022F00000412C20005D41EA00600C49091F086084
:1023000001200B490866FFF797FB054606E0FFF73B
:1023100093FB401B022801D903200DE6034808382F
:102320000068C0F340600028F1D049E0083802405E
:1023300000004742800E47420070004000202149C3
:102340000866FFF779FB054606E0FFF775FB401BC3
:10235000022801D90320EFE51B480068C0F3406064
:102360000028F2D12CE0A069012800D1E4E516484C
:10237000001D0668A069012820D006F48001E069EC
:1023800081421BD106F03F01206A814216D147F6F7
:10239000C0703040616AB0EB811F0FD106F440314C
:1023A0000122A06AC2EB5000B1EB004F06D106F04B
:1023B00070612C20005DB1EB006F01D00120BBE506
:1023C0000020B9E500004742003802403EB504460F
:1023D0000025574800681821B0FBF1F04FF47A71DE
:1023E000B0FBF1F06421484301900198029020680D
:1023F000406820F02000216848602068406800F0B4
:102400008000802813D14B48606400BF029820B937
:10241000606D40F04000606506E00298401E02904A
:1024200094F851000728F1D100BF0198029020686C
:10243000406800F04000402813D13F48206400BFAE
:10244000029820B9606D40F04000606506E0029897
:10245000401E029094F851000728F1D100BF019866
:1024600002902068406800F00200022822D1A06C8F
:1024700000B30020A16C0865A06CFEF78BFF08B1CB
:10248000402060652068406820F0020021684860B4
:1024900000BF029820B9606D40F04000606508E020
:1024A0000298401E02902068806800F00200002818
:1024B000EFD000BF2068406800F00100B0B1E06CD0
:1024C000A0B10020E16C0865E06CFEF763FF08B185
:1024D000402060652068006820F0400021680860A6
:1024E0002068406820F00100216848600020E087F3
:1024F000E086606D402801D1012501E00020606583
:1025000000BF002000902068C068009020688068AC
:10251000009000BF00BF00BF0020009020688068CE
:10252000009000BF00BF012084F8510028463EBD46
:1025300014000020D14A0008614A000870470000DA
:10254000F8B504462068466820688568C5F38010A1
:1025500048B905F0010030B1C6F3801018B120462B
:10256000216C8847F8BDC5F3400030B1C6F3C010F8
:1025700018B12046616C8847F4E7C5F3401030B9C4
:10258000C5F3801018B9C5F3002000287CD0C6F32D
:10259000401000287DD0C5F38010F0B194F85100B0
:1025A00003280ED0606D40F00400606500BF00207D
:1025B00000902068C068009020688068009000BF8C
:1025C0000BE000BF002000902068C06800902068E9
:1025D0008068009000BF00BFC4E7C5F3401088B119
:1025E000606D40F00100606500BF00200090206831
:1025F000806800902068006820F040002168086032
:1026000000BF00BFC5F3002058B1606D40F0080066
:10261000606500BF0020009020688068009000BFC7
:1026200000BF606D78B32068406820F0E00021684A
:102630004860012084F8510006F00200022802D010
:1026400006F0010008B32068406820F0030021680C
:102650004860E06C50B11048E16C0865E06CFEF732
:10266000EFFE18B1606D40F040006065A06C50B1A5
:102670000948A16C0865A06CFEF7E2FE18B1606D18
:1026800040F04000606503E003E02046FFF756FF9E
:1026900068E700BF66E70000F14A000810B504468D
:1026A0000CB9012010BD606A38B96068B0F5827F4E
:1026B00000D105E00021E16102E0002121616161BA
:1026C0000021A16294F8510028B9002084F850003C
:1026D000204600F047F8022084F851002068006886
:1026E00020F0400021680860A08800F482702189F1
:1026F00001F404410843A18901F400610843217CED
:1027000001F002010843217D01F001010843218B02
:1027100001F400710843217F01F0380108432021B2
:10272000095D01F080010843218D01F40051084347
:10273000216808600421A06901EA104094F824107F
:1027400001F010010843216848602068C06920F446
:1027500000602168C86100206065012084F8510094
:1027600000209FE710B586B00446142101A8FDF7AC
:10277000E4FD40492068884279D100BF00200090E4
:102780003D48006840F480503B49086008460068B6
:1027900000F48050009000BF00BF00BF00200090F8
:1027A00035481438006840F0010033491439086096
:1027B0000846006800F00100009000BF00BFE02064
:1027C0000190022002900020039003200490052035
:1027D000059001A92948FFF727F8294829490860E9
:1027E0004FF0C0604860002126488160C1604FF40E
:1027F00080610161002141618161C1614FF48031DB
:10280000016200214162FEF74FFF08B1FEF7E6F9D1
:1028100000BF1C48E064846300BF194848301A496F
:1028200008604FF0C0604860402117488160002177
:10283000C1604FF480610161002141618161C1612A
:102840004FF48031016200214162FEF72DFF08B193
:10285000FEF7C4F900BF0C48A064846300BF0022E7
:1028600005212320FFF7B0F92320FFF799F906B0DF
:1028700010BD00000030014044380240000002401A
:10288000106402408C050020EC0500202DE9F04189
:1028900004460E461546002700BF94F85000012854
:1028A00002D10220BDE8F081012084F8500000BF71
:1028B00094F85100012801D0022755E006B10DB966
:1028C000012751E0032084F8510000206065266351
:1028D000A586E586A06360642064A087E087A06881
:1028E000B0F5004F0BD12068006820F0400021684F
:1028F00008602068006840F48040216808601E4835
:10290000A16C08641D48A16CC8631D48A16CC86413
:102910000020A16C0865E38ED4F800C00CF10C0215
:10292000216BA06CFEF736FF28B1606D40F01000FF
:102930006065012718E02068006800F0400040282A
:1029400005D02068006840F04000216808602068D9
:10295000406840F02000216848602068406840F0EE
:1029600002002168486000BF00BF002084F85000CA
:1029700000BF384696E700002D4B00083B4B00088F
:10298000054B0008704770477047704730B50246E6
:102990000B4600BF92F83C00012801D1022030BD57
:1029A000012082F83C0000BF022082F83D00106840
:1029B00044681068816824F0700418680443106843
:1029C0004460184D1068A8421BD01068B0F1804FC9
:1029D00017D0154D1068A84213D0144D1068A842A6
:1029E0000FD0134D1068A8420BD0124D1068A842AA
:1029F00007D0114D1068A84203D0104D1068A842AE
:102A000005D121F0800158680143106881600120E0
:102A100082F83D0000BF002082F83C0000BF00BFEC
:102A2000BDE7000000000140000400400008004035
:102A3000000C00400004014000400140001800402C
:102A400010B504460CB9012010BD94F83D0028B91A
:102A5000002084F83C00204600F026F8022084F88C
:102A60003D00211D206802F00DFA012084F8460087
:102A700000BF84F83E0001213F2001554020015550
:102A80004120015500BF00BF012084F842004320CF
:102A90000155442001554520015500BF012084F80F
:102AA0003D000020D0E7000038B5044618492068F2
:102AB00088420FD100BF002000901648006840F007
:102AC0000800144908600846006800F008000090FB
:102AD00000BF1BE010492068884217D100BF0020CA
:102AE00000900C48006840F020000A490860084641
:102AF000006800F02000009000BF00BF0022052108
:102B00003720FFF761F83720FFF74AF838BD00009B
:102B1000000C00404038024000140040014691F88B
:102B20003D00012801D001207047022081F83D00BE
:102B30000868C06840F001000B68D8601A4B08684C
:102B400098421BD00868B0F1804F17D0174B086827
:102B5000984213D0164B086898420FD0154B08685E
:102B600098420BD0144B0868984207D0134B086862
:102B7000984203D0124B086898420CD108688068CC
:102B800000F00702062A0CD00868006840F0010037
:102B90000B68186005E00868006840F001000B68E9
:102BA00018600020C0E70000000001400004004061
:102BB00000080040000C00400004014000400140BB
:102BC00000180040704770B504462068C56820684A
:102BD000066906F00200022819D105F00200022859
:102BE00015D1401F21680861012020772068806985
:102BF00000F0030018B12046FFF7E4FF05E020468F
:102C000000F097F8204600F095F80020207706F0B5
:102C10000400042819D105F00400042815D1C0438C
:102C200021680861022020772068806900F44070E4
:102C300018B12046FFF7C6FF05E0204600F079F8FE
:102C4000204600F077F80020207706F008000828DA
:102C500019D105F00800082815D1C0432168086182
:102C6000042020772068C06900F0030018B12046D6
:102C7000FFF7A8FF05E0204600F05BF8204600F0D3
:102C800059F80020207706F01000102819D105F01F
:102C90001000102815D1C043216808610820207752
:102CA0002068C06900F4407018B12046FFF78AFF21
:102CB00005E0204600F03DF8204600F03BF80020FB
:102CC000207706F0010048B105F0010030B16FF047
:102CD000010021680861204600F02EF806F080000F
:102CE000802809D105F08000802805D1C0432168E3
:102CF00008612046FFF748FE06F04000402809D151
:102D000005F04000402805D1C043216808612046F5
:102D100000F054F806F02000202809D105F020002A
:102D2000202805D1C043216808612046FFF72DFE09
:102D300070BD70477047000010B504460349206815
:102D4000884201D1FEF77EFE10BD00000008004061
:102D500070B504460D4600BF94F83C00012801D12F
:102D6000022070BD012084F83C0000BF022084F8DE
:102D70003D002946204602F004F948B1012084F8BC
:102D80003D0000BF002084F83C0000BF0120E8E7C0
:102D90002068C06820F040002168C8602068C068D2
:102DA00020F480402168C860012084F83D0000BF05
:102DB000002084F83C0000BF00BFD2E77047704796
:102DC000704700002DE9F84F044620680568206828
:102DD000C668206847694FF00009CA4605F00F0928
:102DE000B9F1000F0AD105F0200038B106F020003B
:102DF00020B1204602F095F9BDE8F88FB9F1000F37
:102E00007CD007F0010018B906F49070002875D046
:102E100005F0010030B106F4807018B1606C40F02C
:102E20000100606405F0040030B107F0010018B142
:102E3000606C40F00200606405F0020030B107F001
:102E4000010018B1606C40F00400606405F00800F7
:102E500048B106F0200010B907F0010018B1606C0D
:102E600040F008006064606C002846D005F0200047
:102E700028B106F0200010B1204602F052F9206877
:102E80004069C0F3801A606C00F0080010B9BAF114
:102E9000000F2DD0204602F0FEF82068406900F0B7
:102EA0004000402820D100BF00BF2168143151E804
:102EB000001F21F040002168143141E80002002A7F
:102EC000F3D100BFE06B50B17748E16B0865E06B70
:102ED000FEF7B6FA88B1E06B016D88470DE0204639
:102EE000FFF76EFF09E009E02046FFF769FF04E005
:102EF0002046FFF765FF002060647DE7206B012816
:102F000078D105F01000002874D006F010000028D9
:102F1000FAD000BF00200090206800680090206870
:102F20004068009000BF00BF2068406900F040008A
:102F3000402860D1E06B006840681FFA80F8B8F163
:102F4000000F56D0A08D404553DDA4F82E80E06BD5
:102F5000C069B0F5807F43D000BF00BF21680C314D
:102F600051E8001F21F4807021680C3141E8000213
:102F7000002AF3D100BF00BF00BF2168143151E81F
:102F8000001F21F001002168143141E80002002AED
:102F9000F3D100BF00BF00BF2168143151E8001F0A
:102FA00021F040002168143141E80002002AF3D1E9
:102FB00000BF202084F842000020206300BF00BF33
:102FC00021680C3151E8001F21F0100021680C31FC
:102FD00041E80002002AF3D100BFE06BFEF7DAF906
:102FE00002206063A08DE28D801A81B22046FFF737
:102FF000E6FE01E742E0A08DE18D401A1FFA80F85D
:10300000E08DD0B3B8F1000F37D000BF00BF21680A
:103010000C3151E8001F21F4907021680C3141E817
:103020000002002AF3D100BF00BF00BF21681431A5
:1030300051E8001F21F001002168143141E800022D
:10304000002AF3D100BF202084F842000020206332
:1030500000BF00BF21680C3151E8001F21F01000B3
:1030600021680C3141E80002002AF3D100BF0220A0
:10307000606341462046FFF7A2FEBDE605F08000F2
:1030800030B106F0800018B1204602F0DFF9B3E657
:1030900005F0400030B106F0400018B1204602F0C3
:1030A00030F8A9E600BFA7E68350000810B5044633
:1030B0000CB9012010BDA06900B100E000BF94F878
:1030C000410028B9002084F84000204600F02AF88A
:1030D000242084F841002068C06820F40050216852
:1030E000C860204602F09CF82068006920F49040F7
:1030F000216808612068406920F02A002168486141
:103100002068C06840F400502168C86000206064F6
:10311000202084F8410084F842000020606300BF52
:10312000C8E7000010B586B00446142101A8FDF7D9
:1031300004F93F492068884239D100BF002000903F
:103140003C48006840F010003A49086008460068B2
:1031500000F01000009000BF00BF00BF00200090F2
:1031600034481438006840F00100324914390860CE
:103170000846006800F00100009000BF00BF4FF457
:10318000C060019002200290002003900320049070
:103190000720059001A92848FEF746FB00220521DB
:1031A0002520FEF711FD2520FEF7FAFC3EE023491D
:1031B000206888423AD100BF002000901D48001FBF
:1031C000006840F480201B49091F08600846006819
:1031D00000F48020009000BF00BF00BF00200090DE
:1031E00014481438006840F002001249143908608D
:1031F0000846006800F00200009000BF00BF4FF4D6
:10320000406001900220029000200390032004906F
:103210000720059001A90A48FEF706FB00220521B8
:103220002720FEF7D1FC2720FEF7BAFC06B010BD20
:1032300000100140443802400000024000480040B5
:1032400000040240034A0168914202D10121024A6E
:1032500011707047001001409900002010B503461E
:1032600093F84100202813D101B10AB9012010BD03
:1032700019629A84DA8400205864212083F841007E
:103280001868C06840F080001C68E0600020EEE72D
:103290000220ECE7034A0168914202D10121024A6F
:1032A00011707047001001409800002070B504466E
:1032B0000D462946204602F047F970BD00BFFEE7E3
:1032C0002DE9F04104460D4616461F462A2000F01F
:1032D00089FAA11C88B200F075FAB11C88B200F01E
:1032E00071FA2B2000F07EFA691C88B200F06AFAAD
:1032F000791C88B200F066FA2C2000F073FABDE861
:10330000F08170B504460D4616462B4622462946E6
:103310002046FFF7D5FF304600F054FA70BD00009C
:103320002DE9F04706460F4614461D46DDF820807D
:10333000A01BE91B48431FFA80FA681E83B2601E77
:1033400082B239463046FFF7BBFF002210211048F9
:10335000FEF76CFB012210210E48FEF767FB4FF0D1
:1033600000090BE04FEA282001F0ECFC08F0FF0018
:1033700001F0E8FC09F101001FFA80F9D145F1DB09
:10338000012210210248FEF751FBBDE8F087000042
:10339000000002400008024010B5002210217C48C5
:1033A000FEF744FB6420FDF7B9FB012210217848A9
:1033B000FEF73CFB6420FDF7B1FB0122202174489D
:1033C000FEF734FB3220FDF7A9FB112000F00AFACA
:1033D0003220FDF7A3FBB12000F004FA052000F035
:1033E000FAF93C2000F0F7F93C2000F0F4F9B220A3
:1033F00000F0F8F9052000F0EEF93C2000F0EBF9C0
:103400003C2000F0E8F9B32000F0ECF9052000F0D2
:10341000E2F93C2000F0DFF93C2000F0DCF9052067
:1034200000F0D9F93C2000F0D6F93C2000F0D3F9A7
:10343000B42000F0D7F9032000F0CDF9C02000F04F
:10344000D1F9282000F0C7F9082000F0C4F90420C1
:1034500000F0C1F9C12000F0C5F9C02000F0BBF9AF
:10346000C22000F0BFF90D2000F0B5F9002000F0F7
:10347000B2F9C32000F0B6F98D2000F0ACF92A2093
:1034800000F0A9F9C42000F0ADF98D2000F0A3F9F7
:10349000EE2000F0A0F9C52000F0A4F91A2000F0F9
:1034A0009AF9362000F09EF9C02000F094F9E0204F
:1034B00000F098F9042000F08EF9222000F08BF93A
:1034C000072000F088F90A2000F085F92E2000F08E
:1034D00082F9302000F07FF9252000F07CF92A20C5
:1034E00000F079F9282000F076F9262000F073F931
:1034F0002E2000F070F93A2000F06DF9002000F065
:103500006AF9012000F067F9032000F064F9132044
:1035100000F061F9E12000F065F9042000F05BF9AA
:10352000162000F058F9062000F055F90D2000F0A3
:1035300052F92D2000F04FF9262000F04CF92320FD
:1035400000F049F9272000F046F9272000F043F960
:10355000252000F040F92D2000F03DF93B2000F03F
:103560003AF9002000F037F9012000F034F9042086
:1035700000F031F9132000F02EF93A2000F032F972
:10358000052000F028F9292000F02CF910BD0000DA
:10359000000802402DE9FF5F80468A4617469B4699
:1035A0000F9D00200290CDF80080284605EBD071D9
:1035B000C1F347042046E21704EB5272D2102146B1
:1035C000E31704EB5373DB10A4EBC3030BB101232C
:1035D00000E000231A446A4392B20192A7F120004E
:1035E000C7B20AEB0500401E83B208EB0400401E80
:1035F00082B251464046FFF763FE002669E00C2D7B
:1036000007D107EB4700354901EB8000805D03904F
:103610001BE0102D05D1324800EB0710805D0390B0
:1036200013E0182D07D107EB47002E4901EB0010DE
:10363000805D039009E0202D05D12B4800EB871019
:10364000805D039001E0BDE8FF9F4FF000093AE084
:103650001098C8B9012000FA09F00399084018B180
:10366000584600F0AFF802E00E9800F0ABF8029870
:10367000401CC0B20290029890FBF4F104FB1100D0
:10368000E8B90020029021E0012000FA09F0039936
:10369000084020B15A4651464046FFF732FE08F135
:1036A00001001FFA80F80098A8EB0000A04206D1A4
:1036B000DDF800800AF101001FFA80FA06E009F146
:1036C000010000F0FF09B9F1080FC1DB00BF701C59
:1036D00086B20198864292DB00BFB4E758B000087A
:1036E000CCB40008BCBA00088CCC00082DE9FF4F10
:1036F00085B0074691461D46DDE913A600200490DB
:10370000304606EBD071C1F3470B002434E0281B90
:10371000401EC1B20A2004F0F1F9B9FBF0F00A2111
:10372000B0FBF1F201FB12080498A0B9681EA04298
:1037300011DDB8F1000F0CD1002004FB0B71CDE9B5
:1037400000A6029088B22022129B0699FFF722FF62
:1037500010E001200490002008F13001CAB204FBFF
:103760000B71CDE900A6029088B2129B0699FFF773
:1037700011FF00BF601CC4B2AC42C8DB09B0BDE899
:10378000F08F2DE9FE4F06460F4614469846DDE9B8
:103790000D5ADDF8309010E0CDE9015ACDF80090D7
:1037A0002278434639463046FFF7F4FE284605EBBB
:1037B000D07106EB61018EB2641C20780028EBD139
:1037C000BDE8FE8F10B50446201200F01DF8E0B2EF
:1037D00000F01AF810BD10B50446204600F014F8A9
:1037E00010BD000010B50446002201210548FEF777
:1037F0001DF9204600F008F8012211460148FEF7A5
:1038000015F910BD0004024010B504460022102135
:103810000548FEF70BF9204601F094FA0122102129
:103820000148FEF703F910BD0000024010B5024840
:10383000FDF7FAFC10BD0000EC04002092B0354802
:1038400004F0B4FAFFF7F2FF62E04FF0FF3001231B
:1038500000220090304801683048006806F040F9C6
:1038600004A800F07FF8002848D14FF4A57204990D
:1038700001FB02F0C11700EB1151091303910A215A
:10388000039890FBF1F201FB120490FBF1F090FB26
:10389000F1F201FB12056421039890FBF1F6CDE9EA
:1038A000005433461EA105A8049A01F085FE0023AA
:1038B0001A4605A92248006806F076FB21480168EF
:1038C0001648006806F0A4F80C204FF6FF7100229D
:1038D000CDE900210290049882B204232C214820D3
:1038E000FFF704FF3C2105A8FCF727FD094804F079
:1038F0006DFA4FF4FA6005F005FD09E012A001F041
:103900004BFE044804F062FA4FF4FA6005F0FAFC4A
:103910009BE70000CC000020F4F50008D000002058
:10392000224C69676874223A222564222C22566F41
:103930006C74223A2225642E25642564222C000012
:10394000D4000020FCF500084C69676874205365BA
:103950006E736F722052656164204661696C0D0A56
:103960000000000010B504460A480068FDF7B6FBE9
:103970004FF4FA7107480068FDF748FB30B9054875
:103980000068FDF70FFA2060002010BD4FF0FF30F7
:10399000FBE70000AC0000202DE9FE4F04460D4679
:1039A00016461F46DDF830A00020029001978046A1
:1039B000814601A805F070FA8DF808000298C0F35E
:1039C000C00028700298C0F3031020706946019867
:1039D00000F034F98146019908440190DDE90010B6
:1039E00000EB01080198A8EB0000022800DA06E0CD
:1039F00001A805F058FA30804FF0010900BF484691
:103A0000BDE8FE8F2DE9FF4704460D461646994650
:103A100000200390029600278046009002A805F03F
:103A20003BFA8DF80C000398C0F30310022800D075
:103A30001FE001A9029800F001F9804602990844AC
:103A40000290DDE9011047180298381A022800DABE
:103A50000FE002A805F020FA8DF80000009800F0B1
:103A60000100207002A805F017FA28704FF0010835
:103A700000BF404604B0BDE8F0872DE9FF5F064671
:103A80000C4617469846DDE90FABDDF8389000206C
:103A9000039011980290002500200190009002A848
:103AA00005F0FAF98DF80C000398C0F30310032811
:103AB00000D032E00398C0F3C00030700398C0F328
:103AC00041002060039800F00100387069460298B8
:103AD00000F0B4F80190029908440290009902980D
:103AE00045182A4602A9484605F0EAF910B102989D
:103AF000281A00D511E02068002804DD02A805F08E
:103B0000D2F9A8F800000298281ACBF80000029811
:103B1000CAF800000120019000BF019804B0BDE880
:103B2000F09F2DE9FE4F05460E4614461F46DDE97F
:103B30000C9B00200290CDF804908046824601A89C
:103B400005F0AAF98DF808000298C0F303100928BF
:103B500000D02CE06946019800F070F88246019987
:103B600008440190DDE9001000EB01080198A8EB82
:103B70000000022800DA1AE001A805F094F9288074
:103B8000002020600DE02068B04202DD4FF0FF3AD7
:103B90000DE001A805F080F92268511C216047F86A
:103BA000220001984045EED34FF0010A00BF504675
:103BB000BDE8FE8FFEB504460D4616460020029075
:103BC000019000272B46224601A902A80096FFF784
:103BD000E3FE07469DF808000B2800D10127384670
:103BE000FEBD2DE9F84305460C46012600270020BE
:103BF000206000BF4FF0FF38781C0746042801DD25
:103C000000BF17E001216846A8478046B8F1010FC0
:103C100000D00FE09DF8001001F07F01206801FB4B
:103C200006002060F6019DF8000000F080000028EA
:103C3000E0D100BF3846BDE8F883000070B5044607
:103C40000D460348046029460248FFF7CAFF70BDCD
:103C5000A0000020C95A000830B50246002300BF6A
:103C60000846CD1701EB5565ED11A1EBC515ECB27A
:103C7000CD1701EB5565E911002901DD44F0800401
:103C800018465B1C14540029EADC184630BD2DE9A7
:103C9000F04104460E460027B846206828B1256842
:103CA0002068FCF767FB074601E0A56867683046B7
:103CB000FCF760FB8046474508D13A463146284626
:103CC000FCF75FFB10B90120BDE8F0810020FBE7A5
:103CD000401C802801DA401C0AE0B0F5804F01DA70
:103CE000801C05E00349884201DAC01C00E0001D89
:103CF00070470000FFFF1F002DE9FC4704460E46F9
:103D000015461F46DDF8288000200190814600946A
:103D1000042E02DA6FF0010924E0019865F3071020
:103D20000190019867F3C3000190062D01D1012194
:103D300000E00021019861F3420001909DF8041019
:103D4000684605F019FE02210098FFF785FF0099EB
:103D5000084400904146684605F014FE0098A0EB28
:103D6000040900BF4846BDE8FC8700002DE9FE437A
:103D700005460E461446029500200190009000274B
:103D80004FF0FF38204600F0A5F807468146FFF7C0
:103D90009FFFB04202DD6FF001088FE000208DF838
:103DA0000400019820F0F000103001909DF80410FC
:103DB00002A805F0E1FD39460298FFF74DFF029990
:103DC00008440290207A042808D13EA102A805F0F8
:103DD000BFFD042102A805F0CFFD07E03BA102A82A
:103DE00005F0B6FD032102A805F0C6FD00208DF800
:103DF0000000A17E009861F341000090E07E08B1D0
:103E0000012100E00021009861F3820000900098F9
:103E1000C0F3800058B194F83D10009861F3C400DD
:103E2000009094F83C10009861F345100090206CCD
:103E300008B9A06C20B1009820F08000803000907C
:103E4000E06C08B9606D20B1009820F0400040306F
:103E500000909DF8001002A805F08EFD218B02A8AD
:103E600005F090FD02A8D4E90423E16805F0A2FD65
:103E7000E07E58B102A8D4E90A23616A05F09AFDF0
:103E800002A8D4E90D23216B05F094FD0098C0F33E
:103E9000C01028B102A8D4E91123216C05F08AFDD5
:103EA0000098C0F3801028B102A8D4E91423E16C73
:103EB00005F080FD0298A0EB050800BF4046BDE874
:103EC000FE8300004D515454000000004D514973D1
:103ED0006470000070B504460025207A032801D1E3
:103EE0000C2503E0207A042800D10A25D4E9041225
:103EF000E06800F091FB801C0544E07E68B1D4E9E5
:103F00000A12606A00F088FB861CD4E90D12206B4F
:103F100000F082FB3044801C0544206C08B9A06C82
:103F200030B1D4E91112206C00F076FB801C0544FE
:103F3000E06C08B9606D30B1D4E91412E06C00F0A7
:103F40006BFB801C0544284670BD70B504460D46C9
:103F50000C222946204600F0D9F870BD2DE9F04F1B
:103F600087B005460F4690461C46DDE915B6DDE9EB
:103F7000109A069500200590049003900096204624
:103F800012A90EC900F042F804900290FFF7A0FEBB
:103F9000B84203DD6FF00100039033E0059820F094
:103FA000F00030300590059868F3C300059005983F
:103FB00064F342000590059869F3000005909DF8B0
:103FC000141006A805F0D8FC04990698FFF744FEE3
:103FD00006990844069006A812A90EC905F0EAFC45
:103FE000002C03DD514606A805F0CCFC32465946AC
:103FF0000698FCF789F90698304406900698401B0D
:10400000039000BF039807B0BDE8F08F7FB5054669
:10401000089E002401A807C800F0FEFA801C304466
:104020000444002D00DDA41C204604B070BD2DE921
:10403000FF5F05460E4617469846DDE90E9A039542
:10404000002002900190009000245146484600F064
:1040500046F883460190FFF73BFEB04202DDA01E0A
:10406000009038E000208DF80800029820F0F00061
:1040700080300290029867F3C3000290029820F00B
:104080000600801C02909DF8081003A805F074FC3F
:1040900001990398FFF7E0FD039908440390414616
:1040A00003A805F06FFC00240FE004EB44000AEBCA
:1040B000800C03A89CE80E0005F07CFC109810F81A
:1040C000241003A805F058FC641C4C45EDDB039854
:1040D000401B009000BF009804B0BDE8F09F2DE9A0
:1040E000F04105460E46022700240AE004EB440096
:1040F00006EB800393E8070000F08EFAC01C07442B
:10410000641CAC42F2DB3846BDE8F0812DE9FC418D
:1041100004460D46164600200190471E0094022DCD
:1041200001DA871E15E000208DF80400019866F37F
:10413000071001909DF80410684605F01DFC002151
:104140000098FFF789FD0099084400900098071B2C
:1041500000BF3846BDE8FC817CB5064647480021D3
:10416000016041608160C16002F008FB4449086061
:1041700044A14348006803F067F844A14048006840
:1041800002F0F2FF0A2004F01FFE054629463C48D3
:10419000006802F0A3FF0A2004F016FE0546294637
:1041A0003748006803F0AEF80A2004F00DFE05461B
:1041B00029463348006803F00FF8012130480068B1
:1041C00002F04EFF2E48006801F03FFF78B133A0A7
:1041D00001F0E2F93648006848B13548006805F05A
:1041E000BFF800203249086032A001F0D5F93B4BFE
:1041F00000223BA12248006803F020F9044614B1D4
:1042000039A001F0C9F9002301223EA11C48006831
:1042100003F014F9044614B13CA001F0BDF90023E9
:10422000022241A11648006803F008F9044614B1BF
:104230003FA001F0B1F945A001F0AEF900231A4604
:104240004AA10F48006803F0F9F8044624B121465A
:1042500049A001F0A1F902E04DA001F09DF95648F6
:104260002A2100238022CDE9001054A1584806F0ED
:1042700033FA0F48006805F0B7FA7CBDFC5E0020F9
:10428000D8000020313838330000000034372E3198
:1042900031342E3138372E32343700006D7174745A
:1042A0005F636F6E6E656374206572720D0A000045
:1042B00000000020475F784D515454436C69656E8F
:1042C00074496E697448616E646C65207461736BC7
:1042D0002064656C657465640D0A0000498F0008F0
:1042E000746F7069633100006D7174745F7375620F
:1042F00073637269626520746F70696331206572DF
:10430000720D0A00746F7069633200006D7174740D
:104310005F73756273637269626520746F7069633D
:1043200032206572720D0A00746F70696333000089
:104330006D7174745F737562736372696265207402
:104340006F70696333206572720D0A007375627352
:10435000637269626520546F70696320737563636B
:1043600065737366756C6C790D0A00006D63755F1B
:104370007465737400000000737562736372696220
:104380006520657272203D2025640D0A0000000042
:104390007375627363726962652064657374696EB4
:1043A0006174696F6E207375636365737366756C92
:1043B0006C790D0A00000000BC0000204D515454DF
:1043C0005F436C69656E745F5461736B000000003D
:1043D000D54300081CB5044622A001F0DDF804F026
:1043E0006BFE05F006FB284908600121264800689D
:1043F00005F00EFB254803F0C9FC002264210520CE
:1044000005F0E8FC224908602248202100230A0127
:10441000CDE9001020A1244806F05EF923482721A9
:1044200000238022CDE9001021A1274806F054F98D
:104430002648282100238022CDE9001024A1274806
:1044400006F04AF92648006848B12548006804F09B
:1044500087FF00202249086022A001F09DF804F0A7
:1044600055FE1CBD656E746572204D515454436CED
:1044700069656E745461736B2073756363657373E0
:1044800066756C6C790D0A00D0000020CC0000200D
:10449000D4000020C00000204D5154545F506C6186
:1044A00074666F726D0000000D450008C8000020A2
:1044B0004C6967687453656E736F725F4D515454E5
:1044C0005F5461736B0000003D380008C400002099
:1044D00044544831315F5461736B00003107000868
:1044E000BC000020475F784D5154545F436C6965B0
:1044F0006E745F5461736B207461736B20686173B9
:104500002064656C657465640D0A0000C2B02C48B7
:1045100003F04CFC2BA001F03FF84FF4807102A88F
:10452000FBF70BFF02A83049C8600020087046E086
:104530004FF0FF3001231A46062100902B480068F7
:1045400005F0CEFA02A8FBF715FF02A944180A22CB
:1045500021462748006805F0E9FE30B300BF02A8F5
:10456000FBF708FF02A944180A22214620480068E8
:1045700005F0DCFE0028F2D11B49C868FBF7FAFE03
:10458000194988600A461BA11D48006802F070FAAC
:104590004FF4807102A8FBF7D0FE094803F016FC27
:1045A0004FF47A7004F0AEFE09E016A000F0F4FFBC
:1045B000034803F00BFC4FF47A7004F0A3FEB7E756
:1045C000CC000020656E746572204D5154545F50CC
:1045D0006C6174666F726D20737563636573736667
:1045E000756C6C790D0A0000FC5E0020D000002084
:1045F000D40000206D63755F746573740000000063
:10460000D80000204E6F206461746120726563657C
:10461000697665640D0A000037B50024009820B162
:104620000098FBF7A7FE044600E0019C20463EBD33
:104630001FB5002000900190029003901548164984
:1046400008604FF4803048600021134881600161A8
:10465000017680F82010C162104981620021C1609A
:104660000121C161002180F8301001214161FCF776
:104670004FFC08B1FCF7B2FA012000900190002035
:10468000029069460448FCF7C5FA08B1FCF7A6FA9F
:104690001FBD000000200140EC0400200100000FBD
:1046A00008B500BF002000900E48006840F480006C
:1046B0000C4908600846006800F48000009000BFC4
:1046C00000BF002205213820FDF77EFA3820FDF7D3
:1046D00067FA002205213B20FDF776FA3B20FDF723
:1046E0005FFA08BD303802401CB50B4A00210B4868
:1046F00003F0DCFA0A490860074A0021094803F080
:10470000D5FA0948302100238022CDE9001007A105
:104710000B4805F0E1FF1CBD48AD0008614D0008E5
:104720000400002011060008000000204D515454E0
:104730005F436C69656E745F496E697400000000C8
:104740005941000800B587B0142102A8FBF7F5FD18
:1047500000BF002001904648006840F00400444932
:1047600008600846006800F00400019000BF00BF28
:1047700000BF002001900846006840F080000860FB
:104780000846006800F08000019000BF00BF00BF35
:10479000002001900846006840F0010008600846CB
:1047A000006800F00100019000BF00BF00BF0020C2
:1047B00001900846006840F0020008600846006862
:1047C00000F00200019000BF00BF01221021294823
:1047D000FDF72CF9012230212748FDF727F90122A6
:1047E00003212648FDF722F900224FF48051214889
:1047F000FDF71CF910200290012003900020049086
:104800000120059002A91B48FDF70EF83020029008
:1048100001200390002004900120059002A9164871
:10482000FDF702F80120029003900020049001207F
:10483000059002A91148FCF7F7FF02200290012021
:104840000390002004900220059002A90B48FCF779
:10485000EBFF4FF480500290012003900020049061
:10486000059002A90348FCF7DFFF07B000BD000078
:1048700030380240000002400008024000040240BC
:1048800010B50E480E4908604FF482704860002150
:104890000B488160C160016141614FF40071816129
:1048A0001821C16100210162416281620A21C16255
:1048B000FDF7F4FE08B1FCF791F910BD003001409E
:1048C0003405002000B587B0142102A8FBF735FDA0
:1048D00000200090019014481449086000204860AE
:1048E000002112488160491EC1600021016181617F
:1048F000FEF7A6F808B1FCF771F907200290002036
:10490000039002A90948FEF723FA08B1FCF766F9FB
:1049100000200090019069460448FEF737F808B17E
:10492000FCF75CF907B000BD000C00404C0600200D
:104930001CB50020009001900D480E4908605320DE
:10494000486000210B4881600121C1600021816124
:10495000FEF776F808B1FCF741F9002000900190CD
:1049600069460448FEF712F808B1FCF737F91CBD98
:10497000001400409406002010B50B480B49086055
:104980004FF4E1304860002108488160C160016156
:104990000C21416100218161C161FEF787FB08B1F3
:1049A000FCF71CF910BD000000100140DC060020DF
:1049B00010B50B480B4908604FF4E1304860002106
:1049C00008488160C16001610C2141610021816161
:1049D000C161FEF76BFB08B1FCF700F910BD0000E8
:1049E000004800402407002000BFFEE700BFFEE7AC
:1049F00070B50546002400260FE028194FF0FF315E
:104A0000FCF7C0FC285D3A2800D107E0285D30386B
:104A100006EB860100EB4106641CEEE700BF0024B4
:104A20000EE028194FF0FF31FCF7ACFC642C06DADD
:104A3000285D054904F079FA044803F0C7F9641CBD
:104A4000B442EEDB70BD0000905A0020B800002098
:104A500010B50248FDF774FD10BD000034050020BC
:104A60000CB500210191194909681822B1FBF2F136
:104A70004FF47A72B1FBF2F164225143009100BF0E
:104A8000009921B9416D41F04001416508E000996C
:104A9000491E00910168896801F002010029EFD0E8
:104AA00000BF0168096821F04001026811600168D7
:104AB000496821F0E001026851600168C96801910C
:104AC00000BF072180F851100CBD00001400002029
:104AD0000168496821F08001026851600168096835
:104AE00021F0400102681160072180F851107047E1
:104AF00070B50546AC6B0020E087E0862046FDF7E8
:104B00001DFD70BD70B50546AC6B2068406820F097
:104B1000030021684860606D40F01000606501206E
:104B200084F851002046FDF709FD70BD70B50446BC
:104B3000A56B2846FDF727FF70BDF8B50546AC6BA1
:104B4000FCF77AFF06462868006800F48070B0F52C
:104B5000807F2DD02068406820F0200021684860C8
:104B60002068406820F002002168486032466421D5
:104B7000204600F023F818B1606D40F02000606519
:104B8000A06850B900BF002000902068C068009065
:104B900020688068009000BF00BF0020E0860120F0
:104BA00084F85100606D18B12046FDF7C7FCF8BDD0
:104BB0002046FDF7E7FE00BFF9E700007CB504469C
:104BC0000E4615463346012202212046009500F08C
:104BD00039F828B1606D40F02000606503207CBD8D
:104BE000164800681821B0FBF1F01549B0FBF1F050
:104BF0004FF47A71484301906068B0F5827F0DD11F
:104C00003346002280212046009500F01BF898B121
:104C1000606D40F0200060650320E0E700BF019870
:104C200000B908E00198401E019020688068C0F338
:104C3000C0100028F3D100BF0020D0E714000020EE
:104C400040420F002DE9F84F04460D4690461E469F
:104C5000DDF82890FCF7F0FEA0EB0900371AFCF70E
:104C6000EBFE82462C480068C0F3CB3078430090BE
:104C700045E0701C002842D0FCF7DEFEA0EB0A00E5
:104C8000B84200D2A7BB2068406820F0E00021684D
:104C900048606068B0F5827F0DD1A068B0F5004F24
:104CA00003D0A068B0F5806F05D12068006820F0BF
:104CB000400021680860A06AB0F5005F0DD100BF18
:104CC0002068006820F400502168086020680068AF
:104CD00040F400502168086000BF012084F85100B2
:104CE00000BF002084F8500000BF0320BDE8F88F0B
:104CF000FFE7009800B900270098401E0090206848
:104D000080682840A84201D1012000E000204045F1
:104D1000AFD10020EAE700001400002070B504467F
:104D20000D462A4621460648FDF7B0FD06460120FD
:104D3000FBF700FF0248FDF749FB304670BD00005D
:104D40003405002001B501216846FFF7E7FF08BDE3
:104D5000014602480160002070470000B0000020BA
:104D600003A000F019FC00BF012002F049FFFBE79F
:104D7000537461727444656661756C745461736BCD
:104D80000D0A000010B54FF0E020006905F034FD79
:104D9000012801D005F004F810BD000000B593B063
:104DA000302107A8FBF7C9FA142102A8FBF7C5FABE
:104DB00000BF002001902448006840F08050224944
:104DC00008600846006800F08050019000BF00BFF6
:104DD00000BF002001901D48006840F480401B493E
:104DE00008600846006800F48040019000BF00BFE2
:104DF000012007900004089002200D9041050E91BB
:104E000004210F91A82110910221119104211291E6
:104E100007A8FDF78DF808B1FBF7E0FE0F20029020
:104E200002200390002004904FF4A05005904FF40E
:104E300080500690052102A8FCF718FF08B1FBF787
:104E4000CDFE13B000BD00004038024000700040AD
:104E50000348006840F47000014908607047000092
:104E600088ED00E010B50248FDF7ADFE10BD000072
:104E70006C07002010B50248FDF7A5FE10BD00002C
:104E80009406002010B502682D4B98420ED0B0F168
:104E9000804F0BD02B4B984208D02B4B984205D01B
:104EA0002A4B984202D02A4B984203D122F070023A
:104EB0004B681A43224B984220D0B0F1804F1DD04E
:104EC000204B98421AD0204B984217D01F4B984243
:104ED00014D01F4B984211D01E4B98420ED01E4B3F
:104EE00098420BD01D4B984208D01D4B984205D0DC
:104EF0001C4B984202D01C4B984203D122F44072C2
:104F0000CB681A4322F080034C6943EA0402026032
:104F10008B68C3620B688362094B984202D00C4BCA
:104F2000984201D10B69036301234361036903F0D4
:104F300001031BB1036923F00103036110BD0000ED
:104F4000000001400004004000080040000C004048
:104F5000000401400040014000440140004801407D
:104F600000180040001C00400020004030B50C46F6
:104F7000816821F47F4142EA03252543294381606A
:104F800030BD2DE9F04705460C464FF00009286872
:104F9000866826F070066068064326F007062068DB
:104FA000064328688660606800F00F0100293BD145
:104FB0000011082838D2DFE800F0333435360B27EB
:104FC0002D04D4E90313A2682868FFF7CFFF2EE071
:104FD0002068052802D10120BDE8F0872868D0F8B4
:104FE00020802868006A20F001002968086228688B
:104FF000876927F0F007206947EA0017286887616A
:105000002868C0F8208012E02269A168286800F0B2
:1050100011F80CE02269A168286800F01EF806E08B
:1050200000BF00BF00BF02E04FF0010900BF00BF9A
:105030004846D1E730B50B461446026A056A25F0AA
:1050400001050562816921F0F00141EA041122F0B5
:105050000A021A438161026230BD30B50B46144624
:10506000026A056A25F010050562816921F4704124
:1050700041EA043122F0A00242EA03128161026295
:1050800030BD70B50546AC6B0020E085E08420465D
:10509000FDF796FE70BD00BF00BF02680C3252E8FB
:1050A000002F22F4907102680C3242E80013002BAA
:1050B000F3D100BF00BF00BF0268143252E8002FD6
:1050C00022F001010268143242E80013002BF3D1F0
:1050D00000BF016B01290ED100BF00BF02680C3276
:1050E00052E8002F22F0100102680C3242E800134F
:1050F000002BF3D100BF202180F842100021016372
:10510000704710B504462068C06820F04000216850
:10511000C860202084F841002046FEF7BBF800203C
:1051200010BDF8B5044694F84200222875D1A06855
:10513000B0F5805F0CD1206950B90025A66A2068BF
:105140004068C0F308003080A06A801CA06215E0AF
:10515000A56A0026A068B0F5805F03D0A06828B9D2
:10516000206918B920684068287004E02068406809
:1051700000F07F002870A06A401CA062E08D401EF5
:1051800080B2E085002846D12068C06820F0200069
:105190002168C8602068C06820F480702168C860F9
:1051A0002068406920F0010021684861202084F8CF
:1051B000420000206063206B012826D1002020637C
:1051C00000BF00BF21680C3151E8001F21F0100022
:1051D00021680C3141E80002002AF3D100BF2068A9
:1051E000006800F0100010280AD100BF00200090D5
:1051F00020680068009020684068009000BF00BFF1
:10520000A18D2046FDF7DBFD02E02046FEF71AF8EF
:105210000020F8BD01E00020FBE70220F9E70000D4
:105220002DE9F84F04462068006920F44050E168F9
:105230000843216808612169A0680843616908433F
:10524000E169084300902068C06849F20C61884316
:10525000009908432168C8602068406920F44070C4
:10526000A16908432168486176492068884203D0D3
:1052700075492068884203D1FCF7F2FD814602E0BF
:10528000FCF7DEFD8146E069B0F5004F6CD10220ED
:105290006168A0FB015003461920A9FB007001467C
:1052A0002A463846FAF7ECFF6421B0FBF1F04FEAEA
:1052B000001A02206168A0FB01510B461920A9FBCE
:1052C00000712A463846FAF7DBFF83460220616800
:1052D000A0FB015003461920A9FB00712A4638465D
:1052E000FAF7CEFF6421B0FBF1F000EBC00101EB57
:1052F0000010ABEB8000322101EBC0006421B0FB59
:10530000F1F000F0F8000AEB400A02206168A0FB0F
:10531000015003461920A9FB007001462A46384671
:10532000FAF7AEFF834602206168A0FB01500346F6
:105330001920A9FB00712A463846FAF7A1FF64211B
:10534000B0FBF1F000EBC00101EB0010ABEB800013
:10535000322101EBC0006421B0FBF1F000F0070046
:105360005044216888606AE004206168A0FB015015
:1053700003461920A9FB007001462A463846FAF771
:105380007FFF824604206168A0FB0150034619207C
:10539000A9FB007001462A463846FAF771FF6421DE
:1053A000B0FBF1F000EBC00101EB0010AAEB8000B4
:1053B000322101EB00106421B0FBF1F000F0F00AA3
:1053C00004206168A0FB017003461920A9FB00516D
:1053D0003A462846FAF754FF6421B0FBF1F00AEB95
:1053E000001A04206168A0FB01510B461920A9FB9B
:1053F00000712A463846FAF743FF83460420616865
:10540000A0FB015003461920A9FB007001462A4663
:105410003846FAF735FF6421B0FBF1F000EBC0012C
:1054200001EB0010ABEB8000322101EB0010642196
:10543000B0FBF1F000F00F00504421688860BDE837
:10544000F88F00000010014000140140014691F85F
:105450004100212828D18868B0F5805F0BD1086908
:1054600048B90A6A1088C0F308000B685860086AD7
:10547000801C086205E00B6A581C086218780B68EB
:105480005860C88C401E80B2C88458B90868C0688B
:1054900020F080000B68D8600868C06840F04000C9
:1054A0000B68D860002070470220FCE710B500248C
:1054B0000748006800F0200030B105484068C4B2D9
:1054C0000449204603F031FD0348FDF77BFC10BD85
:1054D00000100140E4000020DC06002070B50D48FB
:1054E000006806680B480068C56806F0200070B1C7
:1054F00005F0200058B1074800684068C4B206496A
:10550000204603F012FD054802F06AFC70BD00BFA2
:10551000FCE700002407002088560020A800002097
:1055200070B504460D4609E00549204603F0E9FC44
:1055300000B970BD2946034802F040FCF4E70000C2
:1055400088560020A800002010B5024600200CE07C
:1055500000BF074B1B681B6803F08003002BF8D0CB
:10556000135C034C24686360401C8842F0DB10BD70
:105570002407002010B5054802F008FC034802F09B
:1055800015FC034803F0B9FC10BD0000A800002082
:105590008856002000BFFEE70FB4054B10B503A9E5
:1055A000044A029800F05AF810BC5DF814FB0000A1
:1055B000815B0008E00000200FB4084B10B504A97F
:1055C00002AA039800F04AF8044602A9002000F05D
:1055D00076FA204610BC5DF814FB0000BF5A0008A4
:1055E00002480068C0F30220704700000CED00E0A4
:1055F00010B5002804DB0A07130E054A135406E011
:105600000A07140E034A00F00F031B1FD45410BDE9
:1056100000E400E018ED00E0EFF30580704702E0E1
:1056200008C8121F08C1002AFAD17047704700202D
:1056300001E001C1121F002AFBD1704750600260D7
:1056400041600860704748600160704710B50446CB
:10565000D4E90010FFF7F7FF10BD00002DE9FF4F60
:105660008DB00F460546002606E025280BD0DDE963
:105670000F1290476D1C761C28780028F5D111B0C8
:105680003046BDE8F08F0024A246A1460122EC4935
:1056900000E0044315F8013F203B02FA03F0084202
:1056A000F7D128782A2810D06FF02F022878A0F19F
:1056B0003001092914D80AEB8A0102EB410144F0B8
:1056C000020400EB010A6D1CF0E701CF5FEA000A5B
:1056D00003D544F40054CAF1000A44F002046D1CDE
:1056E00028782E2817D115F8010F44F004042A2831
:1056F0000ED06FF02F022878A0F1300109290AD8C6
:1057000009EB890102EB410100EB01096D1CF2E795
:1057100057F8049B6D1C28786C280FD006DC4C28A9
:1057200017D068280DD06A2814D104E0742810D04E
:105730007A280FD10DE044F400140AE044F48014F8
:1057400001E044F440146978814202D104F58014E8
:105750006D1C6D1C2A786E2A1FD00CDC632A31D098
:1057600004DC002A8BD0582A11D1A3E0642A68D027
:10577000692A0CD165E0732A2ED004DC6F2A73D01D
:10578000702A04D19BE0752A6FD0782A6ED010461B
:10579000DDE90F129047761C50E1C4F30250022855
:1057A00006D0032809D0042801CF09D0066045E1BE
:1057B00001CFF117C0E9006140E101CF06803DE172
:1057C00006703BE117F8040B8DF8000000208DF8FF
:1057D0000100EB46012003E057F804BB4FF0FF3017
:1057E00061074FF0000102D40DE008F10101884685
:1057F00049450FDA8045F8DB1BF808100029F4D181
:1058000008E008F1010188468142FADB1BF8081024
:105810000029F6D1DDE90F23AAEB080081462146D5
:1058200000F036F9304400EB080604E0DDE90F1221
:105830001BF8010B9047B8F10108F7D22146484602
:10584000F7E00A21C4F302534FF0000B0891022B3A
:1058500004D001CFC117032B09D00AE0FF1D27F0A8
:105860000707F7E8020108E032E01FE020E000B29D
:10587000C117042B01D140B2C117031E71F10003FF
:1058800007DA4FF0000CD0EB0C006CEB01012D237C
:1058900002E0230504D52B238DF82430012303E0F7
:1058A000E30701D02023F7E7984658E00A2110E0EB
:1058B00010210EE010204FF0000B08900CE010219A
:1058C0004FF0000B44F004044FF00809089103E086
:1058D00008214FF0000B0891C4F30253022B04D0AF
:1058E00001CF0021032B06D006E0FF1D27F007079C
:1058F000F7E8020103E080B2042B00D1C0B24FF000
:10590000000823072BD5702A07D0DDF820C08CF0C3
:10591000100C5CEA0B0C05D00EE040238DF824300F
:10592000012308E050EA010306D030238DF824302B
:105930008DF8252002239846DDF820C08CF0080C55
:105940005CEA0B0C0BD150EA010301D1630706D5C9
:1059500030238DF824304FF00108A9F10109582AAD
:1059600004D038A20B9208AA0A920BE03AA2F9E7F7
:105970005B46089AFAF784FC0B9B9B5C0A9A521EC2
:105980000A92137050EA0102F2D10A98ADEB0000BE
:1059900000F1200B600702D524F4803401E04FF0C1
:1059A0000109D94502DDA9EB0B0000E0002000EB66
:1059B0000B0141440890AAEB010AE00306D4DDE99B
:1059C0000F232146504600F063F806444FF00009CB
:1059D00008E009A911F80900DDE90F12904709F163
:1059E0000109761CC145F4DBE0030CD5DDE90F238A
:1059F0002146504600F04CF8064404E0DDE90F1261
:105A000030209047761C0899481E08900029F5DC44
:105A100008E00A980A990078491C0A91DDE90F12FA
:105A20009047761CBBF10001ABF1010BF1DC214684
:105A30005046DDE90F2300F019F806446D1C1BE603
:105A40000928010030313233343536373839616254
:105A50006364656600000000303132333435363718
:105A60003839414243444546000000002DE9F041E9
:105A7000044600251E461746880404D405E039462E
:105A80002020B0476D1C641EF9D52846BDE8F08182
:105A90002DE9F041044600251E469046C80301D575
:105AA000302700E02027880404D505E04146384629
:105AB000B0476D1C641EF9D52846BDE8F0810A6820
:105AC000531C0B601070704710B50246002309E0AC
:105AD000064800680078107004480068401C034CB9
