:020000040800F2
:10000000A05400205D020008C93400081D2A000821
:10001000C53400082D050008893F000800000000D5
:100020000000000000000000000000009D0100082A
:100030005B06000800000000F9010008CD37000849
:1000400077020008770200087702000877020008AC
:10005000770200087702000877020008770200089C
:10006000770200087702000877020008770200088C
:10007000770200087702000877020008770200087C
:1000800077020008770200088D0300087702000855
:10009000770200087702000877020008770200085C
:1000A000770200087702000877020008770200084C
:1000B0007702000877020008AD38000877020008D0
:1000C000770200087702000877020008CD340008A4
:1000D00077020008F53E000877020008253F000877
:1000E000770200087702000877020008770200080C
:1000F00077020008770200087702000877020008FC
:1001000077020008770200087702000877020008EB
:10011000770200087702000877020008BD3800085F
:100120003105000877020008770200084105000841
:1001300077020008770200087702000877020008BB
:1001400077020008770200087702000877020008AB
:10015000770200087702000877020008770200089B
:10016000770200087702000877020008770200088B
:1001700077020008770200087702000800000000FC
:100180007702000877020008DFF80CD000F0ECF8E6
:100190000048004799440008A05400202C4B1968DF
:1001A0000868B0E8F04F80F30988BFF36F8F4FF015
:1001B000000080F3118870470000000008480068C4
:1001C000006880F308884FF0000080F3148862B65E
:1001D00061B6BFF34F8FBFF36F8F00DF00BF00BF6B
:1001E00008ED00E0DFF80C00016841F470010160E7
:1001F000704700BF88ED00E0EFF30980BFF36F8F19
:10020000134B1A681EF0100F08BF20ED108A20E96A
:10021000F04F106009B44FF0500080F31188BFF325
:100220004F8FBFF36F8F04F07FFD4FF0000080F31E
:10023000118809BC19680868B0E8F04F1EF0100F6B
:1002400008BFB0EC108A80F30988BFF36F8F704746
:1002500010000020EFF3058070470000064880473B
:1002600006480047FEE7FEE7FEE7FEE7FEE7FEE79B
:10027000FEE7FEE7FEE7FEE799380008890100087F
:100280002DE9F05F0546002092469B4688460646CB
:10029000814640241BE0284641464746224600F05E
:1002A00053F853465A46C01A914110D31146184686
:1002B000224600F03AF82D1A67EB01084F46224615
:1002C0000120002100F031F817EB00094E41201EFB
:1002D000A4F10104DFDC484631462A464346BDE826
:1002E000F09F40EA01039B0703D009E008C9121FF1
:1002F00008C0042AFAD203E011F8013B00F8013BE0
:10030000521EF9D27047D2B201E000F8012B491E0B
:10031000FBD270470022F6E710B513460A460446A2
:100320001946FFF7F0FF204610BD202A04DB203AD3
:1003300000FA02F1002070479140C2F1200320FA38
:1003400003F3194390407047202A04DB203A21FA36
:1003500002F00021704721FA02F3D040C2F12002DE
:100360009140084319467047064C074D06E0E06887
:1003700040F0010394E8070098471034AC42F6D3EC
:10038000FFF706FFB09D0008D09D000810B5024899
:1003900000F090FA10BD0000A004002055494A6802
:1003A00022F440324A604A6843681A434A6002684D
:1003B000526822F4807203685A60026853680269C6
:1003C00043EA022203685A600268526822F04072CF
:1003D00003685A600268526883681A4303685A6067
:1003E0000268926822F4006203689A600268926868
:1003F000C3681A4303689A603F4B826A9A4218D0D6
:100400000268926822F0706203689A6002689268DB
:10041000836A1A4303689A600268926822F0405225
:1004200003689A6002689268C36A1A4303689A6014
:100430000BE00268926822F0706203689A600268BA
:10044000926822F0405203689A600268926822F033
:10045000020203689A6002689368027E43EA4202DD
:1004600003689A602022125CA2B10268526842F4CA
:10047000006203685A600268526822F460420368AE
:100480005A6002685368426A521E43EA4232036865
:100490005A6005E00268526822F4006203685A60FC
:1004A0000268D26A22F470020368DA620268D36AD0
:1004B000828B521E43EA02520368DA620268926833
:1004C00022F4007203689A600268936890F8302002
:1004D00043EA422203689A600268926822F48062CA
:1004E00003689A6002689368426943EA822203685B
:1004F0009A607047002301400100000F10B50848C2
:1005000004F02AF8064804F037F8064804F024F806
:10051000044804F031F8044804F08AFA002010BDC1
:100520008C00002090000020344C002000BFFEE72B
:1005300010B5024800F058FB10BD00004005002037
:1005400010B5024800F050FB10BD0000A0050020CF
:100550000146087810381823B0FBF3F20848805C95
:10056000C865032A05D908686FF30900001D88656E
:1005700003E008686FF309008865886D7047000024
:10058000F4570008014600208A6A8B69CBB932B162
:10059000012A0DD0022A03D0032A10D10EE000BF99
:1005A000CB6A03F08073B3F1807F00D1012007E0B4
:1005B000CB6AB3F1C07F00D1012001E000E000BFB1
:1005C00034E08B69B3F5005F1AD132B1012A07D04C
:1005D000022A03D0032A11D10AE000BF01200EE055
:1005E000CB6A03F08073B3F1807F00D1012006E075
:1005F000CB6AB3F1C07F00D1012000E000BF15E05D
:1006000032B1012A05D0022A04D0032A0CD103E01A
:1006100000BF00BF012008E0CB6A03F08073B3F194
:10062000807F00D1012000E000BF00BF704730B5DF
:100630000468246824F4802405682C6004686360DE
:100640008468402C04D10468A2600468E16003E07F
:100650000468A1600468E26030BD704730B50446AC
:10066000002504E04FF47A7000F004F86D1CA542F8
:10067000F8DB30BDF0B504460F4A00231768FD6A69
:1006800004FB05F74FF47A7CB7FBFCF61768796A30
:100690000FE01768786A88420BD0884202D9471A5F
:1006A0003B4402E06F1A07443B440146B34200D387
:1006B00000E0EEE700BFF0BD2007002010B50122EA
:1006C0000021252000F038FE252000F021FE0448FE
:1006D0000068C06840F0600001490968C86010BD4A
:1006E0009006002010B500220F21272000F024FEE4
:1006F000272000F00DFE08480068006820F0200068
:1007000005490968086004480068C06840F0200096
:1007100001490968C86010BDD806002072B600BF44
:10072000FEE7704738B502460020009000BF92F8FF
:100730003C00012801D1022038BD012082F83C0094
:1007400000BF0868092816D91068C0680C780A3CF0
:1007500004EB44050724AC40A0431468E0600C7827
:100760000A3C04EB44048868A0401468E468204311
:100770001468E06013E0106800690C7804EB44052D
:100780000724AC40A043146820610C7804EB4404B7
:100790008868A04014682469204314682061486870
:1007A000072817D21068406B0C79641E04EB84058F
:1007B0001F24AC40A04314686063088880B20C79A1
:1007C000641E04EB8404A0401468646B2043146826
:1007D000606331E048680D2817D21068006B0C790F
:1007E000E41F04EB84051F24AC40A043146820637D
:1007F000088880B20C79E41F04EB8404A0401468DC
:10080000246B20431468206316E01068C06A0C79DA
:100810000D3C04EB84051F24AC40A0431468E06247
:10082000088880B20C790D3C04EB8404A040146865
:10083000E46A20431468E062194B1A4C1068A04225
:1008400006D10868122803D1586840F48000586027
:10085000144C1068A0421CD10868102802D0086807
:10086000112816D1586840F4000058600868102814
:100870000FD10D4800680D4CB0FBF4F000EB800088
:100880004000009002E00098401E00900098002870
:10089000F9D100BF002082F83C0000BF00BF4BE749
:1008A00000230140002001400C00002040420F00C6
:1008B000704770472DE9F041044600250026206866
:1008C00007682068D0F8048007F0020508F02006C9
:1008D00095B38EB3206C00F0100018B9206C40F472
:1008E000007020642068806800F04050E8B9207EE5
:1008F000D8B92068C06A00F4700020B12068806810
:1009000000F4806088B92068406820F020002168E9
:100910004860206C20F480702064206C00F48050CB
:1009200018B9206C40F0010020642046FFF7C0FF9A
:100930006FF012002168086007F0040508F08006D7
:10094000E5B3DEB3206C00F0100018B9206C40F461
:10095000005020642068806800F4401038BB206894
:10096000806B00F4401020B12068806800F4806043
:10097000E8B92068406800F48060C0B920688068E9
:1009800000F0405098B9207E88B92068406820F077
:10099000800021684860206C20F480502064206C26
:1009A00000F4807018B9206C40F0010020642046EB
:1009B000FFF7B7FE6FF00C002168086007F0010533
:1009C00008F0400685B17EB12068006800F00100A3
:1009D00050B1206C40F480302064204600F050F884
:1009E0006FF001002168086007F0200508F08066BC
:1009F0007DB176B1606C40F0020060646FF0200061
:100A0000216808602046FFF754FF6FF0200021683E
:100A10000860BDE8F081000070B5044600250CB9FF
:100A2000012070BD1549A06A884200D000BF206C2B
:100A300030B9204600F026F80020606484F83C00BD
:100A4000206C00F0100088B9206C20F4885040F031
:100A5000020020642046FFF7A1FC00206064206CA7
:100A600020F0020040F00100206400E0012500BFFA
:100A7000002084F83C0000BF2846D2E70100000FA8
:100A80007047000010B586B00446142101A8FFF796
:100A900041FC1D492068884233D100BF00200090EE
:100AA0001A48006840F480701849086008460068D9
:100AB00000F48070009000BF00BF00BF00200090D5
:100AC00012481438006840F00100104914390860D9
:100AD0000846006800F00100009000BF00BF02203F
:100AE0000190032002900020039001A9084800F023
:100AF0005BFA00220521122000F01EFC122000F0FB
:100B000007FC06B010BD0000002001404438024040
:100B10000000024070B50446A56D00F045FB064696
:100B200094F83500022808D08020606500BF0020BE
:100B300084F8340000BF012070BD2068006820F0F8
:100B40001600216808602068406920F08000216854
:100B50004861206C08B9A06C28B12068006820F0BA
:100B60000800216808602068006820F00100216802
:100B7000086010E000F018FB801B05280BD920202E
:100B80006065032084F8350000BF002084F834003D
:100B900000BF0320D0E72068006800F001000028B3
:100BA000E8D194F85C103F208840A860012084F8C8
:100BB000350000BF002084F8340000BF00BFBBE751
:100BC000014691F83500022803D0802048650120B5
:100BD0007047052081F835000868006820F00100A2
:100BE0000A6810600020F3E7F8B504460020009082
:100BF0008C4800684FF41651B0FBF1F7A56D2E68D4
:100C000094F85C1008208840304098B12068006853
:100C100000F0040070B12068006820F00400216832
:100C2000086094F85C1008208840A860606D40F06F
:100C30000100606594F85C1001208840304068B184
:100C40002068406900F0800040B194F85C100120F9
:100C50008840A860606D40F00200606594F85C1008
:100C600004208840304068B12068006800F002002D
:100C700040B194F85C1004208840A860606D40F09A
:100C80000400606594F85C1010208840304078B310
:100C90002068006800F0080050B394F85C10102041
:100CA0008840A8602068006800F4802080B1206837
:100CB000006800F4002028B9206CC8B12046216CDF
:100CC000884715E0A06C98B12046A16C88470FE0DA
:100CD0002068006800F4807028B92068006820F05F
:100CE000080021680860206C10B12046216C8847FC
:100CF00094F85C10202088403040002865D020689F
:100D0000006800F0100000285FD094F85C102020EC
:100D10008840A86094F83500052828D1206800682C
:100D200020F01600216808602068406920F08000EB
:100D300021684861206C08B9A06C28B1206800685F
:100D400020F008002168086094F85C103F2088407B
:100D5000A860012084F8350000BF002084F834002A
:100D600000BF206D10B12046216D8847F8BD206876
:100D7000006800F4802080B12068006800F4002042
:100D800028B9606C10B12046616C88471DE0E06BAB
:100D9000D8B12046E16B884717E02068006800F46E
:100DA000807068B92068006820F010002168086031
:100DB000012084F8350000BF002084F8340000BF13
:100DC000E06B10B12046E16B8847606D38B3606D11
:100DD00000F00100F0B1052084F8350020680068BB
:100DE00020F001002168086000BF0098401C0090BE
:100DF000B84200D905E02068006800F00100002832
:100E0000F3D100BF012084F8350000BF002084F832
:100E1000340000BFE06C10B12046E16C884700BF91
:100E2000A4E700000C0000202DE9F0410446002555
:100E300000F0BAF9074614B90120BDE8F081606AF4
:100E400000B100BF022084F8350000BF002084F804
:100E5000340000BF2068006820F0010021680860AD
:100E60000AE000F0A1F9C01B052805D92020606523
:100E7000032084F83500E0E72068006800F00100F6
:100E80000028EED12068056821480540D4E9010119
:100E90000843E16808432169084361690843A1697F
:100EA0000843E1690843216A08430543606A04284E
:100EB00003D1D4E90B01084305432068056020688D
:100EC000456925F00705606A0543606A04280DD16D
:100ED000A06A0543E06A48B12046FFF753FB28B1FA
:100EE00040206065012084F83500A6E72068456150
:100EF0002046FFF72DFB064694F85C103F20884003
:100F0000B06000206065012084F83500002094E77F
:100F10003F8010F02DE9F04704460D4616461F4667
:100F20004FF00008D4F8589000BF94F8340001281E
:100F300002D10220BDE8F087012084F8340000BF10
:100F400094F83500012825D1022084F835000020CE
:100F500060653B46324629462046FFF768FB94F819
:100F60005C103F208840C9F808002068006840F005
:100F7000160021680860206C28B12068006840F0E5
:100F80000800216808602068006840F001002168BE
:100F9000086006E000BF002084F8340000BF4FF076
:100FA00002084046C6E70000F8B502460B46002599
:100FB000002400200021D6E0012606FA01F51E6873
:100FC00006EA0504AC4274D11E7906F00306012E30
:100FD00004D01E7906F00306022E13D190684F004C
:100FE0000326BE40B0434F00DE68BE4030439060F1
:100FF000506801268E40B0431E79C6F300168E401D
:10100000304350601E7906F00306032E09D0D068E5
:101010004F000326BE40B0434F009E68BE403043A1
:10102000D0601E7906F00306022E13D1CF0802F11C
:10103000200656F827004E07F70E0F26BE40B04395
:101040004F07FF0E1E69BE403043CF0802F1200655
:1010500046F8270010684F000326BE40B0431E79B3
:1010600006F003064F00BE40304310605E6806F491
:101070004036002E76D000BF002600963C4E3668E3
:1010800046F480463A4F3E603E46366806F4804657
:10109000009600BF00BF374E8F0856F827008E0716
:1010A000370F0F26BE40B043334EB24202D1002666
:1010B00024E057E0314EB24201D101261EE0304E0D
:1010C000B24201D1022619E02E4EB24201D10326CE
:1010D00014E02D4EB24201D104260FE02B4EB24255
:1010E00001D105260AE02A4EB24201D1062605E0CA
:1010F000284EB24201D1072600E008268F073F0F95
:10110000BE4030431B4E8F0846F82700224E306801
:10111000A0435E6806F4801606B120431E4E306080
:10112000361D3068A0435E6806F4001606B1204301
:10113000194E361D3060184E361F3068A0435E6869
:1011400006F4003606B12043134E361F3060361FBA
:101150003068A0435E6806F4803606B120430E4E28
:10116000083E3060491C1029FFF426AFF8BD00008E
:1011700044380240083801400000024000040240A8
:1011800000080240000C024000100240001402401F
:1011900000180240001C0240083C01400AB1816175
:1011A00001E00B048361704701480068704700004C
:1011B00000000020034800680349097808440149F9
:1011C00008607047000000200800002010B50D489E
:1011D000006840F400700B4908600846006840F45D
:1011E000806008600846006840F480700860032052
:1011F00000F0E0F80F2000F007F800F05FF80020A2
:1012000010BD0000003C02402DE9F04188B00446CA
:101210000027B84600BF002001902348006840F036
:101220000400214908600846006800F004000190AD
:1012300000BF00BF02A903A800F092F9069F1FB9E2
:1012400000F0B6F9054602E000F0B2F94500174893
:10125000B5FBF0F0A0F1010815481649086040F20E
:10126000E7311448C160C0F8048000210161816049
:10127000816100F09DFF064696B90E4801F006F820
:1012800006466EB91E2000F043F8102C07D200224B
:1012900021461E2000F050F80748046000E00126B7
:1012A000304608B0BDE8F0814038024040420F00AF
:1012B00000080040200700200400002008B500BFFF
:1012C000002000901148006840F480400F490860F9
:1012D0000846006800F48040009000BF00BF00BFD7
:1012E00000200090081F006840F08050091F08602F
:1012F0000846006800F08050009000BF00BF002248
:101300000F21901E00F018F808BD0000443802407C
:101310000146084600280DDB00BF00BF00F01F0398
:1013200001229A4043099B0003F1E023C3F8002106
:1013300000BF00BF00BF70472DE9F05F80460D463B
:101340001646002702F032FE074639462A46334643
:1013500001F00700C0F1070ABAF1040F02D94FF0FB
:10136000040A01E0C0F1070AD14600F1040ABAF10B
:10137000070F02D24FF0000A01E0A0F1030AD446A1
:101380004FF0010A0AFA09FAAAF1010A0AEA020A66
:101390000AFA0CFA4FF0010B0BFA0CFBABF1010B44
:1013A0000BEA030B4AEA0B042146404602F006FE14
:1013B000BDE8F09F00BF00F00702064B19684FF62A
:1013C000FF031940044B0B4343EA0221014B196010
:1013D00000BF70470CED00E00000FA0570B5044650
:1013E0000D460CB9012070BD5848006800F0070098
:1013F000A84209D255490D700846006800F0070060
:10140000A84201D00120EEE7207800F00200022877
:101410001DD1207800F00400042805D14C48006854
:1014200040F4E0504A490860207800F0080008289D
:1014300005D14748006840F4604045490860444889
:10144000006820F0F000A168084341490860207856
:1014500000F00100A8B36068012807D13C480838B3
:101460000068C0F34040B8B90120BCE760680228BA
:1014700002D06068032807D1354808380068C0F3F7
:10148000406048B90120AEE7314808380068C0F331
:10149000400008B90120A6E72D48006820F00300AD
:1014A000616808432A490860FFF77EFE064609E0A6
:1014B000FFF77AFE801B41F28831884202D903206F
:1014C00091E707E02248006800F00C006168B0EB8B
:1014D000810FEDD11D48006800F00700A84209D92E
:1014E0001A490D700846006800F00700A84201D0B4
:1014F000012078E7207800F00400042807D1144880
:10150000006820F4E050E168084311490860207841
:1015100000F00800082808D10D48006820F4604059
:10152000216940EAC1000A49086000F061F80849F1
:101530000968C1F30311074A515CC84006490860B5
:1015400006480068FFF760FE00204CE7003C0240C0
:1015500008380240FC5700080C000020040000205E
:101560000F2202600D4A126802F0030242600B4A29
:10157000126802F0F0028260084A126802F4E05237
:10158000C260064A126802F46042D2080261044A4C
:10159000126802F007020A60704700000838024033
:1015A000003C024001480068704700000C00002029
:1015B00000B5FFF7F7FF04490968C1F38221034A28
:1015C000515CC84000BD0000083802400C580008BB
:1015D00000B5FFF7E7FF04490968C1F34231034A48
:1015E000515CC84000BD0000083802400C5800089B
:1015F0002DE9F047002400250026A1462548006873
:1016000000F00C0020B1042805D008283AD105E0EC
:10161000DFF8849039E0DFF8849036E01D48001F41
:10162000006800F03F041B48001F006800F48000C1
:1016300078B11A481749091F0968C1F38811A0FB3E
:1016400001700146224600233846FEF719FE054682
:101650000EE011480F49091F0968C1F38811A0FB6A
:1016600001700146224600233846FEF709FE054672
:101670000848001F0068C0F30140401C4600B5FB4D
:10168000F6F902E0DFF8109000BF00BF4846BDE861
:10169000F0870000083802400024F40000127A00AD
:1016A000F8B504460CB90120F8BD207800F001001F
:1016B000002874D0F948006800F00C0004280DD010
:1016C000F648006800F00C00082813D1F348001F0A
:1016D000006800F48000B0F5800F0BD1EF480838A7
:1016E0000068C0F34040002859D06068002856D1F7
:1016F0000120D9E700BF6068B0F5803F08D1E74816
:101700000838006840F48030E449083908601EE079
:101710006068B0F5A02F0DD1E0480838006840F4AB
:101720008020DE49083908600846006840F48030AF
:1017300008600CE0D9480838006820F48030D749A8
:10174000083908600846006820F48020086000BF5F
:10175000606890B1FFF728FD054606E0FFF724FD1D
:10176000401B642801D903209EE7CC480838006854
:10177000C0F340400028F1D011E0FFF715FD054609
:1017800006E0FFF711FD401B642801D903208BE719
:10179000C24808380068C0F340400028F1D12078E2
:1017A00000F0020002285FD1BC48006800F00C0085
:1017B00058B1BA48006800F00C0008281CD1B7489E
:1017C000001F006800F48000B0B9B4480838006811
:1017D000C0F3400020B1E068012801D0012063E798
:1017E000AE480838006820F0F800216940EAC100DE
:1017F000AA490839086037E0E06800B30120A84929
:101800000860FFF7D1FC054606E0FFF7CDFC401B62
:10181000022801D9032047E7A04808380068C0F330
:1018200040000028F1D09D480838006820F0F800FA
:10183000216940EAC10099490839086014E0002094
:1018400097490860FFF7B0FC054606E0FFF7ACFCDF
:10185000401B022801D9032026E790480838006879
:10186000C0F340000028F1D1207800F008000828DB
:101870002CD16069A8B101208A490860FFF794FC67
:10188000054606E0FFF790FC401B022801D9032023
:101890000AE782486C300068C0F340000028F1D0AD
:1018A00014E000207F490860FFF77EFC054606E053
:1018B000FFF77AFC401B022801D90320F4E67748A1
:1018C0006C300068C0F340000028F1D1207800F0AF
:1018D0000400042870D1002770483830006800F0F8
:1018E000805090B900BF002000906C4838300068EC
:1018F00040F080506949383108600846006800F0BF
:101900008050009000BF00BF01276748006800F4C6
:101910008070B0B96448006840F480706249086023
:10192000FFF742FC054606E0FFF73EFC401B02289D
:1019300001D90320B8E65C48006800F480700028F4
:10194000F2D000BFA068012808D154486830006870
:1019500040F001005149683108601DE0A068052889
:101960000DD14E486830006840F004004B496831A2
:1019700008600846006840F0010008600CE0474835
:101980006830006820F0010044496831086008466A
:10199000006820F00400086000BFA068A8B1FFF74D
:1019A00003FC054609E0FFF7FFFB401B41F28831CD
:1019B000884202D9032077E626E03848683000687C
:1019C000C0F340000028EED013E0FFF7EDFB054622
:1019D00008E0FFF7E9FB401B41F28831884201D95A
:1019E000032061E62D4868300068C0F340000028FD
:1019F000EFD1012F07D129483830006820F08050FE
:101A000026493831086000BFA069002845D0234826
:101A1000006800F00C0008285DD0A069022845D1BC
:101A200000201F490866FFF7BFFB054606E0FFF7E9
:101A3000BBFB401B022801D9032035E617480838B4
:101A40000068C0F340600028F1D1D4E907010843E1
:101A5000616A40EA81110122A06AC2EB500041EAAA
:101A600000412C20005D41EA00600C49091F08601C
:101A700001200B490866FFF797FB054606E0FFF7D4
:101A800093FB401B022801D903200DE603480838C8
:101A90000068C0F340600028F1D049E008380240F7
:101AA00000004742800E474200700040002021495C
:101AB0000866FFF779FB054606E0FFF775FB401B5C
:101AC000022801D90320EFE51B480068C0F34060FD
:101AD0000028F2D12CE0A069012800D1E4E51648E5
:101AE000001D0668A069012820D006F48001E06985
:101AF00081421BD106F03F01206A814216D147F690
:101B0000C0703040616AB0EB811F0FD106F44031E4
:101B10000122A06AC2EB5000B1EB004F06D106F0E3
:101B200070612C20005DB1EB006F01D00120BBE59E
:101B30000020B9E500004742003802403EB50446A7
:101B40000025574800681821B0FBF1F04FF47A7176
:101B5000B0FBF1F0642148430190019802902068A5
:101B6000406820F02000216848602068406800F04C
:101B70008000802813D14B48606400BF029820B9D0
:101B8000606D40F04000606506E00298401E0290E3
:101B900094F851000728F1D100BF01980290206805
:101BA000406800F04000402813D13F48206400BF47
:101BB000029820B9606D40F04000606506E0029830
:101BC000401E029094F851000728F1D100BF0198FF
:101BD00002902068406800F00200022822D1A06C28
:101BE00000B30020A16C0865A06CFEF793FF08B15C
:101BF000402060652068406820F00200216848604D
:101C000000BF029820B9606D40F04000606508E0B8
:101C10000298401E02902068806800F002000028B0
:101C2000EFD000BF2068406800F00100B0B1E06C68
:101C3000A0B10020E16C0865E06CFEF76BFF08B115
:101C4000402060652068006820F04000216808603E
:101C50002068406820F00100216848600020E0878B
:101C6000E086606D402801D1012501E0002060651B
:101C700000BF002000902068C06800902068806845
:101C8000009000BF00BF00BF002000902068806867
:101C9000009000BF00BF012084F8510028463EBDDF
:101CA0000C0000204D350008DD34000870470000AE
:101CB000F8B504462068466820688568C5F380103A
:101CC00048B905F0010030B1C6F3801018B12046C4
:101CD000216C8847F8BDC5F3400030B1C6F3C01091
:101CE00018B12046616C8847F4E7C5F3401030B95D
:101CF000C5F3801018B9C5F3002000287CD0C6F3C6
:101D0000401000287DD0C5F38010F0B194F8510048
:101D100003280ED0606D40F00400606500BF002015
:101D200000902068C068009020688068009000BF24
:101D30000BE000BF002000902068C0680090206881
:101D40008068009000BF00BFC4E7C5F3401088B1B1
:101D5000606D40F00100606500BF002000902068C9
:101D6000806800902068006820F0400021680860CA
:101D700000BF00BFC5F3002058B1606D40F00800FF
:101D8000606500BF0020009020688068009000BF60
:101D900000BF606D78B32068406820F0E0002168E3
:101DA0004860012084F8510006F00200022802D0A9
:101DB00006F0010008B32068406820F003002168A5
:101DC0004860E06C50B11048E16C0865E06CFEF7CB
:101DD000F7FE18B1606D40F040006065A06C50B136
:101DE0000948A16C0865A06CFEF7EAFE18B1606DA9
:101DF00040F04000606503E003E02046FFF756FF37
:101E000068E700BF66E700006D35000810B50446BE
:101E10000CB9012010BD606A38B96068B0F5827FE6
:101E200000D105E00021E16102E000212161616152
:101E30000021A16294F8510028B9002084F85000D4
:101E4000204600F047F8022084F85100206800681E
:101E500020F0400021680860A08800F48270218989
:101E600001F404410843A18901F400610843217C85
:101E700001F002010843217D01F001010843218B9B
:101E800001F400710843217F01F03801084320214B
:101E9000095D01F080010843218D01F400510843E0
:101EA000216808600421A06901EA104094F8241018
:101EB00001F010010843216848602068C06920F4DF
:101EC00000602168C86100206065012084F851002D
:101ED00000209FE710B586B00446142101A8FEF744
:101EE00019FA40492068884279D100BF002000904B
:101EF0003D48006840F480503B490860084600684F
:101F000000F48050009000BF00BF00BF0020009090
:101F100035481438006840F001003349143908602E
:101F20000846006800F00100009000BF00BFE020FC
:101F300001900220029000200390032004900520CD
:101F4000059001A92948FFF72FF829482949086079
:101F50004FF0C0604860002126488160C1604FF4A6
:101F600080610161002141618161C1614FF4803173
:101F7000016200214162FEF757FF08B1FEF7CEFB78
:101F800000BF1C48E064846300BF194848301A4908
:101F900008604FF0C0604860402117488160002110
:101FA000C1604FF480610161002141618161C161C3
:101FB0004FF48031016200214162FEF735FF08B124
:101FC000FEF7ACFB00BF0C48A064846300BF002296
:101FD00005212320FFF7B0F92320FFF799F906B078
:101FE00010BD0000003001404438024000000240B3
:101FF0001064024040050020A00500202DE9F041BA
:1020000004460E461546002700BF94F850000128EC
:1020100002D10220BDE8F081012084F8500000BF09
:1020200094F85100012801D0022755E006B10DB9FE
:10203000012751E0032084F85100002060652663E9
:10204000A586E586A06360642064A087E087A06819
:10205000B0F5004F0BD12068006820F040002168E7
:1020600008602068006840F48040216808601E48CD
:10207000A16C08641D48A16CC8631D48A16CC864AC
:102080000020A16C0865E38ED4F800C00CF10C02AE
:10209000216BA06CFEF73EFF28B1606D40F0100090
:1020A0006065012718E02068006800F040004028C3
:1020B00005D02068006840F0400021680860206872
:1020C000406840F02000216848602068406840F087
:1020D00002002168486000BF00BF002084F8500063
:1020E00000BF384696E70000A9350008B73500085C
:1020F00081350008704770477047704730B5024619
:102100000B4600BF92F83C00012801D1022030BDEF
:10211000012082F83C0000BF022082F83D001068D8
:1021200044681068816824F07004186804431068DB
:102130004460184D1068A8421BD01068B0F1804F61
:1021400017D0154D1068A84213D0144D1068A8423E
:102150000FD0134D1068A8420BD0124D1068A84242
:1021600007D0114D1068A84203D0104D1068A84246
:1021700005D121F080015868014310688160012079
:1021800082F83D0000BF002082F83C0000BF00BF85
:10219000BDE70000000001400004004000080040CE
:1021A000000C0040000401400040014000180040C5
:1021B00010B504460CB9012010BD94F83D0028B9B3
:1021C000002084F83C00204600F026F8022084F825
:1021D0003D00211D206801F079FB012084F84600B4
:1021E00000BF84F83E0001213F20015540200155E9
:1021F0004120015500BF00BF012084F84200432068
:102200000155442001554520015500BF012084F8A7
:102210003D000020D0E7000038B50446184920688A
:1022200088420FD100BF002000901648006840F09F
:102230000800144908600846006800F00800009093
:1022400000BF1BE010492068884217D100BF002062
:1022500000900C48006840F020000A4908600846D9
:10226000006800F02000009000BF00BF00220521A0
:102270003720FFF761F83720FFF74AF838BD000034
:10228000000C00404038024000140040014691F824
:102290003D00012801D001207047022081F83D0057
:1022A0000868C06840F001000B68D8601A4B0868E5
:1022B00098421BD00868B0F1804F17D0174B0868C0
:1022C000984213D0164B086898420FD0154B0868F7
:1022D00098420BD0144B0868984207D0134B0868FB
:1022E000984203D0124B086898420CD10868806865
:1022F00000F00702062A0CD00868006840F00100D0
:102300000B68186005E00868006840F001000B6881
:1023100018600020C0E700000000014000040040F9
:1023200000080040000C0040000401400040014053
:1023300000180040704770B504462068C5682068E2
:10234000066906F00200022819D105F002000228F1
:1023500015D1401F2168086101202077206880691D
:1023600000F0030018B12046FFF7E4FF05E0204627
:1023700000F097F8204600F095F80020207706F04E
:102380000400042819D105F00400042815D1C04325
:1023900021680861022020772068806900F440707D
:1023A00018B12046FFF7C6FF05E0204600F079F897
:1023B000204600F077F80020207706F00800082873
:1023C00019D105F00800082815D1C043216808611B
:1023D000042020772068C06900F0030018B120466F
:1023E000FFF7A8FF05E0204600F05BF8204600F06C
:1023F00059F80020207706F01000102819D105F0B8
:102400001000102815D1C0432168086108202077EA
:102410002068C06900F4407018B12046FFF78AFFB9
:1024200005E0204600F03DF8204600F03BF8002093
:10243000207706F0010048B105F0010030B16FF0DF
:10244000010021680861204600F02EF806F08000A7
:10245000802809D105F08000802805D1C04321687B
:1024600008612046FFF748FE06F04000402809D1E9
:1024700005F04000402805D1C0432168086120468E
:1024800000F054F806F02000202809D105F02000C3
:10249000202805D1C043216808612046FFF72DFEA2
:1024A00070BD70477047000010B5044603492068AE
:1024B000884201D1FEF77EFE10BD000000080040FA
:1024C00070B504460D4600BF94F83C00012801D1C8
:1024D000022070BD012084F83C0000BF022084F877
:1024E0003D002946204601F070FA48B1012084F8E9
:1024F0003D0000BF002084F83C0000BF0120E8E759
:102500002068C06820F040002168C8602068C0686A
:1025100020F480402168C860012084F83D0000BF9D
:10252000002084F83C0000BF00BFD2E7704770472E
:10253000704700002DE9F84F0446206805682068C0
:10254000C668206847694FF00009CA4605F00F09C0
:10255000B9F1000F0AD105F0200038B106F02000D3
:1025600020B1204601F001FBBDE8F88FB9F1000F62
:102570007CD007F0010018B906F49070002875D0DF
:1025800005F0010030B106F4807018B1606C40F0C5
:102590000100606405F0040030B107F0010018B1DB
:1025A000606C40F00200606405F0020030B107F09A
:1025B000010018B1606C40F00400606405F0080090
:1025C00048B106F0200010B907F0010018B1606CA6
:1025D00040F008006064606C002846D005F02000E0
:1025E00028B106F0200010B1204601F0BEFA2068A4
:1025F0004069C0F3801A606C00F0080010B9BAF1AD
:10260000000F2DD0204601F06AFA2068406900F0E2
:102610004000402820D100BF00BF2168143151E89C
:10262000001F21F040002168143141E80002002A17
:10263000F3D100BFE06B50B17748E16B0865E06B08
:10264000FEF7BEFA88B1E06B016D88470DE02046C9
:10265000FFF76EFF09E009E02046FFF769FF04E09D
:102660002046FFF765FF002060647DE7206B0128AE
:1026700078D105F01000002874D006F01000002872
:10268000FAD000BF00200090206800680090206809
:102690004068009000BF00BF2068406900F0400023
:1026A000402860D1E06B006840681FFA80F8B8F1FC
:1026B000000F56D0A08D404553DDA4F82E80E06B6E
:1026C000C069B0F5807F43D000BF00BF21680C31E6
:1026D00051E8001F21F4807021680C3141E80002AC
:1026E000002AF3D100BF00BF00BF2168143151E8B8
:1026F000001F21F001002168143141E80002002A86
:10270000F3D100BF00BF00BF2168143151E8001FA2
:1027100021F040002168143141E80002002AF3D181
:1027200000BF202084F842000020206300BF00BFCB
:1027300021680C3151E8001F21F0100021680C3194
:1027400041E80002002AF3D100BFE06BFEF7E2F996
:1027500002206063A08DE28D801A81B22046FFF7CF
:10276000E6FE01E742E0A08DE18D401A1FFA80F8F5
:10277000E08DD0B3B8F1000F37D000BF00BF2168A3
:102780000C3151E8001F21F4907021680C3141E8B0
:102790000002002AF3D100BF00BF00BF216814313E
:1027A00051E8001F21F001002168143141E80002C6
:1027B000002AF3D100BF202084F8420000202063CB
:1027C00000BF00BF21680C3151E8001F21F010004C
:1027D00021680C3141E80002002AF3D100BF022039
:1027E000606341462046FFF7A2FEBDE605F080008B
:1027F00030B106F0800018B1204601F04BFBB3E683
:1028000005F0400030B106F0400018B1204601F05C
:102810009CF9A9E600BFA7E6CB3A000810B504462C
:102820000CB9012010BDA06900B100E000BF94F810
:10283000410028B9002084F84000204600F02AF822
:10284000242084F841002068C06820F400502168EA
:10285000C860204601F008FA2068006920F4904022
:10286000216808612068406920F02A0021684861D9
:102870002068C06840F400502168C860002060648F
:10288000202084F8410084F842000020606300BFEB
:10289000C8E7000010B586B00446142101A8FDF772
:1028A00039FD3F492068884239D100BF002000909F
:1028B0003C48006840F010003A490860084600684B
:1028C00000F01000009000BF00BF00BF002000908B
:1028D00034481438006840F0010032491439086067
:1028E0000846006800F00100009000BF00BF4FF4F0
:1028F000C060019002200290002003900320049009
:102900000720059001A92848FEF74EFB002205216B
:102910002520FEF711FD2520FEF7FAFC3EE02349B5
:10292000206888423AD100BF002000901D48001F57
:10293000006840F480201B49091F086008460068B1
:1029400000F48020009000BF00BF00BF0020009076
:1029500014481438006840F0020012491439086025
:102960000846006800F00200009000BF00BF4FF46E
:102970004060019002200290002003900320049008
:102980000720059001A90A48FEF70EFB0022052149
:102990002720FEF7D1FC2720FEF7BAFC06B010BDB9
:1029A000001001404438024000000240004800404E
:1029B00000040240034A0168914202D10121024A07
:1029C00011707047001001407D00002010B50346D3
:1029D00093F84100202813D101B10AB9012010BD9C
:1029E00019629A84DA8400205864212083F8410017
:1029F0001868C06840F080001C68E0600020EEE7C6
:102A00000220ECE7034A0168914202D10121024A07
:102A100011707047001001407C00002000BFFEE7ED
:102A20002DE9F04104460D4616461F462A2000F0C7
:102A300077FBA11C88B200F063FBB11C88B200F0E8
:102A40005FFB2B2000F06CFB691C88B200F058FB88
:102A5000791C88B200F054FB2C2000F061FBBDE82B
:102A6000F08170B504460D4616462B46224629468F
:102A70002046FFF7D5FF304600F042FB70BD000056
:102A80002DE9F04706460F4614461D46DDF8208026
:102A9000A01BE91B48431FFA80FA681E83B2601E20
:102AA00082B239463046FFF7BBFF002210211048A2
:102AB000FEF774FB012210210E48FEF76FFB4FF06A
:102AC00000090BE04FEA282000F07AFE08F0FF0032
:102AD00000F076FE09F101001FFA80F9D145F1DB23
:102AE000012210210248FEF759FBBDE8F0870000E3
:102AF000000002400008024010B5002210217C486E
:102B0000FEF74CFB6420FDF7A9FD01221021784857
:102B1000FEF744FB6420FDF7A1FD0122202174484B
:102B2000FEF73CFB3220FDF799FD112000F0F8FA8A
:102B30003220FDF793FDB12000F0F2FA052000F0FD
:102B4000E8FA3C2000F0E5FA3C2000F0E2FAB2207E
:102B500000F0E6FA052000F0DCFA3C2000F0D9FA9B
:102B60003C2000F0D6FAB32000F0DAFA052000F09D
:102B7000D0FA3C2000F0CDFA3C2000F0CAFA052043
:102B800000F0C7FA3C2000F0C4FA3C2000F0C1FA83
:102B9000B42000F0C5FA032000F0BBFAC02000F01A
:102BA000BFFA282000F0B5FA082000F0B2FA04209D
:102BB00000F0AFFAC12000F0B3FAC02000F0A9FA8B
:102BC000C22000F0ADFA0D2000F0A3FA002000F0C2
:102BD000A0FAC32000F0A4FA8D2000F09AFA2A206F
:102BE00000F097FAC42000F09BFA8D2000F091FAD3
:102BF000EE2000F08EFAC52000F092FA1A2000F0C4
:102C000088FA362000F08CFAC02000F082FAE0202A
:102C100000F086FA042000F07CFA222000F079FA15
:102C2000072000F076FA0A2000F073FA2E2000F058
:102C300070FA302000F06DFA252000F06AFA2A20A0
:102C400000F067FA282000F064FA262000F061FA0C
:102C50002E2000F05EFA3A2000F05BFA002000F02F
:102C600058FA012000F055FA032000F052FA132020
:102C700000F04FFAE12000F053FA042000F049FA86
:102C8000162000F046FA062000F043FA0D2000F06E
:102C900040FA2D2000F03DFA262000F03AFA2320D9
:102CA00000F037FA272000F034FA272000F031FA3C
:102CB000252000F02EFA2D2000F02BFA3B2000F00A
:102CC00028FA002000F025FA012000F022FA042062
:102CD00000F01FFA132000F01CFA3A2000F020FA4E
:102CE000052000F016FA292000F01AFA10BD0000A5
:102CF000000802402DE9FF5F80468A4617469B4642
:102D00000F9D00200290CDF80080284605EBD07181
:102D1000C1F347042046E21704EB5272D210214659
:102D2000E31704EB5373DB10A4EBC3030BB10123D4
:102D300000E000231A446A4392B20192A7F12000F6
:102D4000C7B20AEB0500401E83B208EB0400401E28
:102D500082B251464046FFF763FE002669E00C2D23
:102D600007D107EB4700354901EB8000805D0390F8
:102D70001BE0102D05D1324800EB0710805D039059
:102D800013E0182D07D107EB47002E4901EB001087
:102D9000805D039009E0202D05D12B4800EB8710C2
:102DA000805D039001E0BDE8FF9F4FF000093AE02D
:102DB0001098C8B9012000FA09F00399084018B129
:102DC000584600F09DF902E00E9800F099F902983B
:102DD000401CC0B20290029890FBF4F104FB110079
:102DE000E8B90020029021E0012000FA09F00399DF
:102DF000084020B15A4651464046FFF732FE08F1DE
:102E000001001FFA80F80098A8EB0000A04206D14C
:102E1000DDF800800AF101001FFA80FA06E009F1EE
:102E2000010000F0FF09B9F1080FC1DB00BF701C01
:102E300086B20198864292DB00BFB4E714580008BE
:102E4000885C000878620008487400082DE9FF4F8C
:102E50002DED020B2DED028B83B00746B0EE408ABC
:102E60001446DDE91486304606EBD071C1F3470AFB
:102E70009FED220A28EE000ABCEEC00A10EE100AEE
:102E80001FFA80FB002530E0601B401EC1B20A2003
:102E900001F040FBBBFBF0F00A21B0FBF1F201FBBB
:102EA0001209A01EA84210D10020A11E01FB0A7128
:102EB000CDE90086029088B22E220A9B0899FFF77E
:102EC00019FF681CC5B2601CC4B2002009F13001B2
:102ED000CAB205FB0A71CDE90086029088B20A9B4E
:102EE0000899FFF707FF681CC5B2A542CCDB03B009
:102EF000BDEC028B06B0BDE8F08F00000000C842B8
:102F00002DE9FF4F85B0074691461D46DDE913A622
:102F100000200490304606EBD071C1F3470B00242B
:102F200034E0281B401EC1B20A2001F0F3FAB9FBBD
:102F3000F0F00A21B0FBF1F201FB12080498A0B9ED
:102F4000681EA04211DDB8F1000F0CD1002004FB77
:102F50000B71CDE900A6029088B22022129B06993F
:102F6000FFF7C8FE10E001200490002008F13001B6
:102F7000CAB204FB0B71CDE900A6029088B2129B85
:102F80000699FFF7B7FE00BF601CC4B2AC42C8DBB5
:102F900009B0BDE8F08F00002DE9F84F07468846DC
:102FA00015461E46DDF8289005FB06F080B200901D
:102FB00008EB0600401E83B27819401E82B24146DB
:102FC0003846FFF72DFD002210210D48FEF7E6F8E8
:102FD00000240AE019F814B06000401C19F800A0A1
:102FE0004BEA0A2000F08CF8641C00988442F1DB64
:102FF000012210210248FEF7D1F8BDE8F88F000049
:10300000000002402DE9FE4F06460F461446984642
:10301000DDE90D5ADDF8309010E0CDE9015ACDF828
:1030200000902278434639463046FFF763FE284633
:1030300005EBD07106EB61018EB2641C207800288C
:10304000EBD1BDE8FE8F00000EB5002010214FF639
:10305000FF724FF47843CDE90021029022A21E2195
:103060001820FFF7CFFF10204FF6FF714FF4784282
:103070000323CDE90021029080221E214820FFF782
:103080003FFF002010214FF6FF721F23CDE90021E2
:10309000029017A232211820FFF7B4FF10204FF63C
:1030A000FF714FF478420323CDE900210290A02262
:1030B00032214820FFF724FF10204FF6FF714FF414
:1030C000784304229FED0C0ACDE900105021142012
:1030D000FFF7BCFE094828231A46502100904120E2
:1030E000FFF75AFF0EBD00004C43445F573A000003
:1030F0004C43445F483A0000F6289C3F309100085A
:1031000010B50446201200F01DF8E0B200F01AF8E5
:1031100010BD10B50446204600F014F810BD0000A4
:1031200010B50446002201210548FEF737F8204675
:1031300000F008F8012211460148FEF72FF810BDF3
:103140000004024010B50446002210210548FEF795
:1031500025F8204600F034FB012210210148FEF73B
:103160001DF810BD000002401FB500200090019026
:10317000029003901548164908604FF4803048606B
:103180000021134881600161017680F82010C1623E
:10319000104981620021C1600121C161002180F8D4
:1031A000301001214161FDF737FC08B1FDF7B6FA97
:1031B0000120009001900020029069460448FDF72C
:1031C000B1FA08B1FDF7AAFA1FBD000000200140C6
:1031D000A00400200100000F08B500BF00200090EF
:1031E0000E48006840F480000C49086008460068FA
:1031F00000F48000009000BF00BF002205213820AD
:10320000FEF79AF83820FEF783F8002205213B20CC
:10321000FEF792F83B20FEF77BF808BD30380240FD
:1032200000B587B0142102A8FDF774F800BF002094
:1032300001904648006840F0040044490860084690
:10324000006800F00400019000BF00BF00BF002034
:1032500001900846006840F0800008600846006859
:1032600000F08000019000BF00BF00BF002001906F
:103270000846006840F0010008600846006800F059
:103280000100019000BF00BF00BF00200190084670
:10329000006840F0020008600846006800F0020084
:1032A000019000BF00BF012210212948FDF776FFE1
:1032B000012230212748FDF771FF01220321264812
:1032C000FDF76CFF00224FF480512148FDF766FFA7
:1032D000102002900120039000200490012005900E
:1032E00002A91B48FDF760FE3020029001200390E8
:1032F000002004900120059002A91648FDF754FE15
:10330000012002900390002004900120059002A962
:103310001148FDF749FE0220029001200390002091
:1033200004900220059002A90B48FDF73DFE4FF4E2
:10333000805002900120039000200490059002A983
:103340000348FDF731FE07B000BD000030380240F1
:1033500000000240000802400004024010B50E4880
:103360000E4908604FF48270486000210B4881606C
:10337000C160016141614FF4007181611821C16137
:1033800000210162416281620A21C162FEF73EFDB5
:1033900008B1FDF7C3F910BD00300140E80400207A
:1033A00000B587B0142102A8FCF7B4FF00200090FC
:1033B0000190144814490860002048600021124818
:1033C0008160491EC160002101618161FEF7F0FE4C
:1033D00008B1FDF7A3F9072002900020039002A98D
:1033E0000948FFF76DF808B1FDF798F90020009043
:1033F000019069460448FEF781FE08B1FDF78EF999
:1034000007B000BD000C0040000600201CB50020E5
:10341000009001900D480E4908605320486000213B
:103420000B4881600121C16000218161FEF7C0FE6F
:1034300008B1FDF773F90020009001906946044837
:10344000FEF75CFE08B1FDF769F91CBD00140040F1
:103450004806002010B50B480B4908604FF4E130D6
:103460004860002108488160C16001610C21416110
:1034700000218161C161FFF7D1F908B1FDF74EF973
:1034800010BD0000001001409006002010B50B4850
:103490000B4908604FF4E130486000210848816022
:1034A000C16001610C21416100218161C161FFF7AF
:1034B000B5F908B1FDF732F910BD00000048004031
:1034C000D806002000BFFEE700BFFEE710B50248A7
:1034D000FEF7EEFB10BD0000E80400200CB5002153
:1034E0000191194909681822B1FBF2F14FF47A727F
:1034F000B1FBF2F164225143009100BF009921B960
:10350000416D41F04001416508E00099491E00917C
:103510000168896801F002010029EFD000BF01684D
:10352000096821F04001026811600168496821F0D2
:10353000E001026851600168C968019100BF07217C
:1035400080F851100CBD00000C0000200168496893
:1035500021F08001026851600168096821F0400192
:1035600002681160072180F85110704770B5054658
:10357000AC6B0020E087E0862046FEF797FB70BD2D
:1035800070B50546AC6B2068406820F003002168E8
:103590004860606D40F010006065012084F85100C3
:1035A0002046FEF783FB70BD70B50446A56B284628
:1035B000FEF7A1FD70BDF8B50546AC6BFDF7F4FD57
:1035C00006462868006800F48070B0F5807F2DD032
:1035D0002068406820F0200021684860206840682A
:1035E00020F002002168486032466421204600F045
:1035F00023F818B1606D40F020006065A06850B9F4
:1036000000BF002000902068C0680090206880689B
:10361000009000BF00BF0020E086012084F8510028
:10362000606D18B12046FEF741FBF8BD2046FEF75D
:1036300061FD00BFF9E700007CB504460E46154663
:103640003346012202212046009500F039F828B1C6
:10365000606D40F02000606503207CBD1648006866
:103660001821B0FBF1F01549B0FBF1F04FF47A717D
:10367000484301906068B0F5827F0DD13346002247
:1036800080212046009500F01BF898B1606D40F055
:10369000200060650320E0E700BF019800B908E062
:1036A0000198401E019020688068C0F3C010002877
:1036B000F3D100BF0020D0E70C00002040420F00F3
:1036C0002DE9F84F04460D4690461E46DDF8289039
:1036D000FDF76AFDA0EB0900371AFDF765FD82468C
:1036E0002C480068C0F3CB307843009045E0701C54
:1036F000002842D0FDF758FDA0EB0A00B84200D2E6
:10370000A7BB2068406820F0E0002168486060683E
:10371000B0F5827F0DD1A068B0F5004F03D0A0684E
:10372000B0F5806F05D12068006820F04000216866
:103730000860A06AB0F5005F0DD100BF2068006886
:1037400020F40050216808602068006840F40050B0
:103750002168086000BF012084F8510000BF0020EC
:1037600084F8500000BF0320BDE8F88FFFE7009801
:1037700000B900270098401E00902068806828400B
:10378000A84201D1012000E000204045AFD1002037
:10379000EAE700000C00002070B504460D462A46FA
:1037A00021460648FEF72AFC06460120FCF762FF88
:1037B0000248FEF7C3F9304670BD0000E80400205F
:1037C00001B501216846FFF7E7FF08BD10B54FF0CE
:1037D000E020006901F0EAFD012801D001F0ECFAD7
:1037E00010BD000000B593B0302107A8FCF792FD92
:1037F000142102A8FCF78EFD00BF00200190244890
:10380000006840F08050224908600846006800F0D7
:103810008050019000BF00BF00BF002001901D48F4
:10382000006840F480401B4908600846006800F4C6
:103830008040019000BF00BF012007900004089065
:1038400002200D9041050E9104210F91A8211091A5
:10385000022111910421129107A8FDF721FF08B15F
:10386000FCF75CFF0F2002900220039000200490E0
:103870004FF4A05005904FF480500690052102A807
:10388000FDF7ACFD08B1FCF749FF13B000BD000027
:1038900040380240007000400348006840F4700067
:1038A000014908607047000088ED00E010B502484B
:1038B000FEF741FD10BD00002007002010B50248B2
:1038C000FEF739FD10BD00004806002010B5026863
:1038D0002D4B98420ED0B0F1804F0BD02B4B98421D
:1038E00008D02B4B984205D02A4B984202D02A4B45
:1038F000984203D122F070024B681A43224B98423F
:1039000020D0B0F1804F1DD0204B98421AD0204BD0
:10391000984217D01F4B984214D01F4B984211D099
:103920001E4B98420ED01E4B98420BD01D4B984216
:1039300008D01D4B984205D01C4B984202D01C4B1E
:10394000984203D122F44072CB681A4322F08003DC
:103950004C6943EA040202608B68C3620B688362AD
:10396000094B984202D00C4B984201D10B6903637A
:1039700001234361036903F001031BB1036923F0D1
:103980000103036110BD000000000140000400407D
:1039900000080040000C00400004014000400140CD
:1039A000004401400048014000180040001C004055
:1039B0000020004030B50C46816821F47F4142EA86
:1039C000032525432943816030BD2DE9F047054695
:1039D0000C464FF000092868866826F0700660687B
:1039E000064326F00706206806432868866060685C
:1039F00000F00F0100293BD10011082838D2DFE880
:103A000000F0333435360B272D04D4E90313A268B4
:103A10002868FFF7CFFF2EE02068052802D101209B
:103A2000BDE8F0872868D0F820802868006A20F078
:103A30000100296808622868876927F0F007206973
:103A400047EA0017286887612868C0F8208012E0DC
:103A50002269A168286800F011F80CE02269A168C9
:103A6000286800F01EF806E000BF00BF00BF02E0BB
:103A70004FF0010900BF00BF4846D1E730B50B4603
:103A80001446026A056A25F001050562816921F084
:103A9000F00141EA041122F00A021A438161026234
:103AA00030BD30B50B461446026A056A25F0100594
:103AB0000562816921F4704141EA043122F0A002DB
:103AC00042EA03128161026230BD70B50546AC6BFB
:103AD0000020E085E0842046FEF72AFD70BD00BF8F
:103AE00000BF02680C3252E8002F22F49071026885
:103AF0000C3242E80013002BF3D100BF00BF00BF1F
:103B00000268143252E8002F22F0010102681432D8
:103B100042E80013002BF3D100BF016B01290ED145
:103B200000BF00BF02680C3252E8002F22F01001E3
:103B300002680C3242E80013002BF3D100BF2021B1
:103B400080F8421000210163704710B504462068D8
:103B5000C06820F040002168C860202084F841003F
:103B60002046FEF74FFF002010BDF8B5044694F83C
:103B70004200222875D1A068B0F5805F0CD1206981
:103B800050B90025A66A20684068C0F3080030805C
:103B9000A06A801CA06215E0A56A0026A068B0F5A6
:103BA000805F03D0A06828B9206918B920684068F0
:103BB000287004E02068406800F07F002870A06A48
:103BC000401CA062E08D401E80B2E085002846D1F6
:103BD0002068C06820F020002168C8602068C068A4
:103BE00020F480702168C8602068406920F00100DE
:103BF00021684861202084F8420000206063206B27
:103C0000012826D10020206300BF00BF21680C31AD
:103C100051E8001F21F0100021680C3141E800023A
:103C2000002AF3D100BF2068006800F010001028BF
:103C30000AD100BF00200090206800680090206832
:103C40004068009000BF00BFA18D2046FEF76FFCCA
:103C500002E02046FEF7AEFE0020F8BD01E00020A5
:103C6000FBE70220F9E700002DE9F84F0446206841
:103C7000006920F44050E168084321680861216927
:103C8000A068084361690843E1690843009020681F
:103C9000C06849F20C618843009908432168C860F4
:103CA0002068406920F44070A16908432168486198
:103CB00076492068884203D075492068884203D13C
:103CC000FDF786FC814602E0FDF772FC8146E06963
:103CD000B0F5004F6CD102206168A0FB0150034693
:103CE0001920A9FB007001462A463846FCF7C8FA9D
:103CF0006421B0FBF1F04FEA001A02206168A0FBDA
:103D000001510B461920A9FB00712A463846FCF7E1
:103D1000B7FA834602206168A0FB015003461920D0
:103D2000A9FB00712A463846FCF7AAFA6421B0FBC9
:103D3000F1F000EBC00101EB0010ABEB8000322191
:103D400001EBC0006421B0FBF1F000F0F8000AEBD9
:103D5000400A02206168A0FB015003461920A9FB1C
:103D6000007001462A463846FCF78AFA834602204C
:103D70006168A0FB015003461920A9FB00712A4687
:103D80003846FCF77DFA6421B0FBF1F000EBC0018E
:103D900001EB0010ABEB8000322101EBC00064218D
:103DA000B0FBF1F000F007005044216888606AE041
:103DB00004206168A0FB015003461920A9FB007094
:103DC00001462A463846FCF75BFA824604206168C1
:103DD000A0FB015003461920A9FB007001462A46AA
:103DE0003846FCF74DFA6421B0FBF1F000EBC0015E
:103DF00001EB0010AAEB8000322101EB00106421DE
:103E0000B0FBF1F000F0F00A04206168A0FB017043
:103E100003461920A9FB00513A462846FCF730FA20
:103E20006421B0FBF1F00AEB001A04206168A0FBEA
:103E300001510B461920A9FB00712A463846FCF7B0
:103E40001FFA834604206168A0FB01500346192035
:103E5000A9FB007001462A463846FCF711FA642196
:103E6000B0FBF1F000EBC00101EB0010ABEB800008
:103E7000322101EB00106421B0FBF1F000F00F00E3
:103E8000504421688860BDE8F88F000000100140B0
:103E900000140140014691F84100212828D188688A
:103EA000B0F5805F0BD1086948B90A6A1088C0F381
:103EB00008000B685860086A801C086205E00B6AFD
:103EC000581C086218780B685860C88C401E80B275
:103ED000C88458B90868C06820F080000B68D860B2
:103EE0000868C06840F040000B68D8600020704748
:103EF0000220FCE710B500240748006800F020000D
:103F000030B105484068C4B20449204600F094FD31
:103F10000348FEF70FFB10BD001001409800002081
:103F20009006002070B50D48006806680B480068D0
:103F3000C56806F0200070B105F0200058B10748B0
:103F400000684068C4B20649204600F075FD054887
:103F500000F01AFB70BD00BFFCE70000D80600208F
:103F60002C4800208400002010B5054800F0F4FA29
:103F7000034800F001FB034800F05AFD10BD0000AB
:103F8000840000202C48002000BFFEE70FB4054B42
:103F900010B503A9044A029800F036F810BC5DF889
:103FA00014FB00006D4400089400002002480068E3
:103FB000C0F30220704700000CED00E010B50028AF
:103FC00004DB0A07130E054A135406E00A07140E11
:103FD000034A00F00F031B1FD45410BD00E400E09F
:103FE00018ED00E0EFF30580704702E008C8121FEB
:103FF00008C1002AFAD170477047002001E001C1D2
:10400000121F002AFBD170472DE9FF4F8DB00F46DC
:104010000546002606E025280BD0DDE90F12904763
:104020006D1C761C28780028F5D111B03046BDE80B
:10403000F08F0024A246A1460122EC4900E004438F
:1040400015F8013F203B02FA03F00842F7D1287827
:104050002A2810D06FF02F022878A0F1300109290A
:1040600014D80AEB8A0102EB410144F0020400EB90
:10407000010A6D1CF0E701CF5FEA000A03D544F4A2
:104080000054CAF1000A44F002046D1C28782E285E
:1040900017D115F8010F44F004042A280ED06FF050
:1040A0002F022878A0F1300109290AD809EB8901EB
:1040B00002EB410100EB01096D1CF2E757F8049B8C
:1040C0006D1C28786C280FD006DC4C2817D0682887
:1040D0000DD06A2814D104E0742810D07A280FD1AA
:1040E0000DE044F400140AE044F4801401E044F4C8
:1040F00040146978814202D104F580146D1C6D1C56
:104100002A786E2A1FD00CDC632A31D004DC002A06
:104110008BD0582A11D1A3E0642A68D0692A0CD127
:1041200065E0732A2ED004DC6F2A73D0702A04D184
:104130009BE0752A6FD0782A6ED01046DDE90F1209
:104140009047761C50E1C4F30250022806D00328A1
:1041500009D0042801CF09D0066045E101CFF1174D
:10416000C0E9006140E101CF06803DE106703BE11E
:1041700017F8040B8DF8000000208DF80100EB46C5
:10418000012003E057F804BB4FF0FF3061074FF008
:10419000000102D40DE008F10101884649450FDA1B
:1041A0008045F8DB1BF808100029F4D108E008F17D
:1041B000010188468142FADB1BF808100029F6D17C
:1041C000DDE90F23AAEB08008146214600F036F90D
:1041D000304400EB080604E0DDE90F121BF8010B88
:1041E0009047B8F10108F7D221464846F7E00A2186
:1041F000C4F302534FF0000B0891022B04D001CFFF
:10420000C117032B09D00AE0FF1D27F00707F7E8C5
:10421000020108E032E01FE020E000B2C117042BE9
:1042200001D140B2C117031E71F1000307DA4FF04C
:10423000000CD0EB0C006CEB01012D2302E02305F8
:1042400004D52B238DF82430012303E0E30701D0AC
:104250002023F7E7984658E00A2110E010210EE0ED
:1042600010204FF0000B08900CE010214FF0000BD5
:1042700044F004044FF00809089103E008214FF0CE
:10428000000B0891C4F30253022B04D001CF00218C
:10429000032B06D006E0FF1D27F00707F7E8020111
:1042A00003E080B2042B00D1C0B24FF00008230716
:1042B0002BD5702A07D0DDF820C08CF0100C5CEAFA
:1042C0000B0C05D00EE040238DF82430012308E0CC
:1042D00050EA010306D030238DF824308DF82520D4
:1042E00002239846DDF820C08CF0080C5CEA0B0C29
:1042F0000BD150EA010301D1630706D530238DF8B5
:1043000024304FF00108A9F10109582A04D038A23D
:104310000B9208AA0A920BE03AA2F9E75B46089AC8
:10432000FBF7AEFF0B9B9B5C0A9A521E0A9213701E
:1043300050EA0102F2D10A98ADEB000000F1200B27
:10434000600702D524F4803401E04FF00109D9451B
:1043500002DDA9EB0B0000E0002000EB0B01414463
:104360000890AAEB010AE00306D4DDE90F232146F9
:10437000504600F063F806444FF0000908E009A930
:1043800011F80900DDE90F12904709F10109761CC7
:10439000C145F4DBE0030CD5DDE90F23214650468F
:1043A00000F04CF8064404E0DDE90F12302090479D
:1043B000761C0899481E08900029F5DC08E00A9848
:1043C0000A990078491C0A91DDE90F129047761C82
:1043D000BBF10001ABF1010BF1DC21465046DDE9F8
:1043E0000F2300F019F806446D1C1BE60928010094
:1043F000303132333435363738396162636465665B
:10440000000000003031323334353637383941421C
:1044100043444546000000002DE9F04104460025D4
:104420001E461746880404D405E039462020B047CC
:104430006D1C641EF9D52846BDE8F0812DE9F041D8
:10444000044600251E469046C80301D5302700E0EB
:104450002027880404D505E041463846B0476D1C46
:10446000641EF9D52846BDE8F081000013B50C465E
:10447000002007490870012269460648FEF7A6FA9F
:1044800000BF034800780028FBD000981CBD000046
:104490007C0000209006002008B5FCF797FEFFF78F
:1044A000A1F9FEF7BDFEFEF797FEFEF779FFFEF7D6
:1044B000D1FFFEF7EBFFFEF757FEFEF74FFFFEF7CB
:1044C000A5FFFEF719FB4FF6FF70A0238022002105
:1044D00000900846FEF7D4FAFCF7F0F8FCF702F972
:1044E000FFF742FD064800F0A3FAFCF707F805A025
:1044F000FFF74CFD00F01AF801E0FEF7A5FDFCE720
:104500009800002048656C6C6F20576F726C6421B6
:104510000D0A000010B50246012000E050430B1EBA
:10452000A1F10104E1B2F9D110BD000010B5FFF70F
:1045300059FD10B16FF0050409E00648006820B984
:10454000012004490860002401E04FF0FF342046B8
:1045500010BD00004C00002010B5044603220021CD
:10456000012000F043FC206000231A461946206811
:1045700000F0B6FC002010BD10B504464FF0FF312E
:10458000206800F0F1FD10BD10B504460849206810
:1045900000F07AFD0648006838B14FF080500549B8
:1045A0000860BFF34F8FBFF36F8F012010BD000075
:1045B0008000002004ED00E02DE9F04105460E46A4
:1045C0001648076816480068001D00F043FA681C8A
:1045D00038B936B112480168091D124800F075FA61
:1045E0001AE07C190E4800684460BC4207D20C48AF
:1045F0000168091D0C48006800F04DFA0CE00848FD
:104600000168091D0948006800F045FA084800687B
:10461000844201D206480460BDE8F08124000020F5
:1046200010000020180C00201800002014000020AA
:10463000400000202DE9F04104460F4615464FF09A
:104640000008A66B206C48B9206800282CD1A0680F
:1046500000F05EFF80460020A06025E07DB939466D
:10466000226C6068FBF73DFE216C60680844606066
:10467000D4E90101884217D32068606014E039460C
:10468000226CE068FBF72DFE216CE068411AE160C6
:104690002168E068884203D2216CA068411AE16079
:1046A000022D01D106B1761E701CA0634046BDE804
:1046B000F08101464A6A22B10A6B1268C2F13800E1
:1046C00000E000207047000030B54FF470531748E9
:1046D00000F007042CB1C01D20F00700134C041B90
:1046E0001B1B0246124C22600024114D6C60D01836
:1046F000083820F007000F4C206000240D4D2D6875
:104700006C600C4D2D682C601146441A4C60094CAD
:1047100024680C60084D4C682C60084D4C682C6077
:104720004FF00044064D2C6030BD00002C0C0020E2
:104730005000002058000020600000205C00002095
:104740006C0000202DE9F04106460D4617469846BC
:10475000069C0DB9246000E02760E6632564012112
:10476000204600F071FB84F84C80BDE8F081000029
:1047700010B50146164800E0006803688B42FBD381
:104780000246436813448B4204D143684C68234477
:10479000436001460A464B6813440468A34211D1A2
:1047A0000C4C03682468A34208D04B680468646812
:1047B00023444B6003681B680B6005E0054B1B68D6
:1047C0000B6001E003680B60884200D0016010BDFF
:1047D000500000205800002070B5054600F082F916
:1047E000A86B08B9012400E0002400F0A5F92046D8
:1047F00070BD70B5054600F075F9A86BE96B88428D
:1048000001D1012400E0002400F096F9204670BD9B
:104810000A490968096809B9012100E0002121B1AC
:104820004FF0FF31064A116006E004490968C96883
:10483000C868034A416811607047000014000020F6
:104840004000002070B5044600F04CF994F9455042
:1048500010E0606A08B9012000E0002038B904F1D6
:10486000240000F0F9FE18B100F0CCF900E003E0FC
:10487000681E45B2002DECDC00BFFF2084F8450027
:1048800000F05AF900F02EF994F9445010E0206934
:1048900008B9012000E0002048B904F1100000F040
:1048A000DBFE08B100F0AEF9681E45B200E001E0A1
:1048B000002DECDC00BFFF2084F8440000F03CF940
:1048C00070BD00002DE9F04104464FF0000800F0F3
:1048D00023FA4948006808B9FFF7F6FE4748006820
:1048E0002040002870D1D4B1083404F00700B0B1E2
:1048F00004F00700C0F10800044404F0070008B900
:10490000012000E0002050B900BF502080F3118842
:10491000BFF34F8FBFF36F8F00BF00BFFEE7002CC8
:1049200052D03748006884424ED8364E304605682B
:1049300001E02E462D686868A04202D2286800284F
:10494000F7D12D48006885423ED0306800F1080854
:10495000286830606868001B102819D92F1907F0E3
:10496000070008B9012000E0002050B900BF502026
:1049700080F31188BFF34F8FBFF36F8F00BF00BF6D
:10498000FEE76868001B78606C603846FFF7F0FE51
:104990001B4968680968081A1949086008460068D0
:1049A00019490968884203D2154800681649086009
:1049B0001249686809680843686000202860134845
:1049C0000068401C1149086000F092FE08F00700E2
:1049D00008B9012000E0002050B900BF502080F34A
:1049E0001188BFF34F8FBFF36F8F00BF00BFFEE78B
:1049F0004046BDE8F0810000580000206C00002017
:104A00005C000020500000206000002064000020B6
:104A10000648006830B10549096801F15000096D88
:104A2000491C016001480068704700001000002028
:104A3000002101604160704710B50B685B1CC3F337
:104A400009024B68934204D00C6801F10803185521
:104A50000A6010BD01460A69D1E901309860D1E9C8
:104A6000010358605068884201D188685060002076
:104A700008611068401E10601068704700F108015E
:104A800041604FF0FF31816000F10801C1600161B8
:104A900000210160704710B502460B685C1C0CB920
:104AA000106907E002F1080000E0406844682468EB
:104AB0009C42FAD944684C604C68A16088604160AF
:104AC0000A611468641C146010BD42684A609368EF
:104AD0008B60936859609160086103685B1C036098
:104AE0007047000000BF502080F31188BFF34F8F44
:104AF000BFF36F8F00BF0E480068401C0C49086070
:104B000008460068012812D10A480068C0B208B9F6
:104B1000012000E0002050B900BF502080F3118830
:104B2000BFF34F8FBFF36F8F00BF00BFFEE770472B
:104B30007000002004ED00E00D48006850B900BF8F
:104B4000502080F31188BFF34F8FBFF36F8F00BFEA
:104B500000BFFEE706480068401E05490860084699
:104B6000006820B9002080F3118800BF00BF7047A3
:104B70007000002070B5FBF76DFB0446102C16D3B7
:104B800004F1E02090F8F05315480078854201DBED
:104B9000012000E0002050B900BF502080F31188B0
:104BA000BFF34F8FBFF36F8F00BF00BFFEE70D480D
:104BB000006800F4E0600C490968884201D80120CF
:104BC00000E0002050B900BF502080F31188BFF3EF
:104BD0004F8FBFF36F8F00BF00BFFEE770BD0000B7
:104BE000740000200CED00E0780000200349096803
:104BF00001600349096841607047000038000020E7
:104C00002400002001200149086070473400002082
:104C100070B504460D4654B900BF502080F311888A
:104C2000BFF34F8FBFF36F8F00BF00BFFEE7054894
:104C3000016818312046FFF72EFF01212846FFF7B3
:104C4000BBFC70BD100000202DE9F04706460F4662
:104C500034464FF00109002E55D0206D50B900BFE9
:104C6000502080F31188BFF34F8FBFF36F8F00BFC9
:104C700000BFFEE7E06CB84201D23D4600E0E56CC3
:104C8000E06AA8423FD0206D01283CD11F4800684F
:104C9000844201D0012000E0002050B900BF502024
:104CA00080F31188BFF34F8FBFF36F8F00BF00BF3A
:104CB000FEE7D4F82C80E562A06900F0004010B94E
:104CC000C5F13800A06108EB8801114A02EB8101AF
:104CD0006069884201D1012000E0002098B1201DC8
:104CE000FFF7B8FE0B49E06A0968884202D9094912
:104CF000E06A0860E16A01EB8101054A02EB81008C
:104D0000211DFFF7E2FEBDE8F08700001000002043
:104D1000680700202800002002480068401C014964
:104D200008607047480000201E48006818B1012044
:104D30001D49086034E000201B4908601B480168D9
:104D40000CE051B900BF502080F31188BFF34F8FA2
:104D5000BFF36F8F00BF00BFFEE7491E01EB81006C
:104D6000134A52F8200008B9012000E00020002872
:104D7000E7D101EB81020E4B03EB820042685268DF
:104D8000426000F108024368934202D142685268CF
:104D900042604268D268074B1A600448016000BF55
:104DA0007047000048000020340000202800002048
:104DB000680700201000002010B500BF502080F3CD
:104DC0001188BFF34F8FBFF36F8F00BF00F0FEFA63
:104DD00018B14FF080500449086000BF002080F3F4
:104DE000118800BF10BD000004ED00E02DE9F8437C
:104DF00005460E4617460DB1012000E0002050B9CF
:104E000000BF502080F31188BFF34F8FBFF36F8F27
:104E100000BF00BFFEE705FB06F808F15000FFF7F2
:104E200051FD044664B1A14609F15009002084F8FF
:104E300046003B464A46314628460094FFF782FC2E
:104E40002046BDE8F883000070B505460E462C46A6
:104E500054B900BF502080F31188BFF34F8FBFF3C8
:104E60006F8F00BF00BFFEE7FFF73CFED4E90F12D3
:104E7000206801FB0200A0600020A0632068606041
:104E8000E06B401E226C216800FB0211E160FF20F4
:104E900084F8440084F845009EB9206908B90120CF
:104EA00000E00020A8B904F1100000F0D5FB80B1AB
:104EB0004FF0805009490860BFF34F8FBFF36F8FE9
:104EC00007E004F11000FFF7D9FD04F12400FFF71B
:104ED000D5FDFFF731FE012070BD000004ED00E0BC
:104EE0002DE9FF4383B0064688461D464FF0000972
:104EF000344654B900BF502080F31188BFF34F8F60
:104F0000BFF36F8F00BF00BFFEE7B8F1000F01D104
:104F1000206C08B9012000E0002050B900BF5020EB
:104F200080F31188BFF34F8FBFF36F8F00BF00BFB7
:104F3000FEE7022D02D1E06B012801D1012000E043
:104F4000002050B900BF502080F31188BFF34F8F6D
:104F5000BFF36F8F00BF00BFFEE700F027FA08B96C
:104F6000059808B9012000E0002050B900BF50208A
:104F700080F31188BFF34F8FBFF36F8F00BF00BF67
:104F8000FEE700BFFFF7AEFDA06BE16B884201D3E7
:104F9000022D28D12A4641462046FFF74BFB074603
:104FA000606A08B9012000E0002068B904F124001B
:104FB00000F052FB88B14FF0805032490860BFF3D7
:104FC0004F8FBFF36F8F08E03FB14FF080502D49F6
:104FD0000860BFF34F8FBFF36F8FFFF7ADFD012068
:104FE00007B0BDE8F083059818B9FFF7A5FD0020CC
:104FF000F6E7B9F1000F04D101A8FFF7F7FD4FF074
:105000000109FFF799FDFFF787FEFFF76BFD94F9A4
:105010004400401C10B9002084F8440094F9450075
:10502000401C10B9002084F84500FFF785FD05A954
:1050300001A800F075F9F0B92046FFF7DAFBA0B13E
:1050400004F110000599FFF7E3FD2046FFF7FAFB96
:1050500000F04EFB002895D14FF0805009490860C0
:10506000BFF34F8FBFF36F8F8CE72046FFF7EAFB4C
:1050700000F03EFB86E72046FFF7E4FB00F038FB3C
:105080000020ADE704ED00E02DE9F04706460F46AD
:10509000344654B900BF502080F31188BFF34F8FBE
:1050A000BFF36F8F00BF00BFFEE7206C08B901207F
:1050B00000E0002050B900BF502080F31188BFF3FA
:1050C0004F8FBFF36F8F00BF00BFFEE7206808B9A6
:1050D000A06808B9012000E0002050B900BF5020AE
:1050E00080F31188BFF34F8FBFF36F8F00BF00BFF6
:1050F000FEE7FFF73FFD00BF5021EFF3118081F382
:105100001188BFF34F8FBFF36F8F00BF0546D4F8F0
:105110003890E06B48451ED994F945A009F101008B
:10512000A0630AF1010070B9606A08B9012000E0CB
:10513000002068B904F1240000F08EFA40B13FB1BC
:105140000120386004E00AF1010040B284F8450013
:105150004FF0010801E04FF0000800BF85F311880F
:1051600000BF4046BDE8F0872DE9F34182B0054617
:105170004FF000082C46002654B900BF502080F3A1
:105180001188BFF34F8FBFF36F8F00BF00BFFEE7E3
:10519000206C08B9012000E0002050B900BF502069
:1051A00080F31188BFF34F8FBFF36F8F00BF00BF35
:1051B000FEE700F0FBF808B9039808B9012000E009
:1051C000002050B900BF502080F31188BFF34F8FEB
:1051D000BFF36F8F00BF00BFFEE700BFFFF782FC89
:1051E000A76BFFB1781EA063206810B9FFF710FC11
:1051F000A060206908B9012000E0002060B904F136
:10520000100000F029FA38B14FF08050434908608F
:10521000BFF34F8FBFF36F8FFFF78EFC012004B0F9
:10522000BDE8F081039898B90EB9012000E0002094
:1052300050B900BF502080F31188BFF34F8FBFF3E8
:105240006F8F00BF00BFFEE7FFF776FC0020E6E7A8
:10525000B8F1000F04D16846FFF7C8FC4FF0010811
:10526000FFF76AFCFFF758FDFFF73CFC94F9440098
:10527000401C10B9002084F8440094F94500401CFB
:1052800010B9002084F84500FFF756FC03A96846D2
:1052900000F046F840BB2046FFF79EFAF0B12068C8
:1052A00038B9FFF71FFCA06800F084F90646FFF745
:1052B00043FC04F124000399FFF7AAFC2046FFF702
:1052C000C1FA00F015FA002888D14FF08050134938
:1052D0000860BFF34F8FBFF36F8F7FE72046FFF764
:1052E000B1FA00F005FA79E72046FFF7ABFA00F0D3
:1052F000FFF92046FFF770FA0028EED05EB1FFF705
:10530000F1FB2046FFF7D5F907463946A068FFF7BD
:105310009BFCFFF711FC002081E7000004ED00E09A
:1053200070B505460C4655B900BF502080F3118872
:10533000BFF34F8FBFF36F8F00BF00BFFEE754B9BD
:1053400000BF502080F31188BFF34F8FBFF36F8FE2
:1053500000BF00BFFEE7FFF7C5FB124802686868A0
:10536000131A2068401C08B9002617E00E49286867
:105370000968884204D06868904201D801260DE08F
:105380002068984207D92068C01A20602846FFF795
:105390002DFC002602E0002020600126FFF7CCFB58
:1053A000304670BD240000203800002005490968FF
:1053B00009B9012005E00449096809B9022000E0A3
:1053C000002070472C000020480000202DE9F0410B
:1053D0004FF000084348006800287BD1424800682D
:1053E000451C4148056015BB40480068006808B985
:1053F000012000E0002050B900BF502080F3118848
:10540000BFF34F8FBFF36F8F00BF00BFFEE737487A
:1054100007683748006835490860354807603548EF
:105420000068401C33490860FFF7F2F900BF3248BA
:10543000006885423BD300BF2C480068006808B96B
:10544000012000E0002020B14FF0FF302A49086021
:105450002CE026480068C068C4686668B54202D27D
:105460002548066022E0201DFFF7F4FAA06A18B173
:1054700004F11800FFF7EEFA2049E06A0968884253
:1054800002D91E49E06A0860E16A01EB81011C4A09
:1054900002EB8100211DFFF718FB1A49E06A096839
:1054A000C96A8842C8D34FF00108C5E700BF154854
:1054B0000068C06A00EB8000114951F82000012803
:1054C00001D94FF001081048006808B14FF00108F9
:1054D00005E0FFE70D480068401C0C4908604046A5
:1054E000BDE8F081480000202400002014000020C6
:1054F0001800002038000020400000202800002074
:105500006807002010000020340000203000002038
:1055100070B505462C460026002D43D02248006871
:10552000844201D1012000E0002050B900BF50208A
:1055300080F31188BFF34F8FBFF36F8F00BF00BFA1
:10554000FEE7206D50B900BF502080F31188BFF3F3
:105550004F8FBFF36F8F00BF00BFFEE7206D401E6F
:105560002065E16CE06A88421CD0206DD0B9201D16
:10557000FFF770FAE06CE062E06AC0F13800A06109
:105580000A49E06A0968884202D90849E06A086065
:10559000E16A01EB8101064A02EB8100211DFFF760
:1055A00094FA0126304670BD10000020280000202B
:1055B0006807002070B505462C460026002D42D015
:1055C0002249E06A0968C96A884235D2A06900F0B8
:1055D000004028B91D480068C06AC0F13800A061C9
:1055E000E16A01EB81011A4A02EB8101606988429C
:1055F00001D1012000E00020C0B1201DFFF72AFAF0
:1056000012480068C06AE0621249E06A096888428C
:1056100002D91049E06A0860E16A01EB81010C4A95
:1056200002EB8100211DFFF750FA03E007480068F4
:10563000C06AE062012606E00449E06C0968C96AB4
:10564000884200D20126304670BD000010000020C4
:10565000680700202800002070B50646F068C4687E
:1056600054B900BF502080F31188BFF34F8FBFF3B0
:105670006F8F00BF00BFFEE704F11800FFF7EAF9E3
:1056800015480068A0B9201DFFF7E4F91349E06A46
:105690000968884202D91149E06A0860E16A01EBB1
:1056A00081010F4A02EB8100211DFFF70EFA04E091
:1056B00004F118010B48FFF708FA0B49E06A096882
:1056C000C96A884204D9012501200849086000E020
:1056D0000025284670BD000048000020280000205A
:1056E00068070020F00B002010000020340000208C
:1056F00070B5002400263648006850B900BF50201D
:1057000080F31188BFF34F8FBFF36F8F00BF00BFCF
:10571000FEE7FFF7E7F92E480068401E2C490860B5
:105720000846006800284ED12A48006800284AD060
:1057300023E02948C068C46804F11800FFF78AF91B
:10574000201DFFF787F92549E06A0968884202D9D8
:105750002249E06A0860E16A01EB8101204A02EB1C
:105760008100211DFFF7B1F91E49E06A0968C96A85
:10577000884202D301201C4908601748006808B914
:10578000012000E000200028D3D00CB1FFF740F842
:105790001648056865B100BFFFF718FE10B101207B
:1057A000114908606D1E002DF6D100200F490860D8
:1057B0000D48006838B1012630070D490860BFF375
:1057C0004F8FBFF36F8FFFF7B7F9304670BD000002
:1057D0004800002020000020F00B002028000020BE
:1057E0006807002010000020340000203000002056
:1057F00004ED00E000061016000610160000000080
:105800000000000001020304060708090000000070
:10581000010203040000000000000000000000007E
:1058200000000404040404000004000014140A002E
:10583000000000000000000000000A0A1F0A0A1F02
:105840000A0A000000040E1505060C14150E0400CB
:10585000000012150D152E2C2A1200000000040A5B
:105860000A3615152916000002020100000000008A
:1058700000000000100808040404040408081000D4
:1058800002040408080808080404020000000004D8
:10589000150E0E150400000000000008083E080860
:1058A00000000000000000000000000002020100F3
:1058B00000000000003F00000000000000000000A9
:1058C000000000000002000000201010080804047E
:1058D0000202010000000E1111111111110E000041
:1058E0000000040604040404040E000000000E116D
:1058F00011080402011F000000000E11100C10100E
:10590000110E00000000080C0C0A091F081C000002
:1059100000001F01010F1110110E000000000C12F9
:10592000010D1311110E000000001E1008080404E0
:105930000404000000000E11110E1111110E0000E0
:1059400000000E11111916100906000000000000D9
:10595000040000000004000000000000000400003B
:1059600000040400000010080402020408100000F3
:10597000000000003F003F000000000000000204A3
:10598000081010080402000000000E1111080404A1
:105990000004000000001C22292D2D1D221C0000E7
:1059A000000004040C0A0A1E1233000000000F124B
:1059B000120E1212120F000000001E11010101014F
:1059C000110E000000000F1212121212120F00002E
:1059D00000001F120A0E0A02121F000000001F1210
:1059E0000A0E0A020207000000001C120101391110
:1059F000120C000000003312121E121212330000AB
:105A000000001F0404040404041F000000003E08FA
:105A10000808080808080907000037120A060A12D1
:105A2000123700000000070202020202223F0000BB
:105A300000003B1B1B1B15151535000000003B1219
:105A400016161A1A1217000000000E11111111116A
:105A5000110E000000000F12120E020202070000D9
:105A600000000E1111111117190E180000000F126D
:105A7000120E0A121237000000001E110106081053
:105A8000110F000000001F1504040404040E0000A0
:105A90000000331212121212120C00000000331216
:105AA000120A0A0C040400000000151515150E0A50
:105AB0000A0A000000001B0A0A04040A0A1B00006C
:105AC00000001B0A0A0A0404040E000000001F095B
:105AD00008040402121F00001C040404040404044B
